:020000040800F2
:1000000000A00020CD2901083DDC0008050E0108F4
:100010003BDC000839DC000837DC00080000000089
:1000200000000000000000000000000035DC0008B7
:1000300033DC00080000000031DC0008E1E80008C3
:10004000352A0108352A0108352A0108352A010810
:10005000352A0108352A0108352A0108352A010800
:10006000352A0108352A0108352A0108352A0108F0
:10007000352A010821AE0008C3B30008352A01085B
:10008000352A0108352A0108352A0108352A0108D0
:100090009DDC0008352A0108352A0108F1E800082E
:1000A0004FA8000879A80008352A010889A8000887
:1000B0006DA800085DA80008352A0108352A010846
:1000C000352A0108352A0108352A0108352A010890
:1000D000352A010839AA00082DAA000821AA00081B
:1000E000F5E80008352A010849110108352A0108F8
:1000F000352A0108352A0108352A0108352A010860
:10010000000000000000000000000000352A010887
:10011000352A0108352A0108352A0108352A01083F
:10012000352A0108352A0108352A0108352A01082F
:10013000352A0108352A01080000000000000000EF
:10014000352A0108352A0108352A01080000000077
:10015000000000000000000000000000000000009F
:100160000000000000000000352A0108352A0108BF
:10017000352A010800000000000000000000000017
:0801800000000000352A01080F
:100188002DE9F04FAE4C2378092B9CBFAD4A3421A2
:100198002DED0E8B98BF01FB032395B094BF9E6A8B
:1001A8000026A94DA94FEB680DA898479DF8343053
:1001B80023B12378092B0CD900230FE00EF058FA4D
:1001C800A34B1B68F31A18443B6864339842E8D37E
:1001D800EFE79C4A342101FB03239B6AD7ED007AA1
:1001E8009C4CDFED9D8A2380F8EE677A9B4B9C48F8
:1001F80067EEA87AC3ED007A6B6898470B94984C21
:1002080040B9984B1A6812F0020F984640F0D9800E
:1002180000F060BC944D204621462A7808F0B4F9D5
:1002280095F80180B8F1000F33D0AB78BBB9874A95
:10023800126872B36B606E688B4F022E0CDC07F18C
:100248000803242101FB063140469FED880A013648
:1002580006F01BFE7E60EEE70123BB7019E0002369
:100268006B606E68804F022E13DC34F9163000EE96
:10027800103A242007F1080300FB0630B8EEC00A44
:1002880006F0DAFD14F000FF24F8160001367E604F
:10029800E7E7774EDFF8EC813388002B6AD06B6F85
:1002A80093F800B0A8F14807A8F13C054FF0000901
:1002B8003188B1F57A7F02BF00233B602B613A6831
:1002C80034F919301A4407EE903A2B693A60013331
:1002D800012B4FEA490AF8EEE77A2B6106D1002391
:1002E800C5ED017AC5ED007AAB601BE0D5ED006A7B
:1002F80007EE103A37EEE66AB8EEC77A86EE077A66
:1003080036EE877AD5ED026A85ED017A77EEC77AFF
:1003180085ED007AE6EE276AF0EE667AC5ED036AA7
:10032800C5ED026A0023012924F80A3028F80A30AA
:100338002BD12B69012BC3BF03F1FF3300EE103A19
:10034800D5ED037A9FED490AC4BFB8EEC00A87EE1F
:10035800800A14F07DFFBBF1000F0DD007EE90BAB4
:10036800F8EEE77AB4EEE70AF1EE10FA04DD4FF49E
:100378007A733380002319E03B684FF47A7203F5EF
:10038800FA7393FBF2F328F80A3009F10109B9F17D
:10039800030F07F1040705F1140589D130880128F6
:1003A80001D10EF0C3FA3388013BE2E734F8132099
:1003B80038F81310521A24F813200133032BF5D1FF
:1003C8001FE72C4B1B78002B00F084830EF050F9AC
:1003D800254BD3F8C820C3F8C800821A09EE102AA2
:1003E80000259946D9F8CCB01F4E9BF80020002A6A
:1003F8004AD096F8D020D4368AB11F4A32F915303F
:1004080000EE103A242000FB0560B8EEC00A06F0A2
:1004180013FD14F039FE194A22F815003AE0154682
:1004280071199BF800009FED160A243506F02DFD82
:100438006C2DF5D10C4A012182F8D010032529E052
:10044800000300206C000020502300202C320020E4
:10045800503100207C120020BD37863564230020EF
:10046800B812002088120020880800200000000030
:10047800D8320020B832002088320020B212002082
:1004880000007A4448090020D04A32F81510D04AB2
:1004980022F815100135022DA4DDCD4804904688B8
:1004A8000588878816FB06F215FB052217FB07222D
:1004B80064215143C74A1288524391FBF2F2A2F1D8
:1004C8005203D8F800200A9312F0080F09D0C24945
:1004D800B1F9000028B1B1F9020010B1B1F9041066
:1004E80079BBBE49097801F0100078B312F02002F8
:1004F8002CD001F0020149B3B94A1278042A25D94F
:10050800B84A1288B2F5967F20D3B74AB2F90430B8
:10051800B64A07EE903A1388B8EEE77A07EE903AB3
:10052800F8EEE77AB2EE048A87EE888A4FF0010A7D
:100538004FF0000877EE487A9FEDAD8A27EE888A5B
:1005480009E04FF0000A4FF0010802E04FF0000AFE
:10055800D0469FEDA88AB4F90030D9ED505A9E488C
:100568000AEE903AB4F902300BEE903AF8EEEBBA94
:10057800B4F9043044886BEEA5BAF8EEEAAA0BEE9B
:10058800103A6AEEA5AA2BEEAB0AB8EECBBAAAEEE1
:10059800AA0A038806932BEE25BAF8EE497A8388CF
:1005A8000993ABEE0B0A67EEA88A14F051FEF0EE41
:1005B80040CABAF1000F22D0DFED8F7AB4EEE78A95
:1005C800F1EE10FA04DDDFED8D7A38EE678AF3E795
:1005D800DFED8B7AB4EEE78AF1EE10FA04D5DFEDA1
:1005E800877A38EE278AF3E7B6EE000A28EE000A83
:1005F80006F0D7FE9FED7FCA30EE0CCA01E09FEDF2
:100608007DCA9FED7CAADFF80CA2F7EE009AB8F13C
:10061800000F56D0BDF91830DFED7A7A07EE103AA0
:1006280023B208EE103ABDF92430F8EEC7DA00EE2E
:10063800103AB8EEC88AB8EEC0DA2DEEAD0AA8EEC8
:10064800080AADEE0D0AB4EEE70AF1EE10FA38DD4D
:1006580014F0FEFD89EE800ADAED017ADAED006A1F
:1006680028EE008A2DEE807A68EE277A2DEE000AB1
:10067800E6EE877ADAED026AE6EE807ADAED046A67
:1006880028EE268ADAED036AA6EE878A9AED057ABD
:10069800A7EE008A28EE080AA7EEA70A14F0D8FDEC
:1006A800DAED067A20EE480AB0EE4A8AA7EE808A8A
:1006B800DAED077AA7EE80AADAED087AA7EE80CA03
:1006C80001E0B0EE4A8A0A9B262B3DD82BB207EEF2
:1006D800103A33B206EE903A3BB200EE103AB8EE5A
:1006E800C7EAB8EEC0DAF8EEE6DA2EEE0E0ADFED6B
:1006F800457AADEEAD0AADEE0D0AB4EEE70AF1EEBD
:1007080010FA21DD14F0A4FD89EE800ADAED075A0B
:100718009AED086A2EEE007A6DEE806A2DEE000AD8
:1007280065EEC07AE6EE867A26EE476A38EE278AC4
:10073800DAED067AA0EE276A67EEE67A3AEE06AABE
:10074800E7EE257A3CEE27CADBED017AF5EEC07AB2
:10075800F1EE10FA4FF000011FDD9FED2B7AF4EE59
:10076800C7CAF1EE10FA1ED567EE886A99ED517A7C
:10077800A6EEA87A67EE8A6A89ED517A99ED527ADF
:10078800A6EEA87A67EE8C7A89ED527A99ED537ABB
:10079800A7EEA87A89ED537A05E0C9F84411C9F89B
:1007A8004811C9F84C11194CDBED027A21784A0737
:1007B80032D41749086844F61F618842F7EE005A98
:1007C800B2EE047A98BFF0EE475A27E0883200204C
:1007D800B2120020060000207A1300200413002023
:1007E8000513002012130020EC120020141300201F
:1007F80035FA8E3C00000000DB0F4940DB0FC94092
:10080800DB0F49C00AD7233CC2B8B23EDF32002012
:1008180040320020C8240020F7EE005A67EEA55A9F
:10082800D9ED536A99ED517AD9ED527ADB4EDFF85A
:10083800AC8396ED004ADA4FD8ED003AD94DE5EE93
:100848008C6AA5EE887AE5EE8A7A3BEE26BAF6EE51
:10085800006A68EEA66A7BEEA77A3AEE877A27EEF8
:10086800A66A27EE267A6BEE266A26EE445A24EE0E
:10087800260AD7ED007AD5ED004A9FEDCB8AA7EE80
:10088800C75AA3EE870AF1EE645AA5EEA65AA5EE5A
:10089800860A66EEE75A37EE800AE3EE865A67EE76
:1008A800867A33EE855AE4EE875AE3EEA67A87ED28
:1008B800000A20EE000A74EE255AA5EE050AE4EEB9
:1008C800477AA5EEA50A74EEA77A88ED005AA7EE36
:1008D800A70AC6ED005AC5ED007A14F0B9FC89EEF6
:1008E800800AD8ED007AD5ED009A67EE807AC8EDD7
:1008F800007AD7ED007A67EE807AC7ED007AD6EDF8
:10090800007A67EE807A29EE800AC6ED007A85EDD6
:10091800000A0DF009F9DAED080A9AED070AA34D65
:1009280014F094FC20EE080A14F0AEFB9AED060AC7
:100938002880B1EE400A14F02BFCDFED9D7A37EEEB
:10094800C00A20EE080A14F09FFBDAED000A9AEDBF
:10095800030A688014F07AFCD9ED547AE0EE487AFC
:10096800B0EE670A14F090FB81B20B04049BDAED39
:10097800085AB3F90030D9ED557A9AED010A9AED83
:10098800065A58BFA98006EE103A049B8949B3F964
:10099800023007EE103A049BB8EEC77AB8EEC66A82
:1009A800F4EEE75A27EE000ADAED007AB3F90430DC
:1009B800A7EE860A44BF00F56160A88006EE903A6B
:1009C800DAED027A08789BF80120F8EEE66AF1EE93
:1009D80010FAA7EEA60ACCBF40F0080020F00800E5
:1009E800DAED077A087067EE277A012AE5EE067ACB
:1009F800E5EEA67ADAED045A27EE257ADAED035AFF
:100A0800A5EE867A9AED056AA6EE267AF1EE479A61
:100A18001AD1227857070FD4D9F85821402192FBD0
:100A2800F1F1531A07EE103AB8EEC77A37EE277A83
:100A3800BDEEC77A89ED567AD9F85821402192FB44
:100A4800F1F207EE102A03E05B4A138807EE103A2A
:100A5800B8EEC77A99ED578A77EEC77A99ED587A42
:100A680038EE877A77EEC87AC8EE878AA8EEA78A22
:100A780089ED578A14F008FBD9F86441217806F00B
:100A880081FCD9F86821B0EE690A1044C9F86801F8
:100A980014F0FAFA217806F075FCD9F86C21B0EE5A
:100AA800480A1044C9F86C0114F0EEFA617806F0AF
:100AB80069FCD9F870214149104419EE103A0A68C6
:100AC800C9F870011344D9F874210B600132C9F8D0
:100AD800742104E03A4B00221A805A809A80394BDC
:100AE800B3F90620384B1B6859898A420EDBB2F5E8
:100AF800FA6FD879BDBF531A4343A1F5FA60C0F124
:100B08006400BCBF93FBF0F0643000E064202F4B1E
:100B18002F49B3F8947193F95E31D1F800909BB2E4
:100B280004930021274B33F911C0C7EB0C0303F2E0
:100B3800F31540F2E634A5424FEA410E03D8002BE4
:100B4800B8BF5B4201E04FF4FA7302294FF0640525
:100B5800204C47D099F81D611EB1B342CCBF9B1BF6
:100B68000023DFF87CB093FBF5F66FF0630A3BF8DF
:100B780016800AFB063301360FFA88FA3BF916602D
:100B8800CAEB060A0AFB03F393FBF5F5124B45443F
:100B9800BC4524F80E5058544BDB50E0C0240020CC
:100BA800BC240020C42400204C3D0F44EC1200203B
:100BB800DB0FC93F0413002006000020C0320020CC
:100BC80088320020102F002000130020CC2600209F
:100BD800D0120020A0220020A822002044000020DB
:100BE8002825002099F81E611EB1B342CCBF9B1B7B
:100BF8000023C44E93FBF5F806EB480A06EB4806BB
:100C0800BAF978A1B6F97A616FF0630B0BFB083378
:100C1800CAEB0606734393FBFBFBBDF81030CAEB27
:100C28000B0A1AFB03FAB84BA4F804A0BC459D7044
:100C380009DAB64D3EF805305B422EF80530013131
:100C480003297FF46FAFB24DB5F896118A4205DBE0
:100C5800B2F5FA6FA8BF4FF4FA6200E00A46DFF86F
:100C6800DCE2AA4F521A4FF47A736FF063005A43CA
:100C7800C1F5FA616423B2FBF1F292FBF3F13EF89D
:100C8800116000FB0122013130B23EF91110091A3E
:100C98004A4392FBF3F33344E3809E4B994EB3F8F7
:100CA800008018F0400F39D09B4BDFED9C7AB3F9E8
:100CB80004300A2293FBF2F3B6F886219B1A1BB282
:100CC80008EE103AB8EEC88A28EE278AB0EE480A2D
:100CD80006F0C8FBF0EE408AB0EE480A06F061FB69
:100CE800B7F9023006EE903AB7F90030F8EEE66A46
:100CF80007EE903A20EE667AF8EEE77AA7EEA87A41
:100D080067EE807ABDEEC77AE6EEA87A17EE103A5B
:100D1800FDEEE77A3B8017EE903A7B8095F89A31A2
:100D280013B9B8F1000F72D096F88A31754FB6F83A
:100D380088814BB9012007F5C6719FED790A06F045
:100D4800A4F8012387F88A310B9B6E4F1B8800EEAD
:100D5800103A07F5C670B8EE400A06F06DF8BCEE1A
:100D6800C00A8DED040ABDF81030B8FBF3F06D4BE6
:100D780000F1010E1B781FFA8EFEA6F8B0E11BB336
:100D8800B7F8B29100215F4E34F811C006F5DE774E
:100D980006F5DA7837F8113038F8112027F811C03D
:100DA800C3EB0C0A12FB09F20FFA8EF392FBF3F372
:100DB800534428F8113001310429E4D1594BA6F8DD
:100DC800B20100221A7004E0B7F8B231013BA7F86B
:100DD800B2314C4AB2F8B20103B2002B4FF0000313
:100DE80013DDB2F9B041504931F81320083112FB34
:100DF80000F231F8131092FBF4F28A1A434921F8F1
:100E080013200133042BEED101E0A2F8B23195F89A
:100E18009B31002B6BD03F4A1288560667D407EEE9
:100E2800903A9FED3E7A394C404DF8EEE77A67EEFE
:100E3800877A17EE900A10F035FF41EC100B41EC61
:100E4800180B14F03DF8B4F900005BEC10AB10F08F
:100E580017FFB0EE480AF0EE680A06460F4614F08F
:100E680083F8B4F904008DED040B10F009FF324645
:100E7800804689463B465046594610F067FF424631
:100E88004B46CDE90601DDE9040110F05FFF02469B
:100E98000B46DDE9060110F0A7FD11F069F9B0F580
:100EA800FA7FA8BF4FF4FA70A842B8BF2846424656
:100EB8004B4620805946504610F048FF324680463F
:100EC80089463B46DDE9040110F040FF02460B4627
:100ED8004046494610F088FD11F04AF9B0F5FA7F0E
:100EE800A8BF4FF4FA70A842B8BF2846A080104F98
:100EF800104E3B7813F0040F22D00F4B1A689B88D2
:100F080013854FE088080020A8220020A022002096
:100F1800CC2600208C120020EC12002035FA8E3CE2
:100F280000000000AC1100203C0A00200CFEFFFF6E
:100F3800DF320020901200206C32002010250020A3
:100F48003268D5075CBF43F001033B70BB4B1B788D
:100F58001C075EBF3B7823F001033B70B84B1A882F
:100F6800B84B1AB1B84A1268900706D4B74A128823
:100F78001AB9B7490988642906D902221A703B7838
:100F880023F001033B7004E03978C90758BF0222F7
:100F98001A700DF06DFBAF4B1B68C01A002801DBFF
:100FA80010F050FBAC4B9B680BB1AC4898473368CA
:100FB800AB4CDFF8EC82AB4D13F4801F00F094804B
:100FC800B5F8009009F400691FFA89F9B9F1000F22
:100FD80078D13B785B0775D54FF4006006F05AFA74
:100FE800D8F80030C4F8C4311A78D4F8C411022AE9
:100FF80004BF012284F8C821B3F85A2018BF84F826
:10100800C8914FF47A735343974A94F8C8A1128849
:1010180093FBF2F35B429AB2944BA4F8CA2193F87B
:10102800009001F1200E002091F856C091F853303D
:10103800BCF1000F01D0634504D8B9F1030F05D8FE
:10104800022803D14FF0000C81F856C0DFF854C2D3
:10105800BAF1000F19D007EE903A9EED007AF2EE41
:10106800046AF8EEE77A27EE267AB4EEE77AF1EE2C
:1010780010FA44BFC7EEA67ACEED007ADEED007A0C
:10108800FDEEE77A17EE903A05E091F801B09B453E
:1010980038BF4B704B789B012CF81030704B03F520
:1010A800E97C4FF0000B2CF810B003F5EC7C013113
:1010B8002CF81020013003280EF1040EB4D10122BF
:1010C80083F8DE212B88180518D43B7803F0040335
:1010D80003F0FF0793B994F8DE317BB106F09CFC6E
:1010E8005F4B83F8DE7109E02B88190506D53B783C
:1010F8005A0703D54FF4006006F0BCF95C4B5D4F0E
:101108001B78ABB15C4BB3F90620B7F896319A421D
:101118000EDC7B79012B01D0192B02D197F8E6213F
:1011280032B90E2B04D0082B1EBF544B00229A80D4
:10113800D8F8003093F82491B9F1000F32D02B88F9
:101148009B072FD04E4BDFED4F7A93ED080AB4EE94
:10115800E70AF1EE10FA20D914F01AF8D4ED787AEB
:1011680020EE270A13F090FFB0F5617FA8BF4FF477
:10117800617007EE900AB8EEE70ADFED437A80EE79
:10118800270A06F00EF907EE909AF8EEE77A27EEAE
:10119800800A13F079FF80B200E00020374AD38834
:1011A8001844D080284B1B68980640F1DB802B88B8
:1011B80003F03003002B00F0D580204B1B78D907B3
:1011C80040F1D080314BDFED327AB3F90430DFF8EB
:1011D800D8900A2293FBF2F308EE103AB8EEC88AC8
:1011E80028EE278AB0EE480A06F0DBF8F0EE408ACF
:1011F800B0EE480A06F036F9264B274A1B68D9781C
:10120800B0EE409AB2EE048A002900F08780234DA0
:10121800B2F90200B5F802A006910FFA8AF3C01AD3
:10122800049205F069FB0699049A4B429842AB4632
:101238003CDB8842A8BF084639E000BF0413002001
:10124800DC1000206832002088120020D8320020EC
:10125800F425002084320020502300208A13002027
:10126800880800208C1200207C120020982300207F
:1012780002000020CC260020102F0020A0220020F1
:10128800C82400208FC2753CEFB6B044EC12002091
:1012980035FA8E3C24110020A8110020A41100204A
:1012A800D0120020540A0020DA3200201846504498
:1012B800BBF8005006931FFA80FAB2F900000491B7
:1012C8002AB2801AABF802A005F016FB069B9842DA
:1012D80004DB049988420346A8BF0B461D44ADB2FF
:1012E800ABF800502DB207EE105A0FFA8AF307EE4A
:1012F800903AB8EEC70AF8EEE77A28EEC07A20EE00
:10130800090AA7EE897AA7EEA80A87EE087ABDEE41
:10131800C77A17EE103AA9F800301BE0B2F902308C
:1013280007EE103AB2F9003000EE103AB8EEC00AF3
:10133800B8EEC77A68EEC07A20EE090AE7EE097AB5
:10134800A7EE280AC7EE887AFDEEE77A17EE903AFC
:10135800A9F8003080EE080AFDEEC07A17EE903A40
:10136800A9F80230C54B1B784BB1C54B00221A6057
:101378005A609A60C34B00221A605A609A60C24B46
:10138800D8F80000B7F86A210093C04B1D68C04B1D
:10139800196800F16403A847BE4BBF4993F803805E
:1013A800BE4B1D78032D16D9D4F8E4315F88B7F504
:1013B800FA7F10D2BA4BB1F904E0B3F9040000285F
:1013C800B8BF40427A42131A9E4503DB3B18734567
:1013D800A8BF73468B80336813F000630CD00020DD
:1013E800B1F802E0B1F800C0D4F8E491B1F904A072
:1013F800AC4E0246074676E0AB4A4E881370A84AC0
:101408000F88D088D4F8E441B1F90410A74A9E4661
:10141800AE4502F1100280F0808194F9003052ED5F
:10142800045ADFF8A4C25B424B4307EE903A3BB242
:1014380006EE903A03B206EE103A33B2B8EEE77A07
:1014480007EE903AF8EEE77AB8EEC66A67EEA57A44
:1014580052ED065AE6EE257AF8EEE66A12ED056ACE
:10146800E6EE867A52ED036AE7EE267AFDEEE77A33
:1014780017EE903A2CF81E300EF1010EC8E799F9D4
:10148800001096ED016A49420AFB01F107EE901A35
:101498000FFA8EF306EE903A0FFA8CF3B8EEE77A6D
:1014A80007EE903AF8EEE77AF8EEE66A67EE867AA3
:1014B80096ED026AE6EE867A0DA90FFA82FBD6ED62
:1014C800036AE7EE267AFDEEE77ACDED047ABDF8F9
:1014D800103021F8173019B2594507DD1A4603466E
:1014E800013710361846AF42C9D305E00FFA80FB22
:1014F8005945F5DB1346F1E7121A93B26C4E6D4A63
:10150800D7883268D20424D56B4909688888B1F82D
:1015180006E03AB2CEEB000C624506DC674AB1F849
:1015280000C012680121128808E086447245634AA7
:101538001268B2F802C04A8803DB002184F8A812B6
:1015480000E01746A4F8AAC2A4F8AC22A4F8AE7228
:1015580004E05A4A11680A88B1F802C052481FFAD2
:1015680082FE1FFA8CFCCEEB0C091FFA89F91BB21C
:101578000FFA89F293424FF0000119DD4FF0010C88
:1015880080F800C0A9420BD20DF1340C3CF81100D0
:1015980010FB09F090FBF3F02CF811000131F1E792
:1015A800022392FBF3F30EEB030292B204920AE0D9
:1015B8000170022193FBF1F30EEB0302C3EB0C0362
:1015C8009BB292B20493336894F8A8023A4E03F49B
:1015D800805A03F010030A93394BD6F800901B7811
:1015E80003F00403DBB2014606933448314B00682C
:1015F800B3F906E0D4F8B032324C09930026AE4273
:1016080080F08B800DAB33F9163007EE903A3BB281
:1016180006EE903A234B03EB0613B8EEE77AF8EEA2
:10162800E66AD3ED007A13B266EEA76A07EE903A3F
:10163800F8EEE77AF4EEE76AF1EE10FA0CD4BDF9A9
:10164800103007EE903AF8EEE77AF4EEE76AF1EE3A
:1016580010FAD8BFF0EE667A77EE277AFDEEE77AD1
:10166800CDED0B7ABDF82C3024F8023F1BB2B8F14F
:10167800000F2BD0B0F804C036E000BF04000020F3
:101688009422002038230020522800200403002040
:101698000013002044320020D0220020982300208C
:1016A800A0220020700A0020E2320020780A0020E0
:1016B80034320020102F00203C2400204024002039
:1016C800DF320020D2120020D4120020BAF1000F1D
:1016D80008D021B1B0F800C0B9F800B006E0B9F8F8
:1016E80002C001E0B0F800C0B0F802B0634503DB07
:1016F8005B45A8BF5B469C460A9BA4F800C053B153
:10170800069B43B1BAF1000F05D1099B1B8A9E4580
:10171800BCBF83882380013671E7A6490A7802F0A6
:10172800040202F0FF038B4612B9A34A12786EE056
:10173800A24B1B6813F0006308D0A14890F8B4329C
:10174800013BDBB2182B00F2AB816AE09D4ADFF85F
:1017580068921668DFF878E216F4805717D1BEF859
:10176800003099F80000012181421AB207D23EF9EF
:1017780011309A42B8BF1A4693B20131F4E7924940
:10178800096849888A4204DD5B1A9AB202E01A465F
:1017980000E000228D4B8E49B3F90640884BD3F800
:1017A800B0C28C4B1D68884B186899F800300EEB56
:1017B800430E7145C1D0002F40F04F840B889B1A0F
:1017C8009BB20B80B0F802901BB2B8F1000F0AD0A0
:1017D800B0F804A0534503DB4B45A8BF4B469A46D7
:1017E800A1F800A011E0B0F800A0534503DB4B4579
:1017F800A8BF4B469A46A1F800A0BCF810309C42FE
:1018080003DAF30601D583880B800231D1E79342CE
:1018180093D2714931F813006D4921F8130001334F
:10182800F5E701229A406D4B1340002B00F03881F8
:101838006B4B66491B8813F4807F08D0694B1A8864
:10184800ADF834205A88ADF836209B8815E0664BF1
:101858001A88ADF834205A88ADF83620594A9B8842
:101868001268ADF83830D40409D5D0F8B022B1F9EF
:101878000640D289944202DA5B42ADF838305B4DBB
:10188800B5F902304FF47A7203F5E16353434FF42C
:10189800616493FBF4F3A3F5FA73ADF84C30B5F932
:1018A800003003F5E1635A43494B92FBF4F21B887D
:1018B800A3F2DC53A2F5FA72ADF83A30D0F8B032A0
:1018C800ADF84E20DB890A88D21AADF83C204A8848
:1018D800D21AADF83E208A88D21AADF84020CA88BC
:1018E800D21AADF842200A89D21AADF844204A89A2
:1018F800D21AADF846208A89D21AADF84820CA898A
:10190800D31AADF84A300023394A002122F81310BF
:101918000133082BF8D1294A364B12680492364A0B
:101928001B78126835490692354D072202FB0318C9
:10193800414500F09C800B783BB103F1150201236F
:101948009340049A134000F08E8011F806EC069B31
:1019580011F805AC11F8034C11F801CCCEEBCE0709
:1019680003EB47076420B7F90020B7F902309B1A48
:101978009BB211F9022C4FEA53095A434FEA4A061F
:1019880092FBF0F214A8C9EB020292B2064414B911
:1019980036F81C0C0CE0B5F9000036F91C6CB042A6
:1019A80030DA0444844203DBA6423046A8BF20460E
:1019B800288030E0DF320020982300209012002099
:1019C800880800203432002040240020102F0020F6
:1019D800D41200203C240020CE2500209920980114
:1019E8008C120020A0220020D0220020EC1200201F
:1019F800BE12002044240020D42100204B240020C3
:101A08003E0B002007DD041BB44203DB8442A8BF61
:101A1800044626462E80D7F80A4011F9046C0120A6
:101A280000FA0AF02042288812B216FB00F014BF10
:101A38004FF0FF340124642690FBF6F090420ADB55
:101A48004FFA8CF25A4392FBF6F2C9EB020212B239
:101A58008242A8BF02469A4B33F81E9002FB0494B8
:101A680023F81E4000E02B800235073160E7954BD4
:101A7800954E1F6800250E2202FB057236F8023FBC
:101A880092F90640E8B214FB03F3642493FBF4F4E0
:101A980034800CF02FF801352044082D3080EAD12D
:101AA8008A4F874D3B68874E13F0200F32D00020B5
:101AB8000CF020F82880044601200CF01BF8844B19
:101AC80068801B68190625D5824B834AD3F8D8321B
:101AD8001B78012B22D13168138891F914E0B2F9EF
:101AE80002201EFB03F34FF0320C93FBFCF31FFAAA
:101AF80083FE91F906305B4253436FF0310193FB4B
:101B0800F1F10EEB0102A11893FBFCF37344298059
:101B180018446880D6F800E0002318E0D6F800E002
:101B280053889EF9061011FB03F1322391FBF3F160
:101B38002144298011889EF9142012FB01F292FB9E
:101B4800F3F21044E5E70133082B2A5311D00E2194
:101B580001FB03E135F91300B1F90020B1F90210D6
:101B680090424FEA4304EEDB0AB28242A8BF024623
:101B7800E9E7584CD4F8E49199F90830A3B994F8F6
:101B8800B48208F1FF33182B72D8DFE803F03571FF
:101B9800714F717171487171717171597171717190
:101BA800714F657171593500DFF81CA14FF00008BD
:101BB8004A4B3AF9021FB9F90620882000FB083081
:101BC8000BF0C7FD32680E2380B203FB0822AAF887
:101BD8000000B2F90030B2F9022000B2984203DBEB
:101BE80013B28342A8BF034608F10108B8F1080FF1
:101BF800AAF80030DCD1C2E799F8043013B100200C
:101C0800698908E09BF8003003F0040303F0FF0043
:101C1800002BF4D1014609F0F3F8012629E0002051
:101C2800E98809F0EDF80120298905E000202989D3
:101C380009F0E6F86989012009F0E2F8022618E0BF
:101C48000226B01E35F81610C0B2013609F0D8F8D1
:101C5800082EF6D106260CE00326F01E35F81610DD
:101C6800C0B2013609F0CCF8072EF6D1042600E000
:101C780000263B689A0602D4B8F1050F0AD130460F
:101C8800298809F0BDF8701CC0B2698809F0B8F855
:101C98000236F6B23B68DB0205D494F820370BB362
:101CA8000BF06EFE1EE0DFF8388000257019C0B218
:101CB80038F8021F09F0A4F80D2DEED00135F5E72C
:101CC800BE120020D4210020BC1200203432002093
:101CD8009012002088080020EC120020680B0020D9
:101CE800162F0020B04B1878002840F0E3813B689D
:101CF8001D0340F1DF8194F82137023B052B19D8E9
:101D0800AA4B93F8F8372BB9A94BD3F824070368E3
:101D18009B689847D4F8283794F82C271344B3F5D0
:101D2800807FA8BF4FF480738342D4BFC4F828379C
:101D3800C4F8280794F82137023B082B00F2BA812F
:101D4800DFE813F009003F00610077009000A2006F
:101D580014016C017901974B1A68D4F8343764334D
:101D68009A4240F2A78140200EF0CEF9002840F0B8
:101D7800A1814027904BD4F830278D4E985C1D46A2
:101D880070B10EF029FAD6F82837013BC6F8283783
:101D9800D6F83037013F03F10103C6F83037E9D1EF
:101DA800D4F83027824BAA5C002A40F08381C3F81C
:101DB80030274FF0FF32C3F83427032283F8212756
:101DC80078E1252300937D4B019303F10C020292E5
:101DD8004920A3F10A025021023307F0D1FB002861
:101DE80040F068813B6813F080034FF0FF3205D064
:101DF800C4F83007C4F83427042326E1C4F8303780
:101E0800C4F834272CE06E4A022300210093019184
:101E18000291482002F1080307F0B2FB002840F0C5
:101E280049814FF0FF33C4F83437C4F8300705232D
:101E38000BE107230093634B019303F10C02029219
:101E48004720A3F108020021043307F099FB00287A
:101E580040F030814FF0FF33C4F83007C4F834370E
:101E68000623F2E0584A05230021009301910291CC
:101E7800532002F1080307F083FB002840F01A8181
:101E8800C4F830070723E0E040200EF03DF90028B1
:101E980040F01081D4F830370C2B00F20281DFE8D3
:101EA80003F0070B0E1219252A2F3337455054001B
:101EB80046480EF049FA53E04548464913E046487B
:101EC8004649474A4AE0394B464893F8F61793F88B
:101ED800F72743E0354B444893F8D0270C2101FB02
:101EE800023393F8D2170EF02FFA39E02F4B3F4800
:101EF800B3F84011F7E72D4B3D48B3F84211F2E72C
:101F08003C4B3D481969EEE73C4B3D481988EAE7E8
:101F1800D4F83837D80404D5244B3A4893F87811C4
:101F2800E1E7234B0B22C3F8302719E01F4B364853
:101F380093F87C1193F87D2193F87B310EF004FA25
:101F48000EE03248B4F83C17CDE73B68190507D5D1
:101F5800164B2F48B3F88011B3F97E210EF0F4F92F
:101F6800D4F830370133C4F83037A3E0294B1B6865
:101F78009A0116D5B4F840370D4D93B9D5F84437C2
:101F88000D93254B0E201B680E930DA907F02EF814
:101F98004FF48053A5F83E37092385F8213707F019
:101FA8007FF807F005F885E0E1320020CC26002014
:101FB800880800204032002038780108A2780108FB
:101FC800547A01086C7A0108B87A0108909B0108D4
:101FD800AA9B0108BF9B0108C79B0108DB9B01085E
:101FE800E79B0108F09B0108019C01080B9C010874
:101FF8001A9C010850230020299C01080600002093
:10200800399C0108439C0108509C0108699C0108FF
:10201800749C0108901200205031002094F8483731
:10202800002BBCD0264B1B689B01B8D4254B08223B
:1020380083F82127B5E7244B1A68D4F83437C83316
:102048009A4205D90EF07EF8012384F8213731E051
:102058000EF092F80028F5D12CE0BCF80E90EB8831
:10206800C3EB090A544502DD4B449C4213DB4C4543
:10207800C8BF6B88B1F90090D6BF8388B0F802A0BA
:10208800B5F800A09945FFF6BFABD1454B46A8BFB0
:102098005346FFF7B9BB4C45CCBF6B882B88FFF77D
:1020A800B3BB0EF069F828B14FF48053A4F83E375B
:1020B8000923CAE715B0BDEC0E8BBDE8F08F00BF51
:1020C8009012002088080020403200202DE9F04FAF
:1020D800A34FA44C3A6802F59C432DED028B2033A4
:1020E8002360A14B1E7887B0D6B1A04909688A42FF
:1020F80040F20881013E1E7004E1DFF890829C489E
:10210800D8F80030072D98BF595D9A4B88BF2946EB
:102118001B689847032D09D904EB45050136A880AB
:102128000FF026FAF5B28542E7D320E0D8F8002070
:1021380005F10E0302EB8303D9881A890028EBD036
:102148004FF47A73401A5843531A90FBF3F040F651
:10215800C90300F57A70984205DC40F2EE239842F4
:10216800B8BF184601E040F6CA0080B2D4E7824BF7
:10217800824E1B68D6F8008042F2010A03EA0A0A76
:10218800BAFA8AFA4FEA5A1A7D4BBAF1000F05D10A
:1021980094F828201A707B4A517811701B782BB15B
:1021A800784B93F8009089F0010900E099460F23D5
:1021B800DFF8F0B184F8293000250FF0D9F985420D
:1021C80067DA6B00B9F1000F03D06F4A32F81500D7
:1021D80000E048466D4ADFF8D0C11168CA8A8242D9
:1021E8004FEA850E6A4A02D8098B81421CD25CF8F4
:1021F8000E005C49804501D2D05A19E0E8B202923B
:102208008DE80A000FF0CCF9032D019B029A0FDC30
:1022180000994FF0010E91F829C00EFA05FE2CEA3C
:102228000E0E81F829E003E008F596714CF80E10BF
:10223800BAF1000F28D194F8BC100322B1FBF2F2D6
:1022480002EB42028A1A03EB050E5EFA82F204EBF5
:102258004202508594F8BD202AB9022913D9414A6F
:10226800012182F8BD10BBF800203BF8020C104495
:10227800BBF802201044474A80B2D05200B2032271
:1022880090FBF2F080B2424AD05201350BF1060BB6
:1022980093E794F82920404BA2F10F014A424A41A2
:1022A80084F8D6206AB13D4A1268520109D43268CE
:1022B800D9689A60521AC82A1FD9012283F82120A6
:1022C8001BE0304A01215170117032689968DA6058
:1022D8005B68521A9A4282BF2F4B002283F8212052
:1022E80000250FF045F9854207DAE8B20FF058F9F2
:1022F800274B23F815000135F3E794F8BC30013378
:1023080084F8BC301C4B1A6812F4805F984605D0DC
:10231800224B1B68DE0701D40EF03AFD1B4B3968CF
:102328001868837A002B41D0013B194D027B35F8A0
:1023380013301AB1C3F53B6308339BB21BB2A3F544
:102348007A73B3F57A7FA8BF4FF47A7323EAE373FD
:1023580007EE903A9FED127AF8EEE77A5FE000BF59
:1023680050310020D40F00203C32002038320020A9
:10237800D42E0020B0020020343200204032002049
:10238800B018002000000020D80F002030320020B4
:10239800102F0020921000204432002090120020BC
:1023A80000007A440010002048100020D8F80020CF
:1023B800150440D5D4F8D820934E8A1A002A3ADB5F
:1023C80001F59C422032C6F8D820904AC07A557947
:1023D8008F4A32F8152096F8DC50013592B292FBFC
:1023E800F0F205F00F0086F8DC00304480F8DD20BC
:1023F8001A468848185C01330244102B92B2F8D16F
:1024080012B292FBF3F31BB2642BA8BF642323EA36
:10241800E37307EE903A9FED807AF8EEE77AC7EE1D
:10242800877A7E4A9FED7E7A67EE877AFCEEE77AB6
:1024380017EE903A1380D8F800307A4D13F4807F65
:1024480000F00981784BDFF8E491994205D999F8B1
:10245800022012B9012289F8022099F80220002AE4
:1024680000F0F980714A2F7892F82160721E564266
:1024780056416F4A1168002EC1F38063C7F3800785
:102488000093924614BF4FF0000B4FF0030B99F8DE
:102498002020052A00F2D980DFE802F0034D5275AA
:1024A80084A1002F3AD0D4F8F000B4F8F4100CF05E
:1024B8009AF8012809D15F495F4A09681268C988F2
:1024C800642000FB0122C9F81020009B6BB1594A17
:1024D800126812794AB10FF055FA032289F82020C0
:1024E8004FF47A72C9F81C20D1E7002E40F0AD8075
:1024F800514AD9F8101010684C4A88420AD90192FA
:102508000FF040FA019A032182F8201040F6B83102
:10251800D161BCE7012182F82010B8E7009B4FF495
:10252800806013B104F0B6FF01E004F0A3FF0022BD
:10253800C9F8102089E0002E46D10FF023FAA6E74B
:1025480026B1052289F82020012000E0304667B135
:10255800D4F8F020D189394A1180518091803549C9
:1025680009684988D1804FF0020B334A1168D9F8BD
:102578001420914201D8002F64D147F23052C9F893
:102588001C20032221E02A7842F002022A700EF071
:10259800FFFB294AD9F81C1012680A44C9F8182008
:1025A800042212E0244A9EB11168D9F818209142F9
:1025B8004BD9234A92781AB9DAF80020D30744D4C1
:1025C8002A7822F002022A70052289F820205EE784
:1025D8001268D9F81C100A44C9F8182035E01549C2
:1025E800154A09681268C988642000FB0122C9F8E5
:1025F80010204FF48060002289F8202089F80320F9
:1026080004F038FF43E700BFD40F00207017002004
:1026180080170020B11000200000C842F8120020E6
:1026280000C07F44DF320020404B4C004432002081
:1026380090120020BC32002040320020102F0020D1
:102648000000002000287FF422AFBBF1000F02D069
:1026580058460CF06BF9A94EA94FB6F84E1106F57D
:10266800C3700BF0C0FF824630BBA64B1B6813F04B
:10267800006908D0FB7833B90EF0A6F9A24B0128FF
:1026880018BF002018702B78580708D5D8F80030E4
:10269800D90604D4B9F1000F01D0FB785BB39B4B8A
:1026A8001B6803F57A730122C4F8F830964B3A7127
:1026B800FA7000221A701EE0D8F80030DA0615D435
:1026C8002B785B0712D58F4B1B6818010ED5FB784A
:1026D80063B18E4B1A68D4F8F8309A4209D90EF0D3
:1026E80073F930B9884BF870187002E0864B0022F5
:1026F8001A7000233B712B78590735D5D8F800306C
:10270800DA0631D5824B1B78DB062DD4BB7893B122
:1027180096F8E031BAF1000F15D17BB17B4B1A68FE
:10272800D4F8FC309B1A002B08DA0EF031FB794BF9
:1027380083F800A118E0BAF1000F0DD110200CF0B9
:10274800F5F801230EE03BB1704A12684FF47A7134
:1027580001FB0323C4F8FC3094F8003123B10CF0DA
:10276800CDF8002384F80031002296F8DEB196F8FF
:10277800DF11B6F896E1B6F898C11346DFF8A491D0
:10278800CDF8009039F912009B087045C4BF63F07A
:102798007F03DBB201326045B8BF43F04003042A2F
:1027A800ECD194F801215B489A4205D190F80221B6
:1027B800F92A04D8013200E0002280F8022184F8C6
:1027C8000131BB78534ADFF83C9133BBD9F800009C
:1027D800C0070AD582F80331BAF1000F1DD12B7852
:1027E800DA071AD50EF02EF917E02B785B0714D507
:1027F800494B1B788BB1494BDB7873B992F803319D
:102808000133DBB2032B82F8033106D911B10EF084
:10281800BFFA02E0BAF1000FF9D094F802313D4A4C
:10282800DFF804A1142B40F09B80BB781BF1000B50
:1028380018BF4FF0010B6BB392F801315F2B11D128
:102848002B7803F0040303F0FF0113B10EF0A0FA94
:1028580008E00B20029101920CF068F8019A0299A5
:1028680082F80211BBF1000F14D094F801317D2BCE
:1028780010D12B7803F0040303F0FF0213B10EF01C
:1028880087FA07E00B2001920CF050F8214B019ACF
:1028980083F802212B7803F0040303F0FF01002BD7
:1028A8005ED194F801311B4A572B0AD11C4B4FF4C7
:1028B8007A721A80D8F800301F0651D504F0DAF879
:1028C8004EE0D8F80000400730D55A2B2ED192F8A8
:1028D80004312BB1012382F8041182F805313FE05D
:1028E80092F8063183F0010382F806310BB10C200F
:1028F80000E00D200CF01AF832E000BFCC260020D2
:102908000000002090120020E33200204032002016
:1029180004130020D40F0020B018002044320020F7
:10292800D8320020102F0020D01200205D2B00F09C
:10293800B5845B2B00F0B4845E2B02D1032000F039
:10294800B0BC562B01D105F067F8BB78002B00F01E
:10295800BB8494F801316F2B40F0B0840EF072F80C
:10296800D8F800305B0738D594F80631B94A9BB1DE
:102978002B785F0710D5009BB3F90610B6F896318F
:10298800994209DDD9F8003013F0010302BF322162
:10299800A2F80A1182F80631D9F80030D8030DD50B
:1029A80094F80C21AB4B2AB993F8042112B93222BE
:1029B800A3F80A21012384F80C310EE094F80431BD
:1029C800A44A53B12B7803F0040303F0FF0123B9A1
:1029D800012382F8041182F80531DAF800A00023F7
:1029E800C9F800300AF187070AF1D70B3A787B78E3
:1029F80017F8010C9A420DD239460BF0A9FD48B1DF
:102A080017F8022C012303FA02F2D9F80030134315
:102A1800C9F8003004375F45E8D18F4B1B785BB1AC
:102A28008E4BDFF854B21A68DFF850A212F0020F8A
:102A3800994640F03B8332E30AF1D6070AF58F79CD
:102A48003A787B7817F8010C9A4225D239460BF070
:102A58007FFD08B3BB7897F804C0814A97F803A0B4
:102A68007C480C21013B01FB0C4103EB430313445D
:102A7800D1F814219A420FD0C1F81431002390F8EC
:102A88004021C1F81831012303FA0CF322EA0303A9
:102A980081F810A180F8403106374F45D0D1714BED
:102AA8001F68714B1B680293704B1B780393704B24
:102AB800019300230093019B1A68002A00F0E48226
:102AC80092F800A0BAF1000F00F0DE825B6802996C
:102AD800CB1A002B0CDB01F5FA7301994B600099B6
:102AE80001238B4094F8401121EA030384F8403114
:102AF800039B002B00F0C882019B517813F8043C1B
:102B08000433DBB2002940F07E825A4931F91310B0
:102B1800B6F8943103F1C800814202DD92F802B0A0
:102B280015E0C83B994203DA9178C1F1000B0EE039
:102B3800009A0123934094F8402122EA030384F881
:102B48004031029B019A03F5FA7353609CE294F8B2
:102B58004031009A1341D90700F19682BBF1000F6A
:102B6800CCBF022001200BF01BFF0AF1FF33DFF876
:102B7800E490132B00F28082DFE813F014002500A4
:102B880037004B0064008800EB004E01B501E301FB
:102B980013027E024B005A008800EB004E01BD0074
:102BA8002001850197F80090D944B9F1FA0FA8BF20
:102BB8004FF0FA0929EAE979384687F800900BF0CE
:102BC800ADFC01200FE097F80190D944B9F1640FEA
:102BD800A8BF4FF0640929EAE979384687F80190D7
:102BE8000BF09CFC02204946D8E197F803A0DA4490
:102BF800BAF1640FA8BF4FF0640A2AEAEA7A87F8A4
:102C080003A03846D9F844110BF03EFC0320514686
:102C1800C4E1797959446429A8BF642121EAE171A2
:102C280079710D200BF010FDBAF10D0F00F0248220
:102C3800397959446429A8BF642121EAE1713971BD
:102C48000E20ABE1B979594481F30801B971052027
:102C5800A4E100BFD40F0020E13200209012002030
:102C6800E07A01080013002040320020B01800204C
:102C7800E8100020102F0020881200208C1200205D
:102C880000007A440000C84200000000D9F848312A
:102C98001A78022A20D107EE90BAB8EEE70A5FED5B
:102CA800077A93ED097A80EE270A30EE070AB5EE27
:102CB800C00AF1EE10FA07D4B4EE670AF1EE10FA82
:102CC800C8BFB0EE670A01E01FED110A83ED090ADB
:102CD8000F200BF0A3FC0AE099785944C829A8BF33
:102CE800C82121EAE17199700F200BF0ADFCBAF10F
:102CF8000F0F00F0C181D9F848311A78022A1ED185
:102D080007EE90BAB8EEE78A5FED227A93ED080AEB
:102D180088EE278A38EE000AB5EEC00AF1EE10FAFE
:102D280007D4B4EE670AF1EE10FAC8BFB0EE670A2E
:102D380001E01FED2B0A83ED080A122056E15978AD
:102D48005944C829A8BFC82121EAE1715970122045
:102D580024E1D9F848311A78022A20D107EE90BA2E
:102D6800B8EEE70A5FED397A93ED0C7A80EE270A20
:102D780030EE070AB5EEC00AF1EE10FA07D4B4EE49
:102D8800670AF1EE10FAC8BFB0EE670A01E01FED5E
:102D9800420A83ED0C0A10200BF040FC0AE0197B74
:102DA8005944C829A8BFC82121EAE1711973102024
:102DB8000BF04AFCBAF1100F00F05E81D9F84831E7
:102DC8001A78022A1ED107EE90BAB8EEE78A5FEDAC
:102DD800537A93ED0B0A88EE278A38EE000AB5EE8F
:102DE800C00AF1EE10FA07D4B4EE670AF1EE10FA51
:102DF800C8BFB0EE670A01E01FED5D0A83ED0B0A5C
:102E08001320F3E0D97A5944C829A8BFC82121EA78
:102E1800E171D9721320C1E0D9F848311A78022A31
:102E280022D107EE90BA1FED6A0AF8EEE77A87EE2C
:102E3800800AD3ED0F7A30EE270AB5EEC00AF1EE1C
:102E480010FA09D45FED717AB4EE670AF1EE10FA60
:102E5800C8BFB0EE670A01E01FED750A83ED0F0ADF
:102E680011200BF0DBFB0AE0997D5944C829A8BF63
:102E7800C82121EAE171997511200BF0E5FBBAF13F
:102E8800110F00F0F980D9F848311A78022A20D1B8
:102E980007EE90BA1FED860AB8EEE78A88EE008A38
:102EA80093ED0E0A38EE000AB5EEC00AF1EE10FAFC
:102EB80009D45FED8C7AB4EE670AF1EE10FAC8BF58
:102EC800B0EE670A01E01FED900A83ED0E0A1420A8
:102ED8008CE0597D5944C829A8BFC82121EAE1716D
:102EE800597514205AE0D9F848311A78022A1ED1A7
:102EF80007EE90BAB8EEE78A5FED9E7A93ED0A0A7C
:102F080088EE278A38EE000AB5EEC00AF1EE10FA0C
:102F180007D4B4EE670AF1EE10FAC8BFB0EE670A3C
:102F280001E01FEDA70A83ED0A0A09205EE0D978BF
:102F38005944C829A8BFC82121EAE171D9700920DC
:102F48002CE0D9F848311A78022A1ED107EE90BA37
:102F5800B8EEE78A5FEDB57A93ED0D0A88EE278A19
:102F680038EE000AB5EEC00AF1EE10FA07D4B4EE56
:102F7800670AF1EE10FAC8BFB0EE670A01E01FED6C
:102F8800BE0A83ED0D0A0A2030E0597B5944C8294E
:102F9800A8BFC82121EAE17159730A200BF054FB3C
:102FA8006AE0D9F848311A78022A22D107EE90BA95
:102FB8001FEDCD0AB8EEE78A88EE008A93ED100A75
:102FC80038EE000AB5EEC00AF1EE10FA09D45FED4A
:102FD800D37AB4EE670AF1EE10FAC8BFB0EE670A0A
:102FE80001E01FEDD70A83ED100A0B200BF016FB4A
:102FF80042E0D97D5944C829A8BFC82121EAE17116
:10300800D9750B20CAE7012936D19078BB4A32F925
:103018001390B9F5617F05DB40F633039945A8BFE6
:10302800994601E04FF46179BAF10C0F24D1B44A02
:103038004FF4966393FBF0F01378A9F5617999FB47
:10304800F0F95FFA89F94B4516D0B9F1040F34BF8E
:103058004B4602231370AB4A0AFB036303F2D27395
:10306800136004F0FBFA504649460BF0EDFA09F1FB
:103078000100C0B20BF094FC009A0123934094F82D
:103088004021134384F84031009B01330093019B96
:103098000C330193009B042B7FF40DADC0E4D8F8EA
:1030A8000030DA050FD5984BDB7863B1DBF80030D8
:1030B8009B0708D5BAF8003013F0010708D10120A2
:1030C80004F0E8F904E0012004F0D4F9012300E059
:1030D8000023D9F8002057070BD553B1012004F07D
:1030E800C9F9BAF80030980706D4022004F0D2F9DA
:1030F80002E0022004F0BEF9844BBAF800709A6826
:103108009B8917F0030F14BF13859361DBF8003018
:10311800990609D4D9F800301A0540F18D804FF48A
:10312800807004F0B7F98BE0794B1B789B074ED57C
:10313800784B1B78042B4AD9D9F8003013F4007B5C
:1031480007F010070CD0B7BB102004F0A3F920201B
:1031580004F090F97048011D03F0E0FB022326E01B
:10316800BFB22FB1102004F085F9012784F84CB1C3
:10317800D9F80030580512D5D4F8503167495A8922
:10318800B1F90030002BB8BF5B42934207DAB1F9BE
:103198000230002BB8BF5B429342C0F2F480BAF809
:1031A8000030990608D5202004F064F9002384F83B
:1031B8004C31012700E0002794F85431A3B90E20C0
:1031C8000BF0B4FB564B012283F854210CE017F0A6
:1031D800300F9FD0102004F04DF9202004F04AF958
:1031E800002384F84C3101E0002F93D04D4B002090
:1031F80003F1280E03F150074B4A002122F8101062
:103208004A4A596022F810100432CEF8041022F805
:10321800101000221A609A60CEF80020CEF808201C
:103228003A607960BA6014330EF1140E143700282E
:103238007FF470AF0120DFE74FF4807004F01AF9D3
:103248007379082B01D00E2B02D1402004F012F91B
:10325800D8F800305A0519D596F814321BB92B78CE
:1032680013F0040F03E0D9F8003013F4002F09D04D
:103278002F4B00221A703C200DF072FB30B10CF07D
:103288001BF9F8E706F03CFB0DF079FA012384F806
:10329800D83107B0BDEC028BBDE8F08F012000E00B
:1032A8000220C7B27B1E86F8D03704F03DF904F03F
:1032B800F9F938460BF074FBFFF752BBBBF1000F6E
:1032C80002D07E2B3FF44AAB94F80131972B06D1FC
:1032D800134B4FF4C872A3F80821FFF741BBA72B83
:1032E80006D10B4A137843F004031370FFF738BB79
:1032F8000022BB2B05921DD102231FE0102F0020B6
:10330800CC25002000130020443200206C3200201D
:1033180004130020051300201C130020A022002005
:10332800D40F00202C110020DA320020A411002034
:10333800D92E0020B72B04D14FF6FE73ADF8163006
:103348000AE0BE2B01D1022304E0BD2B7FF408ABB9
:103358004FF6FE73ADF81430DAF80030BDF81410EB
:10336800B3F864200A44A3F86420BDF81610B3F833
:1033780066200A44A3F8662004F04EFB002384F874
:103388000231FFF7EDBABAF800309B063FF514AFEB
:10339800202004F07FF80748074B011D1A685B6876
:1033A8004360026003F0BAFA044B012783F84C71BA
:1033B80002E700BF2413002008130020D40F0020C8
:1033C8002DE9F04F2DED028BB24E8DB0347800967A
:1033D800002C00F0B180B04B1A689846002A01F022
:1033E800A680D8F800000BF053FB002801F09F805E
:1033F800A94BAA4C18680BF048FB092801D03F28B4
:1034080050D14FF000092768A54D4E462FB1A54869
:1034180029683A4611F090FB10B9A94606B92E461C
:10342800A14B10359D42F1D33546EEB1D6F800C018
:10343800D9F800B023681CF803E01BF803007045B6
:1034480012D15A1C974958B92D2B09D8DFF84CE2EC
:10345800CEF800204FF0200E01F803E0885403E076
:1034680001F803E02260E5E723680BB14E4510D070
:103478008E480CF02BF94D4507D855F8100B0CF079
:1034880025F909200CF01AF9F5E789480CF01EF91E
:10349800002723689F42A4D2824BD85D0CF00EF916
:1034A8000137F6E72368002B40F0AC87042841F089
:1034B80008807C4808F05AFB01F039B8DBF80000B6
:1034C800DFF81C920BF0E4FA28B3D9F800000BF0EF
:1034D800DCFADAF8003093F84810064600293BD1A8
:1034E800242873D1012283F84820DAF80030DFF865
:1034F800D49193F84820062AE0D193F8490001F0C6
:103508001DF88246002800F089800CF021F82B680D
:10351800002283F84820674B9B794BB1385909F052
:10352800E3FC0AF07FFA03F0D5FF634B634ADA60E5
:103538004C34982C00F0FB87614FE31993F84A202C
:10354800012AF5D15F4DDFF898812B60E359C8F85F
:103558000030AA46C346B1E7012904D14D2814BF5B
:1035680000220222BFE7022904D13C2814BF00220E
:103578000322B8E703290CD140284FF0000102D9F3
:1035880083F84810B1E758711971D97198710422FC
:10359800A9E7042907D1997983F8490080EA01024B
:1035A8009A7105229FE705299FD158791979884290
:1035B800987906D970409871481C18710B441E728E
:1035C80093E7B0420CBF062200228CE73E4B1978E5
:1035D80049078AD42328D9F8001012D10193009BF7
:1035E800012018702C4801603248016037480CF0FF
:1035F8006DF82F480CF06AF8019B197841F0020128
:103608001970334B1B681B78B34201BF314B324AE8
:103618001A60294B04BF294ADA6066E7D9F8002006
:1036280092F849304C2B00F0C48476D8332B00F044
:10363800FA8422D8292B00F0868409D8252B00F09B
:103648005B84272B00F05F84232B40F0D78647E26A
:103658002D2B00F08A8408D82B2B40F0CF860BF056
:103668004BFF1E4B587100F0C4BE2F2B00F0448551
:10367800312B00F0548500F0C1BE3E2B00F0E980EC
:1036880038D8372B00F004852CD8352B00F064820D
:1036980000F0B4BEE1320020F0250020CC2100204B
:1036A800347D01089C210020F47E01087F9D0108DB
:1036B800849D0108B011002000ED00E00400FA0527
:1036C80034260020E8250020DF320020B49D0108C0
:1036D800DC2E0020FC9F0020EFBEADDECC260020B3
:1036E800EC250020392B00F01C843C2B00F0BC801A
:1036F80000F084BE432B00F0A88406D8412B40F08C
:103708007D864FF0000800F094BC442B00F03C8507
:103718004A2B00F06E8600F071BED12B00F0B0830A
:1037280020D8CC2B00F040820FD8C82B61D004D809
:103738004E2B00F04C8400F061BEC92B00F0598379
:10374800CA2B00F0A88000F059BECE2B00F04283AF
:10375800C0F03683CF2B00F07182D02B00F0248389
:1037680000F04CBED82B00F031810BD8D32B3AD0C7
:1037780025D3D42B00F0A982D62B40F03F864FF0FA
:10378800000897E2F22B00F0E68210D8EF2B40F009
:103798003586C84ED6F800900BF0B8FEA9F866003A
:1037A80036680BF0B3FEA6F8640000F022BEF32BD7
:1037B80000F0FC84FA2B00F0178300F01FBEBE4B0C
:1037C8001B7803F0040303F0FF08002B40F0118678
:1037D8000BF092FEB94B022883F8D00740F2EB8237
:1037E80083F8D087E7E20BF091FEB54B988000F0A4
:1037F80000BE92F805804FEA5808B8F1120F03D9B5
:103808000DF0FEF800F0F5BD4FF00009C14507D2F4
:103818000BF07CFE03AB23F8190009F10109F5E769
:1038280042460023434507DA03A931F81300A549A6
:1038380021F813000133F5E7122A05D0A14B002126
:1038480023F812100132F7E79F4B01221A7000F09B
:10385800D0BD0BF051FE994E86F8E0010BF04CFEFE
:1038680086F8DF0100F0C5BD924ED6F800900BF047
:1038780043FE18B10228A8BF022000E0012089F801
:10388800000033681B78022B904B14BF904A914A72
:103898001A6000F0AEBD874B1A681278022A4FF002
:1038A8000009984673D1D8F800600BF025FE07EEA2
:1038B800900AF8EE677AB2EE048AC7EE887A06EBC9
:1038C800890AD8F80060CAED087A0BF015FE07EEF1
:1038D800900A9FED817AF8EE677A06EB890AC7EEBF
:1038E800877AD8F80060CAED0B7A0BF005FE07EE70
:1038F800900A9FED7A7AF8EE677A06EB890AC7EEA6
:10390800877A09F10109B9F1030FCAED0E7ACAD114
:10391800B9F1070FD8F800601CD10BF0EDFD07EEE8
:10392800900AF8EE677AC7EE887AC6ED117AD8F869
:1039380000600BF0E1FD07EE900AF8EE677AC7EE3B
:10394800887AC6ED127AD8F800600BF0D5FD86F8B3
:103958004C0015E00BF0D0FD06EB090A8AF80100CF
:10396800D8F800600BF0C8FD06EB090AD8F800602B
:103978008AF80B000BF0C0FD06EB090A8AF815005F
:1039880009F10109B9F10A0FC2D100F032BDD8F826
:1039980000600BF0B1FD06EB090A8AF80100D8F8BF
:1039A80000600BF0A9FD06EB090AD8F800608AF858
:1039B8000B000BF0A1FD06EB090A09F10109B9F1A9
:1039C8000A0F8AF81500E2D100F013BD8046394E7F
:1039D8009FED428AD6F800A00BF098FD07EE900AFA
:1039E800F8EE677A0AEB880AC7EE887AB146CAED1C
:1039F800087AD6F800A00BF089FD07EE900AF8EED9
:103A0800677A0AEB880AC7EE887ACAED0B7AD6F885
:103A180000A00BF07BFD07EE900AF8EE677A0AEB40
:103A2800880AC7EE887A08F10108B8F1030FCAEDD1
:103A38000E7ACCD1B8F1070FD9F800601CD10BF081
:103A480065FD07EE900AF8EE677AC7EE887AC6ED4C
:103A5800117AD9F800600BF059FD07EE900AF8EEDC
:103A6800677AC7EE887AC6ED127AD9F800600BF04B
:103A78004DFD86F84C0015E00BF048FD06EB080AF2
:103A88008AF80100D9F800600BF040FD06EB080A3F
:103A9800D9F800608AF80B000BF038FD06EB080A2D
:103AA8008AF8150008F10108B8F10A0FC2D100F030
:103AB800A0BC00BFD0120020DF320020CC2600209E
:103AC800B0110020A0310020A5250020040300200B
:103AD8002DCF0008A1D200080000C84200007A4497
:103AE8000BF00AFD132881463FF68AAEDFF860A383
:103AF800DAF800600BF000FD0023D0490C2202FB2D
:103B08000312117A814223D10FFA89F906EB890849
:103B1800137888F885300BF0EFFC88F886000BF0F6
:103B2800EBFC88F887000BF0E7FCC54BC54A1A6028
:103B380088F88800C44BDAF8000018600021853046
:103B48000AF040FDC14B80F00100187000F051BC34
:103B580001331D2BD1D153E60BF0CEFC0B28814647
:103B68003FF64EAEBA4B1E680BF0C6FC03283FF674
:103B780047AE062303FB096888F8DA000BF0BCFCA3
:103B880088F8D5000BF0B8FC88F8D6000BF0B4FC28
:103B980088F8D7000BF0B0FC88F8D8000BF0ACFC24
:103BA80088F8D90000F025BC5379092B7FF628AE98
:103BB800A84ED6F800A00BF09FFC8AF80000D6F8B3
:103BC80000A00BF099FC8AF801000BF095FC336813
:103BD8006428A8BF642018710BF08EFC3368642831
:103BE800A8BF642058710BF087FC3368FF28A8BF72
:103BF800FF2098710BF080FCD6F800A0642828BF3D
:103C080064208AF807000BF077FC8AF80200D6F8DF
:103C180000A00BF071FC8AF80300D6F800A00BF0A6
:103C280075FCD9F80030AAF80A005B790A2B40F233
:103C3800E08336680BF060FC3072DAE30BF066FC68
:103C48006FF4AF6283189BB2834EC62B98BFA6F859
:103C580094010BF05BFCA6F840010BF057FCA6F8AA
:103C680042010BF053FCA6F844010BF04FFCA6F8F8
:103C7800D8010BF041FC86F8ED010BF03DFC0BF090
:103C88003BFC86F8EE010BF037FC86F883010BF05D
:103C980033FC86F890010BF02FFC6D4BD3F80090A5
:103CA8000BF034FC00EB80004000A9F862000BF038
:103CB80023FC39E10BF02AFC684B23F8180008F1C3
:103CC8000108B8F1080FF5D193E353790F2B7FF46E
:103CD80097AD0BF011FC072880463FF691AD5C4E7E
:103CE800D6F800A00BF012FC0E2303FB08F8C24420
:103CF800AAF82501D6F800A00BF008FCC244AAF8DF
:103D08002701D6F800A00BF001FCC244AAF829014B
:103D1800D6F800A00BF0F0FBC2448AF82B01D6F8C5
:103D280000A00BF0E9FBC2448AF82C01D6F800A0E9
:103D38000BF0E2FBC2448AF82D01D6F800A00BF084
:103D4800DBFBC24436688AF82E010BF0E9FBB0446D
:103D5800C8F82F014DE30BF0CFFB0F2880463FF644
:103D68004FAD0BF0C9FB3C4BC8EBC808984488F82A
:103D7800D0000BF0C1FB88F8D1000BF0BDFB88F830
:103D8800D2000BF0B9FB88F8D3000BF0B5FB88F82C
:103D9800D4000BF0B1FB88F8D5000BF0ADFB88F828
:103DA800D60009F07FFE24E32D4B1B785B0700F15A
:103DB80020830BF0B9FE03F0B7FB03F073FC18E3A4
:103DC800274B1B785E0700F11483264B4FF4C8720B
:103DD8001A800EE3224B1B78580700F10A83224A07
:103DE800137843F0040326E01D4B1B785907E2D5EE
:103DF80004E30BF081FB1C4B1A7810B142F002026D
:103E080001E022F002021A700BF076FB174B184EF5
:103E180018700BF085FB30600BF082FB70600BF0C4
:103E280075FB144B18800BF071FB134B134A188069
:103E3800137843F002031370DBE200BF4C7B0108E8
:103E4800181100200C2800201C110020020000205E
:103E5800D012002000130020CC260020CE25002000
:103E6800DF320020DC10002004130020051300209E
:103E78000813002010130020121300201A1300202A
:103E88000BF03AFB83460BF04BFB82460BF048FBEA
:103E980081460BF045FB06460BF038FB0BF036FB72
:103EA8000BF02AFBBBF1000F12D1B94B1020C3F85D
:103EB80000A0C3F8049003F0DDFAB64A137843F083
:103EC80001031370002E00F09482B34B1E6090E241
:103ED800BBF1100F40F08D82B04BC3F800A0C3F8BF
:103EE80004900EB1AC4B1E60AC48AD4B0222011DD4
:103EF8001A7002F013FD7CE2AA4B98600BF010FBDD
:103F080003F0E0FA75E20BF001FBA64EA6F85801A3
:103F18000BF0FCFAA6F85A010BF0F8FAA6F85C01C7
:103F280067E20BF0E9FA9F4E86F878010BF0E4FAA5
:103F380086F87C010BF0E0FA86F87B010BF0DCFADE
:103F480086F87D0155E20BF0E1FA964EA6F87E015F
:103F58000BF0DCFAA6F880010BF0CEFA86F88201A5
:103F68000BF0D4FAA6F8840143E20BF0C5FA8D4EA3
:103F780086F88E010BF0CAFAA6F898010BF0C6FA7B
:103F8800A6F894010BF0C2FAA6F896010BF0B4FA61
:103F9800D9F8003086F88F015B79082B40F2298226
:103FA8000BF0B4FAA6F89C010BF0B0FAA6F89E0143
:103FB8001FE20BF0A1FA7B4E86F8D6010BF09CFAB3
:103FC80086F8D7010BF0A2FAA6F8D80111E292F808
:103FD80005800323B8FBF3F8B8F1120F3FF610ACD5
:103FE800704E4FF0000AC24580F003820BF084FA4D
:103FF80086F8A0010BF08AFA40F2ED23984205DD1D
:1040080040F6CA039842A8BF184601E040F2EE20E5
:10401800A0F2EE2019230AF1010A90FBF3F0023610
:1040280086F89F01DFE70BF067FA5E4B83F8900193
:10403800DFE10BF061FA5B4B434408F10108B8F18A
:10404800080F83F88601F4D1D3E10BF055FA554EE9
:104058007071C6F808A00BF063FA03F033FA0BF09E
:104068004BFA86F88E010BF051FAA6F858010BF0BE
:104078004DFAA6F85A010BF049FAA6F85C010BF0C4
:1040880045FAA6F87E010BF041FAA6F88001B0E1E6
:1040980053794FF00708B3FBF8F2C2EBC2029A1A41
:1040A80012F0FF0F7FF4ACABB3FBF8F808F1FF3860
:1040B8005FFA88F8B8F1FF0F00F09B810BF01CFA4B
:1040C8005FFA80FA4FFA8AF00AF0A0F9064600284B
:1040D8003FF496AB80F800A00BF018FA70800BF054
:1040E8000BFA30710BF008FA70710BF005FAF071E9
:1040F8000BF002FAB071D9E72A4E06F140090BF02D
:1041080005FAA6F8A4020BF0F7F986F8A6020BF058
:10411800F3F9043686F8A3024E45F0D169E10BF0B5
:10412800EBF91F2880463FF66BAB2B685B79082BB1
:104138007FF466AB0BF0EAF91A4B08F1880803EB39
:10414800880800F03F00A8F806000BF0DFF9B8F87F
:104158000630800100F4FE501843A8F806000BF062
:10416800CBF9000188F804000BF0C6F998F8043080
:1041780000F00F00184388F804000BF0BDF988F828
:10418800050005F02DFD34E1074B01229A7130E15D
:104198001C130020041300202C13002024130020DB
:1041A80020110020CC260020B01100200BF0A4F92B
:1041B800FF288246DFF8189366D14FF0000809F10E
:1041C80008004146602289F8078010F068FC8DF8E5
:1041D8000B809DF80B3099F86A20BD4E9A424BD956
:1041E8009DF80B3006EBC30393F86D30DA073CD526
:1041F8009DF80B3006EBC30393F86C20B54B33F9ED
:104208001230002B31DD9DF80B3096F8078006EB55
:10421800C3034FEAC80E1B6F58689DF80B3006EBB6
:10422800C30A06EB0E01DAF8703088601A89CA8171
:1042380092B2002101238B40134003D10131102990
:10424800F8D100E00B4609EB0E0108F101088B815B
:1042580004238DF80E3003A90123ADF80C208DF846
:104268000F3006F0CFFE89F807809DF80B30013338
:10427800DBB28DF80B30ACE701200BF08DF9F0794B
:104288000BF057F9FFF741B999F807309842BFF496
:10429800B7AA00200BF080F90BF05AF92B681868C0
:1042A80008F022FED8F800000BF006F90AF026FB09
:1042B80072B6DFF824824FF400634FF48066A8F8E2
:1042C80028304FF0010BA8F828604046ADF80C30B4
:1042D80003A904238DF80E308DF80FB04FEACA0AEF
:1042E80006F090FE404603A9ADF80C608DF80EB0BC
:1042F8008DF80FB006F086FE09EB0A008168838905
:104308000A6803FA0BF30BFA03F313430B60C38930
:104318008B614046C8F81860038A1B05FCD409EB7A
:104328000A0301229868B3F80CE00168DFF8AC8151
:104338004FEA4E0E02FA0EF20A4302609A68D989D1
:10434800654B11854FF480621A85D8F80030B8F8AB
:1043580004209A61D8F80830B8F80C201A8540F67D
:10436800055B5D4A138A1E0505D4BBF1000FF8D022
:104378000BF1FF3BF5E704238161ADF80C108DF8D4
:104388000E3003A9012301928DF80F3006F03AFE92
:10439800D8F80830B8F80C0098615049B8F80430DB
:1043A800019ABBF1000F15D008684B490A8A12051B
:1043B800B5D509EB0A0EDEF80820BEF80EE0128A21
:1043C8001EEA020F4FF4806215BF8A610A85836175
:1043D8000385EAE74FF4806090610A68936162B6EA
:1043E8000A200AF06CF90CF0CAF92B68F32283F85A
:1043F800492000200BF0D0F8FFF787B80CF000FB3D
:10440800FFF783B80C2803D135480BF05FF94AE071
:104418000A2801D00D2848D1324D33480BF056F9FF
:104428002846232110F071FB08B1401B2060236847
:104438007BB35A1EA95C202901D11346F8E7294A03
:1044480023600021D154294B294DD3F800A0D5F879
:1044580000B0244E584610F066FB07463A463046F0
:10446800594610F069FB234A20B9F35D53445B7841
:10447800580703D010359542E9D306E0954204D297
:10448800781CEB683044984702E01B480BF01EF993
:104498000023144823600021302210F000FB009B09
:1044A8001B78002B43D0154807E07F282AD1013B11
:1044B8000C4A134823600021D1540BF007F9FEF78A
:1044C80090BF0C28A0D07F281FD1FEF78ABF00BF5D
:1044D800B0110020D4120020000400486C320020E3
:1044E800899D01089C210020ACA901081003002027
:1044F800347D0108F47E0108949D0108849D01081B
:10450800B09D01082F2B3EF66CAFA0F12002D2B26D
:104518005E2A3EF666AF13B920283EF462AF5A1CF5
:104528002260054AD0540BF0C9F8FEF75ABF0DB007
:10453800BDEC028BBDE8F08F9C2100202DE9F84FDF
:104548004D282DED028B044600F05C8600F2B98000
:10455800302800F0C08651D8222800F0978423D84C
:10456800032800F0038214D8012800F0F381022800
:1045780040F0F58604200BF00FF842200AF0D9FF2E
:1045880054200AF0D6FF46200AF0D3FF4C2000F052
:104598005FBE042800F0F581052840F0E0861A2067
:1045A8000AF0FAFF0024FCE1282800F0EA8515D873
:1045B800242800F0D185262840F0D186DD4C06203D
:1045C8000AF0EAFFB4F858010AF0E9FFB4F85A0112
:1045D8000AF0E5FFB4F85C0100F04BBE2C2800F0AF
:1045E800E3852E2800F061862A2840F0B88601204D
:1045F8000AF0D2FFCF4B587900F02ABE3D2800F0D0
:10460800F5821ED8362800F037860BD8322800F0FD
:104618001986342840F0A38648200AF0BDFF0025FB
:1046280000F056BC3A2800F0B8823B2800F02784F6
:10463800382840F0948604200AF0AEFFBD4C00F004
:1046480091BD452800F0788627D8402800F00386D9
:10465800422840F08486B74C10200AF09DFF60790C
:104668000AF067FFA0680AF0A3FF94F88E010AF029
:1046780060FFB4F858010AF092FFB4F85A010AF042
:104688008EFFB4F85C010AF08AFFB4F87E010AF0E4
:1046980086FFB4F8800100F0ECBD492800F0B18233
:1046A8004B2800F0A085462840F059860D200AF0D6
:1046B80073FF00200AF03DFF00200AF079FF00F0A8
:1046C80046BE702800F0F08200F2E680692800F00B
:1046D8003F8200F2B880662800F0A08100F2A8802E
:1046E800642800F07781652840F03986924C0B20C9
:1046F8000AF052FF20880AF052FF62688F4B9A42F4
:104708000CBF2089608980B20AF049FFE368C3F3CF
:10471800C000C3F38002800040EA4200C3F34002B5
:104728001043C3F3401240EAC20003F010031843D9
:104738000AF035FF218A6369247E01F0080203F438
:10474800475A4AEA020A03F480424AEA020A03F490
:1047580000424AEA020A03F480324AEA020A03F4EF
:1047680000324AEA020A03F480224AEA020A03F4FF
:1047780000224AEA020A03F480124AEA020A704A4C
:1047880003F0007B12784AEA0B0A03F0006311F089
:10479800010FC2F380024AEA030314BF4FF0020973
:1047A8004FF00009134311F0020F14BF4FF0040833
:1047B8004FF0000843EA090911F0040F14BF4FF045
:1047C800100C4FF0000C49EA080811F0400F14BF14
:1047D8004FF0200E4FF0000E48EA0C0C11F0100FAD
:1047E80014BF4FF4007700274CEA0E0E11F0200F8B
:1047F80014BF4FF4806600264EEA070711F4807F45
:1048080014BF4FF4006500253E4311F4007F14BF28
:104818004FF400100020354311F4806F40EA050082
:1048280014BF4FF080610021014300200346E1E0FE
:10483800672800F01481682840F0918510200AF05C
:10484800ABFE00247BE16C2800F0958117D86A281C
:1048580000F002846B2840F08285374C05200AF06E
:104868009BFEB4F89A000AF09AFEB4F89C000AF08D
:1048780096FE94F89E0000F0010000F0E9BC6E2856
:1048880000F08F8100F2C38106200AF085FE002027
:104898000AF08EFE00F05EBC782800F0ED8018D893
:1048A800742800F036830AD8722800F0958373289C
:1048B80040F0558508200AF06FFE0124C5E37628EC
:1048C80000F0EB8300F25E832F200AF065FE1D4C9A
:1048D800CDE2A42800F00B8414D87B2800F06D8268
:1048E800A02840F03C850C200AF056FE164B1868AC
:1048F8000AF05EFE154B18680AF05AFE144B186849
:1049080000F029BDF12800F0F380FE2800F016849D
:10491800F02840F02485084C04200AF03DFE636D21
:10492800B3F866000AF03BFE636DB3F8640000F06C
:10493800A0BC00BFCC2600207C1200200054004000
:10494800DF3200201B7B0108ACF7FF1FB0F7FF1F09
:10495800B4F7FF1F03200AF01FFE00200AF0E9FD4C
:1049680020460AF0E6FD0D2000F072BC0AF014FEA5
:1049780002200AF0DEFD20460AF0DBFD042000F0EC
:1049880067BC06200AF008FE4C200AF0D2FD55202C
:104998000AF0CFFD58200AF0CCFD00200AF0C9FD2E
:1049A800D8E3B44B185D01340AF0C3FD0B2CF8D1E1
:1049B8000024B14B185D01340AF0BBFD082CF8D176
:1049C8000024AE4B185D01340AF0B3FD072CF8D172
:1049D80000F0C3BC07200AF0DFFDE7200AF0A9FDBC
:1049E800A74B58790AF0A5FD00200AF0A2FD042083
:1049F80000F0B1BCA3420AD2A24A9D5C012202FA8D
:104A080005F50D421CBF9A4010430133F2E70AF046
:104A1800CFFD9B4B93F8D00700F01ABC12200AF088
:104A2800BBFD994B1B88B3F5806F8CBF0826012608
:104A38000025964C04F1360333F9150090FBF6F087
:104A4800013580B20AF0ABFD032DF2D1A08F0AF038
:104A5800A6FDE08F0AF0A3FDB4F8400072E3102031
:104A68000AF09AFD00248A4B185D01340AF061FDB2
:104A7800102CF8D100F071BC70200AF08DFD0026D2
:104A8800824D0E246B6D744323440136B3F825011F
:104A98000AF085FD6B6D2344B3F827010AF07FFD0A
:104AA8006B6D2344B3F829010AF079FD6B6D23443B
:104AB80093F82B010AF03DFD6B6D234493F82C010C
:104AC8000AF037FD6B6D234493F82D010AF031FD90
:104AD8006B6D234493F82E010AF02BFD6B6D1C447B
:104AE800D4F82F010AF064FD082EC9D100F035BCB6
:104AF8007020634C0AF050FD04F1700594F8D00062
:104B08000AF017FD94F8D1000AF013FD94F8D200CA
:104B18000AF00FFD94F8D3000AF00BFD94F8D400C6
:104B28000AF007FD94F8D5000AF003FD073494F85D
:104B3800CF000AF0FEFCAC42E0D100F00EBC554BB1
:104B4800185D01340AF0F5FC102CF8D100F005BC12
:104B5800514D2878400000F0FE000AF01DFD0024A9
:104B68002B789C4280F0F9834C4B33F814000AF000
:104B780016FD0134F4E7454C06200AF00DFDB4F8A3
:104B880070000AF00CFDB4F872000AF008FDB4F9E0
:104B980074300A2093FBF0F026E004200AF0FCFCB5
:104BA800D8E307200AF0F8FC3D4B384C1888FF285A
:104BB800A8BFFF20C0B20AF0BCFCA06F80F31000B1
:104BC80080B20AF0ECFCB4F87C000AF0E8FC2C4B4C
:104BD800D4F8800093F8833123B10A23584380F333
:104BE800100001E000F30F0080B242E3244C0220E1
:104BF8000AF0D2FC94F8E0010AF09BFC94F8DF017B
:104C080026E302200AF0C8FC264B188831E31F4C23
:104C18000B200AF0C1FCD4F8843018780AF089FC1B
:104C2800D4F8843058780AF084FC00262546D5F854
:104C38008430164C3344013618790AF07AFC032E76
:104C4800F5D1D4F88430D8790AF073FCD4F88430DC
:104C580098780AF06EFCD4F88430D8780AF069FCA9
:104C6800D4F8843058890AF09AFCD4F88430187A39
:104C7800EEE200BFDB9B0108E79B0108BF9B010830
:104C8800CC26002095120020060000207C1200206F
:104C9800BE120020D4120020D42E0020102F002095
:104CA800181800202C320020C64C1E200AF074FC74
:104CB800636D1B78022B4FF000056BD1636D03EB1E
:104CC800850393ED080AB2EE048A20EE080A10F074
:104CD800DBF980F30800C0B20AF02BFC636DDFED4E
:104CE800BA7A03EB850393ED0B0A20EE270A10F03E
:104CF800CBF980F30800C0B20AF01BFC636DDFED4E
:104D0800B37A03EB850393ED0E0A20EE270A10F021
:104D1800BBF980F30800C0B201350AF00AFC032D84
:104D2800CCD1072D636D23D193ED110A20EE080A2B
:104D380010F0AAF980F30800C0B20AF0FAFB636D1C
:104D480093ED120A20EE080A10F09EF980F308008D
:104D5800C0B20AF0EEFB636D93F84C3000EE103AE7
:104D6800B8EE400A10F090F980F30800C0B20BE0EA
:104D78002B4458780AF0DDFB636D2B44D87A0AF08F
:104D8800D8FB636D2B44587D01350AF0D2FB0A2D00
:104D9800C7D1E2E2636D2B4458780AF0CAFB636D11
:104DA8002B44D87A0AF0C5FB636D2B440135587D36
:104DB8000AF0BFFB0A2DEDD1CFE23C200AF0ECFB54
:104DC8000024804D9FED818A6B6D03EB840393ED86
:104DD800080A20EE080A10F057F980B20AF0DFFB43
:104DE8006B6D03EB840393ED0B0A20EE080A10F0B9
:104DF8004BF980B20AF0D3FB6B6D03EB840393EDA0
:104E08000E0A20EE080A10F03FF9013480B20AF0C9
:104E1800C6FB032CD5D1072C6B6D16D193ED110A67
:104E280020EE080A10F030F980B20AF0B8FB6B6D7A
:104E380093ED120A20EE080A10F026F980B20AF063
:104E4800AEFB6B6D93F84C000BE0234458780AF0E6
:104E5800A6FB6B6D2344D87A0AF0A1FB6B6D234443
:104E6800587D01340AF09BFB0A2CD4D175E214F862
:104E7800010F002800F071820AF05BFBF7E70120C0
:104E88000AF08AFB4F4B5B6D1878E1E150200AF07D
:104E980083FB00254B4B5C6D4D4B04EB85040C21CB
:104EA80094F8852001FB0233013593F838000AF0A5
:104EB80040FB94F886000AF03CFB94F887000AF05F
:104EC80038FB94F888000AF034FB142DE2D144E250
:104ED8003C4B5C6D062303FB0544013594F8DA006E
:104EE8000AF027FB94F8D5000AF023FB94F8D600C3
:104EF8000AF01FFB94F8D7000AF01BFB94F8D800BF
:104F08000AF017FB94F8D9000AF013FB0C2DDFD137
:104F180023E24FF00008012600272A4B1A7E974209
:104F280027DA19330024FA5C294D0C2305F13001E6
:104F38006343595C914207D12B44586B0FF0F3FD42
:104F480082462EB9B14605E001341D2CECD10EE0A5
:104F580080440CE0D1450ADA0C2303FB04535B6B55
:104F680013F809000AF0E5FA09F10109F2E7013737
:104F7800D3E7002E00F0F1815FFA88F00AF00CFB0D
:104F88000026C9E70F4D287E0AF006FB00242B7E79
:104F98009C4280F0E2810F4BE65C00210C480C2219
:104FA80000F1300702FB01F3DA5DB24205D1034498
:104FB80093F838000AF0BDFA02E001311D29EDD15D
:104FC8000134E4E77C1200200000C84200007A4463
:104FD8001C7B010895120020D14C16200AF0DCFA3F
:104FE800B4F894010AF0DBFAB4F840010AF0D7FAF1
:104FF800B4F842010AF0D3FAB4F844010AF0CFFA3F
:10500800B4F8D8010AF0CBFA94F8ED010AF091FA55
:1050180000200AF08EFA94F8EE010AF08AFA94F861
:1050280083010AF086FA94F890010AF082FA0020C7
:105038000AF07FFABB4B5B6D0A20B3F9623093FB31
:10504800F0F080B20AF0ABFA8CE0E0B201340AF07A
:1050580070FA092CF9D180E1B24C10200AF09CFAC0
:1050680094F8880000F002000AF063FA94F88900C6
:105078000AF05FFAD4F88C000AF09AFAD4F8900093
:105088000AF096FAB4F894000AF089FAB4F896008F
:105098000AF085FAB4F89800EBE00AF02DFA074612
:1050A80012200AF079FA9F4C27B9D4F8A060D4F8F6
:1050B800A45007E0102F13BF0025D4F8A860D4F837
:1050C800AC502E4638460AF034FA30460AF070FAE8
:1050D80028460AF06DFAD4F8B0000AF069FA002000
:1050E8000AF05DFA00200AF05AFA0020B0E08D4D6F
:1050F80095F8B40080000130C0B20AF04DFA95F876
:10510800B4000AF016FA00242E4696F8B4309C42F1
:1051180080F02381844D285D0AF00BFA05F1100315
:10512800185D0AF006FA05F120033035185D0AF01B
:1051380000FA285D0AF0FDF90134E6E708200AF0D4
:105148002BFA00200AF02BFA00200AF028FA002097
:105158000AF025FA00208CE004200AF01DFA704BB2
:105168009868F8E094F878010AF0E3F994F87C017B
:105178000AF0DFF994F87B010AF0DBF994F87D0175
:1051880066E0674C07200AF007FAB4F87E010AF0D7
:1051980006FAB4F880010AF002FA94F882010AF0DB
:1051A800C8F9B4F8840164E05D4C0C200AF0F4F905
:1051B80094F88E010AF0BDF9B4F898010AF0EFF9F5
:1051C800B4F894010AF0EBF9B4F896010AF0E7F99B
:1051D80094F88F010AF0ADF9B4F89C010AF0DFF9F0
:1051E800B4F89E0145E04E4C04200AF0D5F994F835
:1051F800D6010AF09EF994F8D7010AF09AF9B4F8A2
:10520800D80136E0494C4A4D207800EB4000C0B246
:105218000AF0C2F9002623789E4205F1020580F0C3
:105228009C8015F8020C0AF084F915F8010C00EBC3
:10523800800000EB800000F2EE2080B20AF0AFF9A7
:105248000136E8E701200AF0A7F9354B93F89001F9
:105258000AF06FF981E008200AF09EF90024304B2B
:105268002344013493F886010AF063F9082CF6D137
:1052780073E00AF094F970E02A4B294C93F8F50092
:10528800C0EBC000C0B20AF087F904F1200594F819
:10529800F4010023274AD25C904262D00C33302BB1
:1052A800F8D10834AC42F2D157E040201C4C0AF047
:1052B80073F904F14005B4F8A4020AF070F994F8FF
:1052C800A6020AF036F9043494F8A3020AF031F978
:1052D800AC42F0D141E0E020114C0AF05DF904F154
:1052E8008005B4F8260200F03F000AF058F9B4F837
:1052F8002602C0F386100AF052F994F82402000935
:105308000AF017F994F8240200F00F000AF011F9D6
:10531800043494F821020AF00CF9AC42E1D11CE003
:10532800CC2600207C12002031130020D42E00202F
:105338006C280020E02E002013200AF02DF900240C
:10534800154B185D01340AF0F4F80B2CF8D1002045
:105358000AF02EF900200AF02BF9012018E00020AD
:1053680016E00AF0E6F8B4F8F6010AF018F994F82D
:10537800F8010AF0DEF894F8F9010AF0DAF894F87E
:10538800FB010AF0D6F894F8FA010AF0D2F888E797
:10539800BDEC028BBDE8F88FDB9B01082DE9FF47C8
:1053A80004F0AEFAC44B1F78002F40F0C085C34DFF
:1053B8002B685C0540F1BB85C14BC24CB3F84E81EC
:1053C8002378C14E002B00F01A8232686368D31A22
:1053D8007C2B40F21482237A62600133237207F136
:1053E8002400C0B204F07CFAB84B33F9173007EE4A
:1053F800903AB74B1B88B8EEE77A07EE903AF8EE8A
:10540800E77A0137C7EE277A9FEDB27A67EE877A97
:10541800FDEEE77ACDED017ABDF9040004F04EFA0D
:10542800032FDCD1302004F05BFA002004F046FAA8
:1054380004F04EFA277A17F0030724D1A14B5A68D3
:1054480041F288339A420BD9102004F049FA3846C1
:1054580004F034FA212004F043FA384604F02EFA16
:10546800142004F03DFA9C4BB3F904000A2390FB86
:10547800F3F004F023FA1C2004F032FA002004F0C0
:105488001DFA04F025FA237A580740F09481022087
:1054980004F026FA8B4BB3F90A000A2390FBF3F0C9
:1054A80004F00CFA8D4B0320B3F9067004F018FAD7
:1054B8008B4B1B7859074FF0050997FBF9F7BFB2DB
:1054C8000BD58848414609F08EF820B92B6813F0AF
:1054D800100F18BF002738B205E0834B1B68988966
:1054E800B0FBF9F000B204F0E9F92B689A0740F133
:1054F8008B80DFF820A2B4F80C807C4F9AF800303B
:105508003A884FEA08184FF064091FFA88F809FB2F
:1055180002325B00B2FBF3F348EA03281FFA88F86B
:10552800C3F3032348EA0308062004F0D9F90FFA65
:1055380088F004F0C3F9A3899AF8001001339BB2EC
:1055480093FBF1F201FB1233A38123699B7B012BAF
:1055580005D1392004F0C4F9B7F900001BE03F88F1
:105568006E233A205F434FF0150804F0B9F997FB12
:10557800F8F71FFA87F8B8FBF9F738B204F09EF984
:1055880009FB17873B2004F0ABF9B8B2471D0A2086
:1055980097FBF0F000B204F091F9282004F0A0F98C
:1055A800534B0A201B6893FBF0F000B204F086F915
:1055B800042004F095F94C4B4E491B6808689A89F9
:1055C8004FF6FF739842A8BF1846C2B10028ACBF77
:1055D800131A134607EE903A9FED477AF8EEE77AEA
:1055E80067EE877A07EE102AB8EEC77AC7EE877A91
:1055F800FDEEE77A17EE900A6428A8BF642020EA37
:10560800E07000B204F05AF93C4B1B689B0640F16D
:10561800C7803B4B1A7812F0020F98461FD0DFF86C
:10562800F890112004F05CF9B9F80000354B4FF4FC
:10563800F367784390FBF3F000B204F03FF91920C8
:1056480004F04EF9B9F800004743642097FBF0F7DF
:1056580097FBF0F300FB137000B204F02FF92A4B0C
:105668001F8898F8003013F0020F08BF00270120A8
:1056780004F036F938B204F021F9092004F030F9C1
:10568800002004F01BF9214B1F78214B1A88B2F532
:10569800967F09D9237A03F00F03072B04D842F227
:1056A8000F77974228BF1746052004F019F9236998
:1056B8005B7BABBB38B250E0E132002034320020D3
:1056C800CC2600208013002040320020B212002097
:1056D8000600002000007A44EC120020A0220020DE
:1056E800DF320020522800206C17002018180020F4
:1056F800FC120020F41200200000C842881200208A
:1057080004130020A08601001013002005130020B8
:10571800080300200E030020121300206666E63FEF
:10572800A7F1200307EE903A1FED047AF8EEE77A26
:10573800F6EE006AC7EE877ABEEE007AF5EEC07A1A
:10574800F1EE10FA58BFB0EE667A77EE877AFDEE82
:10575800E77ACDED017ABDF9040004F0AFF898F8C6
:1057680000309F0702D4237D012B03D10123237529
:10577800C2481CE0C24BDFEDC36A1B6993ED017A96
:10578800D3ED027A27EE267A67EEA67ABDEEC77ABF
:10579800FDEEE77A8DED027ACDED037A02A806E0F8
:1057A800B94A92E8030002AB83E80300184603F005
:1057B800EDFF04F08DF8237A282B20D1B04B306808
:1057C80000221A724FF03C094FF47A73B0FBF3F8D9
:1057D800172004F085F8B8FBF9F7B7FBF9F009FBD7
:1057E8001070000200B204F069F8182004F078F88C
:1057F80009FB178000B204F061F804F069F8637DD2
:10580800DFF87C82002B00F0748108F031FFD8F8B3
:1058180018309E4AC31A9342074640F2C6800023B6
:1058280088F81E3088F82030994B1B88DAB21B0A9A
:1058380088F83A2088F83B3088F8302088F83130EA
:10584800D8F8482033689A1AD8F84C30D97B4FF4E6
:105858007A734B439A420ED38E4B1B68C8F8483074
:105868008D4B1B78013B012B9FBF102388F81E30FE
:10587800022388F82030894B81491A68884B0A200E
:1058880092FBF0F284F83820121284F83920854A05
:105898001B6893FBF0F384F83C301B1284F83D300E
:1058A8001278814B90071B7884F86A3003D42D2333
:1058B80081F86B3078E0042B8CBF3323322381F8D6
:1058C8006B306E4BDFF8FC91D3F800A05E68774A26
:1058D800774B9AFBF3F04FF0060809FB00A196FB03
:1058E800F3F309FB036903EB830308FB01F103EB03
:1058F800830391FBF2FC4FF0640E02FB1C119B002A
:1059080091FBFEF184F85C10091208FB09F884F891
:105918005D1098FBF2F143FA81F39BB284F85F3093
:105928001B0A84F86030634B02FB118292FBFEF283
:1059380084F86120121284F862201A8824235343C1
:1059480093FBFEFE5C4B84F857E01B8884F86330B9
:105958001B0A84F86430594B00EB80001B880A222C
:10596800B3FBF2F303F5FA739BB200EB80008000FF
:1059780084F865301B0A40FA8CF084F86630504B86
:1059880080B24FEADA7A84F85A00F60F000ACEF3AA
:10599800072E1B8884F859A084F85B0084F85E60A1
:1059A80084F858E084F86C30A76194F87C90344E01
:1059B800B9F1000F0FD1D6F8840009F069F8012871
:1059C80009D90228DFF8008100F0738203F0D0FEC5
:1059D800012388F80030D4F88860294B002E00F0A5
:1059E800888093F87C203AB1D3F8902040F6B731FC
:1059F800BA1A8A4216D87CE0012283F87C20D3F8B0
:105A08009420D3F884001278022A04D804300221A2
:105A180003F098FE02E0022109F02EF8002384F832
:105A2800983064E093F88C20AAB9C3F8882083F8EA
:105A38007C20D3F89420D3F884001278022A04D862
:105A48000430012103F07EFE02E0012109F014F880
:105A580003F08EFE4BE0013AD2B283F88C2093F823
:105A6800981093F899008ABB01304A1C83F8990072
:105A780083F89820D3F8840037E000BF081300208B
:105A8800801300208096184BB87C01083F0D030056
:105A98001818002040320020F6250020FC120020B3
:105AA800F4120020041300200513002040420F00C8
:105AB800809698001213002016130020101300205F
:105AC80018130020806967FF080000203246013063
