:020000040800F2
:1000000000A00020BD29010871CC0008A51001083E
:100010006FCC00086DCC00086BCC0008000000001D
:1000200000000000000000000000000069CC000893
:1000300067CC00080000000065CC00081DF0000837
:10004000252A0108252A0108252A0108252A010850
:10005000252A0108252A0108252A0108252A010840
:10006000252A0108252A0108252A0108252A010830
:10007000252A0108E5AE0008C90C0108252A010857
:10008000252A0108252A0108252A0108252A010810
:1000900051CD0008252A0108252A01082DF0000865
:1000A00031C1000861C10008252A010871C100089A
:1000B00051C1000841C10008252A0108252A01086C
:1000C000252A0108252A0108252A0108252A0108D0
:1000D000252A0108C10C0108B90C0108B10C01085E
:1000E00031F00008252A010855130108252A0108C6
:1000F000252A0108252A0108252A0108252A0108A0
:10010000000000000000000000000000252A010897
:10011000252A0108252A0108252A0108252A01087F
:10012000252A0108252A0108252A0108252A01086F
:10013000252A0108252A010800000000000000000F
:10014000252A0108252A0108252A010800000000A7
:10015000000000000000000000000000000000009F
:100160000000000000000000252A0108252A0108DF
:10017000252A010800000000000000000000000027
:0801800000000000252A01081F
:100188002DE9F04FB64C2378092B9CBFB54A342192
:100198002DED0E8B98BF01FB03239BB094BF9D6A86
:1001A8000025B14EB14FF36813A898479DF84C301D
:1001B80023B12378092B0CD900230FE00EF0F6FDAC
:1001C800AB4B1B68EB1A18443B6864339842E8D37E
:1001D800EFE7A44A342101FB03239B6AD7ED007A99
:1001E800A44CDFEDA58A2380F8EE677AA34BA448D8
:1001F80067EEA87AC3ED007A736898470A94A04C12
:1002080040B9A04B1A6812F0020F984640F0E480FB
:1002180000F06FBC9C4D204621462A7807F02AF949
:1002280095ED018AB5EE408AF1EE10FA10D1974E9D
:10023800DFF86C823388002B00F0AF80EB6FA8F1F9
:10024800480793F800B0A8F13C054FF0000965E0B5
:100258002B7ACBB9854A1268B2B1EB60EE68DFF849
:100268002882022E0DDC08F11003242000FB063042
:10027800B0EE480A3968013608F043FFC8F80C6048
:10028800ECE7012388F808302B7A002BCFD07E4B7F
:100298000022DA60EE687C4F022EC8DC34F9163092
:1002A80000EE103A242007F1100300FB0630B8EEE8
:1002B800C00A08F0FDFE14F09BFE24F81600013673
:1002C800FE60E7E7D5ED006A07EE103A37EEE66A1A
:1002D800B8EEC77A86EE077A36EE877AD5ED026AE7
:1002E80085ED017A77EEC77A85ED007AE6EE276A22
:1002F800F0EE667AC5ED036AC5ED026A00230129AE
:1003080024F80A3028F80A3026D009F10109B9F191
:10031800030F07F1040705F114054AD03188B1F538
:100328007A7F02BF00233B602B613A6834F91930A9
:100338001A4407EE903A2B693A600133012B4FEAD1
:10034800490AF8EEE77A2B61BCD10023C5ED017AA2
:10035800C5ED007AAB60D1E72B69012BC3BF03F170
:10036800FF3300EE103AD5ED037A9FED490AC4BF7A
:10037800B8EEC00A87EE800A14F01EFFBBF1000F2A
:100388000DD007EE90BAF8EEE77AB4EEE70AF1EE90
:1003980010FA04DD4FF47A733380002311E03B68D0
:1003A8004FF47A7203F5FA7393FBF2F328F80A30E4
:1003B800ABE73088012801D10EF056FE3388013BA7
:1003C800EAE734F8132038F81310521A24F81320E7
:1003D8000133032BF5D114E72E4B1B78002B00F0CB
:1003E80088830EF0E3FC284BD3F8D020C3F8D00064
:1003F800821A09EE102A00259946D9F8D4B0224E5F
:100408009BF80020002A4DD096F8D820DC368AB117
:10041800214A32F9153000EE103A242000FB05601D
:10042800B8EEC00A08F044FE14F0E2FD1B4A22F8B8
:1004380015003DE015469BF8003000EE103A7019A3
:10044800B8EE400A4FF47A71243508F05AFE6C2D44
:10045800F1D10D4A012182F8D810032528E000BF08
:100468000C0300204C00002054220020DC24002033
:100478008C2F0020EE2F0020BD3786356822002003
:10048800AE2100209825002098080020E82F0020A1
:1004980000000000C42F0020942F00201A1A00200A
:1004A80060090020D04A32F81510D04A22F81510F9
:1004B8000135022DA1DDCD4804904688058887883E
:1004C80016FB06F215FB052217FB07226421514390
:1004D800C74A1288524391FBF2F2A2F15203D8F8AC
:1004E8000020099312F0080F09D0C249B1F90000A1
:1004F80028B1B1F9020010B1B1F9041079BBBE49B5
:10050800097801F0100078B312F020022CD001F025
:10051800020149B3B94A1278042A25D9B84A12887F
:10052800B2F5967F20D3B74AB2F90430B64A07EE3F
:10053800903A1388B8EEE77A07EE903AF8EEE77A41
:10054800B2EE048A87EE888A4FF0010A4FF000085D
:1005580077EE487A9FEDAD8A27EE888A09E04FF05A
:10056800000A4FF0010802E04FF0000AD0469FED64
:10057800A88AB4F90030D9ED525A9E480AEE903A4A
:10058800B4F902300BEE903AF8EEEBBAB4F9043055
:1005980044886BEEA5BAF8EEEAAA0BEE103A6AEEBA
:1005A800A5AA2BEEAB0AB8EECBBAAAEEAA0A038824
:1005B80006932BEE25BAF8EE497A83880893ABEEBA
:1005C8000B0A67EEA88A14F0F7FDF0EE40CABAF1FC
:1005D800000F22D0DFED8F7AB4EEE78AF1EE10FA41
:1005E80004DDDFED8D7A38EE678AF3E7DFED8B7A8D
:1005F800B4EEE78AF1EE10FA04D5DFED877A38EE2B
:10060800278AF3E7B6EE000A28EE000A08F0D8FFBA
:100618009FED7FCA30EE0CCA01E09FED7DCA9FEDC9
:100628007CAADFF80CA2F7EE009AB8F1000F56D0BA
:10063800BDF91830DFED7A7A07EE103A23B208EEEA
:10064800103ABDF92030F8EEC7DA00EE103AB8EEED
:10065800C88AB8EEC0DA2DEEAD0AA8EE080AADEEEB
:100668000D0AB4EEE70AF1EE10FA38DD14F0A4FD35
:1006780089EE800ADAED017ADAED006A28EE008A5E
:100688002DEE807A68EE277A2DEE000AE6EE877A5C
:10069800DAED026AE6EE807ADAED046A28EE268A56
:1006A800DAED036AA6EE878A9AED057AA7EE008A44
:1006B800B0EE4ADA28EE080AA7EEA70A14F07CFD85
:1006C800DAED067A20EE480AA7EE80DADAED077A44
:1006D800A7EE80AADAED087AA7EE80CA01E0B0EEAC
:1006E8004ADA099B262B3DD82DB207EE905A36B22E
:1006F800B8EEE78A07EE906A28EE080AF8EEE7DA1D
:100708003FB207EE907AADEEAD0AB8EEE7EADFED5C
:10071800447AAEEE0E0AB4EEE70AF1EE10FA21DDE5
:1007280014F04AFD89EE800ADAED076A9AED087A34
:100738002EEE00EA6DEE80DA66EECE7A28EE008ABA
:10074800EDEE877A27EE487A3DEE27DADAED067A7B
:10075800AEEE277A67EEED7A3AEE07AAE8EE267A49
:100768003CEE27CADBED017AF5EEC07AF1EE10FA1D
:100778004FF000011FDD9FED2B7AF4EEC7CAF1EEB2
:1007880010FA1ED567EE8D6A99ED537AA6EEA87A0F
:1007980067EE8A6A89ED537A99ED547AA6EEA87ABB
:1007A80067EE8C7A89ED547A99ED557AA7EEA87A96
:1007B80089ED557A05E0C9F84C11C9F85011C9F806
:1007C8005411194CDBED027A21784F0732D41749BE
:1007D800086844F61F618842F7EE005AB2EE047AC0
:1007E80098BFF0EE475A27E0942F00201A1A0020ED
:1007F8000400002034110020301A0020361A00208E
:10080800321A0020A82100201810002035FA8E3C4A
:1008180000000000DB0F4940DB0FC940DB0F49C077
:100828000AD7233CC2B8B23EF52F00201425002079
:10083800E4230020F7EE005A67EEA55AD9ED556A71
:1008480099ED537AD9ED547AC74EDFF8508396ED77
:10085800004AC64FD8ED003AC54D9FEDC68AD5ED82
:10086800004AE5EE8C6AA5EE8D7AE5EE8A7A3BEED3
:1008780026BAF6EE006A68EEA66A7BEEA77A3AEE2A
:10088800877A27EEA66A27EE267A6BEE266A26EE88
:10089800445A24EE260AD7ED007AA3EE870AA7EE7B
:1008A800C75AF1EE645AA5EEA65AA5EE860A66EE78
:1008B800E75A37EE800AE3EE865A67EE867A33EE19
:1008C800855AE4EE875AE3EEA67A87ED000A20EE11
:1008D800000A74EE255AA5EE050AE4EE477AA5EE5D
:1008E800A50A74EEA77AC6ED005AA7EEA70A88ED06
:1008F800005AC5ED007A14F05FFC89EE800AD8ED45
:10090800007AD5ED009A67EE807AC8ED007AD7EDC7
:10091800007A67EE807AC7ED007AD6ED007A67EE46
:10092800807A29EE800AC6ED007A85ED000A0DF07E
:100938007FFBDAED080A9AED070A8F4D14F03AFCAE
:1009480020EE080A14F054FB9AED060A2880B1EE4E
:10095800400A14F0D1FBDFED897A37EEC00A20EEA9
:10096800080A14F045FBDAED000A9AED030A6880DC
:1009780014F020FCD9ED567AE0EE487AB0EE670A1A
:1009880014F036FB049BDAED085AB3F90030D9EDC0
:10099800577A9AED010A9AED065A06EE103A049B28
:1009A800B3F9023007EE103A049BB8EEC77AB8EEF6
:1009B800C66AF4EEE75A27EE000ADAED007AB3F9D0
:1009C8000430A7EE860A81B20E0406EE903ADAEDFC
:1009D800027A58BFA980F8EEE66A48BF00F5616060
:1009E800A7EEA60A664948BFA880DAED077A087814
:1009F8009BF8012067EE277AF1EE10FAE5EE067A09
:100A0800CCBF40F0080020F00800012AE5EEA67AE5
:100A18000870DAED045A27EE257ADAED035AA5EEC6
:100A2800867A9AED056AA6EE267AF1EE479A1AD1E9
:100A3800227851070FD4D9F86021402192FBF1F1B7
:100A4800531A07EE103AB8EEC77A37EE277ABDEE9A
:100A5800C77A89ED587AD9F86021402192FBF1F2E2
:100A680007EE102A03E0474A138807EE103AB8EE5B
:100A7800C77A99ED598A77EEC77A99ED5A7A38EE9E
:100A8800877A77EEC87AC8EE878AA8EEA78A89EDB2
:100A9800598A14F0ADFAD9F86C41217808F081FD33
:100AA800D9F87021B0EE690A1044C9F8700114F041
:100AB8009FFA217808F075FDD9F87421B0EE480A3C
:100AC8001044C9F8740114F093FA617808F069FDCC
:100AD800D9F878212C49104419EE103A0A68C9F857
:100AE80078011344D9F87C210B600132C9F87C21C4
:100AF80004E0264B00221A805A809A80244BB3F9CE
:100B08000620244B1B6859898A420EDBB2F5FA6F1E
:100B1800D879BDBF531A4343A1F5FA60C0F1640008
:100B2800BCBF93FBF0F0643000E064201A4B93F8EC
:100B38001F12069193F9D411B3F84AE293F81E7282
:100B480089B208910021124B33F91180CEEB0803CA
:100B580003F2F31540F2E634A5424FEA410C1FD8E0
:100B6800002BB8BF5B421DE0DC230020D823002007
:100B7800E02300204C3D0F44A8210020DB0FC93F93
:100B8800301A002004000020D02F0020942F0020CD
:100B9800E82400207C1200209C2600204800002029
:100BA8004FF4FA73022904934FF064059E4C24D045
:100BB8002FB1049BBB42CCBFDB1B00230493049BD7
:100BC800DFF88CB293FBF5F66FF0630A0AFB063385
:100BD8003BF8169001360FFA89FA3BF91660CAEB12
:100BE800060A0AFB03FA914B9AFBF5F5F0454D44CA
:100BF80024F80C50585429DB2EE0069B2BB1049E98
:100C08009E42CCBFF31A00230493894E049B93FBA6
:100C1800F5F906EB490A06EB4906BAF980A1B6F9D7
:100C280082616FF0630BCAEB06060BFB0933734353
:100C380093FBFBF3CAEB030ABDF820301AFB03FA57
:100C48007A4BA4F804A0F0459D7009DA764D3CF87B
:100C580005305B422CF80530013103297FF473AF6E
:100C6800744DB5F84C128A4205DBB2F5FA6FA8BF8D
:100C78004FF4FA6200E00A46DFF8D8E16A4F521AE8
:100C88004FF47A736FF063005A43C1F5FA61642335
:100C9800B2FBF1F292FBF3F13EF8116000FB012286
:100CA800013130B23EF91110091A4A4392FBF3F3AD
:100CB8003344E380604B5E4EB3F8008018F0400F79
:100CC80039D05E4BDFED5E7AB3F904300A2293FB2C
:100CD800F2F3B6F88E219B1A1BB208EE103AB8EE62
:100CE800C88A28EE278AB0EE480A08F0C9FCF0EE58
:100CF800408AB0EE480A08F063FCB7F9023006EE05
:100D0800903AB7F90030F8EEE66A07EE903A20EE2E
:100D1800667AF8EEE77AA7EEA87A67EE807ABDEEF3
:100D2800C77AE6EEA87A17EE103AFDEEE77A3B802E
:100D380017EE903A7B8095F850321BB9B8F1000F46
:100D480000F08C8096F89231394FB6F8908153B9FB
:100D58003C4BB6EE000A196807F5CA7008F0D1F9DD
:100D6800012387F892310A9B314F1B8800EE103A15
:100D780007F5CA70B8EE400A08F09AF9BCEEC00A46
:100D88008DED040ABDF81030B8FBF3F02E4B00F1DE
:100D9800010E1B781FFA8EFEA6F8B8E11BB3B7F850
:100DA800BA910021224E34F811C006F5E27706F513
:100DB800DE7837F8113038F8112027F811C0C3EB66
:100DC8000C0A12FB09F20FFA8EF392FBF3F3534469
:100DD80028F8113001310429E4D11B4BA6F8BA01D7
:100DE80000221A7004E0B7F8BA31013BA7F8BA310B
:100DF8000F4AB2F8BA0103B2002B4FF000032BDD03
:100E0800B2F9B841114931F81320083112FB00F248
:100E180031F8131092FBF4F28A1A034921F81320CF
:100E28000133042BEED119E0A0210020B4210020C9
:100E3800980800209C2600205C250020A82100207E
:100E480035FA8E3CDC2400201C130020540A0020B4
:100E5800CC250020B4250020A2F8BA3195F85132EB
:100E6800002B6BD0A34A1288520667D407EE903A3B
:100E78009FEDA17AA14CA24DF8EEE77A67EE877A4A
:100E880017EE900A10F006FF41EC100B41EC180B1E
:100E980013F0CAFFB4F900005BEC10AB10F0E8FEE9
:100EA800B0EE480AF0EE680A06460F4614F010F84D
:100EB800B4F904008DED040B10F0DAFE32468046DA
:100EC80089463B465046594610F038FF42464B4645
:100ED800CDE90601DDE9040110F030FF02460B46BA
:100EE800DDE9060110F078FD11F03AF9B0F5FA7F66
:100EF800A8BF4FF4FA70A842B8BF284642464B46EE
:100F080020805946504610F019FF324680468946DF
:100F18003B46DDE9040110F011FF02460B4640464E
:100F2800494610F059FD11F01BF9B0F5FA7FA8BF3A
:100F38004FF4FA70A842B8BF2846A080714C724D91
:100F4800237813F0040F04D0704B1A689B8813851C
:100F580031E02A68D7075CBF43F0010323706C4B6C
:100F68001B781E075EBF237823F001032370694BAB
:100F78001A88694B1AB1694A1268900706D4684AF8
:100F880012881AB967490988642906D902221A7091
:100F9800237823F00103237004E02178C90758BFA0
:100FA80002221A700DF002FF5F4B1B68C01A00285E
:100FB80001DB0DF0BFF95D4B9B680BB15C489847AE
:100FC8002B684C4F5B4D13F4801F00F0BD803E88AA
:100FD80006F40066B6B2002E77D123785B0774D585
:100FE8004FF4006008F064FB534B1B68C5F8CC3124
:100FF8001A78D5F8CC01022A04BF012285F8D0213D
:10100800B3F85C2018BF85F8D0614FF47A73534366
:101018004A4A95F8D0A1128893FBF2F35B4299B241
:10102800474BA5F8D21193F8009000F1200E002646
:1010380090F8582090F855300AB1934204D8B9F185
:10104800030F04D8022E02D1002280F85820DFF8BE
:10105800F4C0BAF1000F1CD09EED007A07EE903A6A
:10106800F2EE046AF8EEE77A27EE267AB4EEE77A2B
:10107800F1EE10FA44BFC7EEA67ACEED007ADEEDA7
:10108800007AFDEEE77A17EE902A92012CF81620E6
:1010980007E042789A4238BF437043789B012CF8A6
:1010A8001630244B03F5ED724FF0000C22F816C0F1
:1010B80003F5F072013022F816100136032E0EF1F6
:1010C800040EB5D1012283F8E6213B881E0545D4DC
:1010D800237803F0040303F0FF04002B3ED195F8B6
:1010E800E631002B3AD008F089FD124B83F8E6412F
:1010F80034E000BF5C25002035FA8E3CA02100209A
:101108000CFEFFFFF52F0020602500204025002061
:10111800301A0020401200203C250020982500208D
:10112800E82F002096250020582500205422002072
:10113800201A00209808002014100020EE2F00200C
:10114800B42200206C0A00203B88180506D52378B5
:10115800590703D54FF4006008F09AFAC84BC94EF6
:101168001B78ABB1C84BB3F90620B6F84C329A429B
:101178000EDC7379012B01D0192B02D196F8942239
:1011880032B90E2B04D0082B1EBFC04B00229A8008
:1011980096F80C4294B33B889A072FD0BC4BDFEDEE
:1011A800BD7A93ED080AB4EEE70AF1EE10FA20D9F9
:1011B80013F0A2FFD5ED7A7A20EE270A13F018FF74
:1011C800B0F5617FA8BF4FF4617007EE900AB8EEE2
:1011D800E70ADFEDB17A80EE270A08F0F1F907EEA9
:1011E800904AF8EEE77A27EE800A13F001FF80B202
:1011F80000E00020A54AD3881844D080A74B1B687C
:101208009B0640F19C803B8803F03003002B00F0E4
:101218009680A34B1B78DF0740F19180A14BDFED4F
:10122800A27AB3F90430DFF8CC920A2293FBF2F3E6
:1012380008EE103AB8EEC88A28EE278AB0EE480AB7
:1012480008F0BEF9F0EE408AB0EE480A08F018FA45
:10125800964B1B68DF78964BB0EE409AB2EE048A44
:10126800002F48D0934CB3F90200B4F802800493DD
:101278000FFA88F1401A09F049FCC7F1000B5845EC
:10128800A246049B03DBB842A8BF384600E0584694
:101298004044BAF800401FFA80F8B3F90000AAF8F1
:1012A800028023B2C01A09F031FC584503DBB8426A
:1012B800A8BF384683465C44A4B2AAF8004024B2CA
:1012C80007EE104A0FFA88F8B8EEC70A07EE908AB8
:1012D80028EEC07AF8EEE77A20EE090AA7EE897AB6
:1012E800A7EEA80A87EE087ABDEEC77A17EE103A7D
:1012F800A9F800301BE0B3F90220B3F9003000EE82
:10130800103A07EE102AB8EEC00AB8EEC77A68EEAF
:10131800C07A20EE090AE7EE097AA7EE280AC7EE96
:10132800887AFDEEE77A17EE903AA9F8003080EE59
:10133800080AFDEEC07A17EE903AA9F802305E4B23
:101348005E49B6F82E2200930C685D4908685D492D
:10135800523B0968A0475C4B5C4CDB780A935C4BBA
:101368001878032819D9D5F8EC315E88B6F5FA7FD4
:1013780013D2464BB4F90470B3F9041081EAE17E44
:10138800AEEBE17E7242CEEB02039F4204DB06EB3A
:101398000E03BB42A8BF3B46A38023880493D5F81D
:1013A800EC3106934B4BB4F802C01B6808934A4BC8
:1013B800B4F904E01E68494B494C93F80080494B46
:1013C800B3F80090484B0022B3F800A006F00206DC
:1013D80013461146814280F0B280069D94ED016A61
:1013E80095F900506D420EFB05F507EE905A0FFA7D
:1013F8008CF506EE905ABDF91050B8EEE77A07EE74
:10140800905AF8EEE77AF8EEE66A67EE867A94ED97
:10141800026AE6EE867A0DAFD4ED036AE7EE267A25
:10142800FDEEE77ACDED097ABDF8245027F8115082
:10143800089FBF79002F6FD0002E5DD0B8F1010F43
:101448005AD9B9FBFAF707EE907A9FED287AF8EEA9
:10145800E77AF4EEC77AF1EE10FA09D4B7EE007A1B
:10146800F4EE477AF1EE10FAC8BFF0EE477A01E0E1
:10147800F0EE477A9FED1E7A77EE877A3EE000BF5E
:10148800020000209C260020E8240020A021002043
:10149800E42300208FC2753CEFB6B04498250020A5
:1014A800301A0020A821002035FA8E3C8C1200202A
:1014B8001813002014130020D8280020100300203F
:1014C800141000207C12002018250020E0210020A4
:1014D800B42200205C1C0020E42400201A03002011
:1014E800880A00204C260020081D0020CDCC4C3F47
:1014F800CDCC4C3EEA2F0020F7EE007A2DB207EE55
:10150800105AB8EEC77A0DAF67EE277AFDEEE77A84
:1015180017EE905A27F811500DAD0FFA83FB35F8E6
:1015280011502FB25F4504DC0FFA82FB5F4502DBE6
:101538001D462B461546013110342A464AE79B1AA8
:10154800954A964EB2F806E0954A146814F4805409
:101558009BB23BD0934AB2F90640D6F8B022D5895F
:10156800914A1268D1886F1ABC4205DC15888F4AE7
:1015780012680224118822E029448C42548805DB31
:101588008A4A126821465588012418E0B6F8B41230
:1015980011B10DB2A54204DB844A12682146558870
:1015A80006E01288954205DC804909688D8891B269
:1015B8008E4603E0B6F8B652B6F8B8E20024A6F8AC
:1015C800B652A6F8B412A6F8B8E203E0774A126851
:1015D80011885588DFF8F8A11FFA85F81FFA81F9F4
:1015E800C9EB080C1FFA8CFC1FB20FFA8CF2974259
:1015F8001FDD0127D6F8EC918AF80070022692FBCD
:10160800F6F2002692B286421FD20DF134080FFA84
:1016180083FA38F8167017FB0CF797FBFAF728F8D7
:10162800167099F8017017B1114489B20D46013648
:10163800E9E700238AF80030022397FBF3F309EB6C
:101648000301C3EB080589B2ADB2554B564E1B6872
:10165800564AD6F800901268554E03F4805A03F0A3
:1016680010030B93534B1B7803F00403DBB2069370
:10167800514B1B6803F0006308934A4BB3F906C04B
:10168800464BD3F8B032099300230493049B83425A
:1016980050D20DAB049F33F817800FFA8EF307EE84
:1016A800903A464B03EB071393ED007AF8EEE77A8E
:1016B8000BB267EE877AFDEEE77A17EE90BA9B4594
:1016C80003DB2BB25B45A8BF5B4643440A9F9BB232
:1016D80026F8023F1BB217B1B2F804800EE0BAF147
:1016E800000F09D0022C04D1B2F80080B9F800B07C
:1016F80006E0B9F8028001E0B2F80080B2F802B062
:10170800434503DB5B45A8BF5B4698460B9BA6F8A1
:10171800008063B1069B53B1BAF1000F07D1089B53
:101728002BB9099B1B8A9C45BCBF93883380049BBB
:101738000133AAE71F490A7802F0040202F0FF0306
:101748008B4642B1154991F8BA32013BDBB2182BEE
:1017580000F23F8109E08342F4D2194A32F81310AB
:10176800184A22F813100133F5E701229A40164B64
:101778001340002B00F02D81144B0A481B8813F4EA
:10178800807F27D0044B1A88ADF84C205A88ADF8D2
:101798004E209B8834E000BFA0210020980800203C
:1017A800E4240020E8240020582300205C230020A3
:1017B8006A220020F52F002060250020880A0020DA
:1017C800101D00206C220020992098015C25002023
:1017D800C5210020B34B1A88ADF84C205A88ADF8C3
:1017E8004E20B14A9B881268ADF85030D40409D510
:1017F800D1F8B022B0F90640D289944202DA5B42AD
:10180800ADF85030A94DB5F902304FF47A7203F5AE
:10181800E16353434FF4616493FBF4F3A3F5FA7364
:10182800ADF86430B5F9003003F5E1635A43A04BD5
:1018380092FBF4F21B88A3F2DC53A2F5FA72ADF81E
:101848005230D1F8B032ADF86620DB890288D21A5E
:10185800ADF854204288D21AADF856208288D21AA0
:10186800ADF85820C288D21AADF85A200289D21A87
:10187800ADF85C204289D21AADF85E208289D21A6E
:10188800ADF86020C289D31AADF862300023894AC6
:10189800002122F813100133082BF8D1864A874B10
:1018A80012680492864A1B78126886490692864D09
:1018B800072202FB0318414572D00B7833B103F1BC
:1018C800150201239340049A134065D011F806ECE1
:1018D800069B11F805AC11F8034C11F801CCCEEBBE
:1018E800CE0703EB47076420B7F90020B7F90230A9
:1018F8009B1A9BB211F9022C4FEA53095A434FEA3B
:101908004A0692FBF0F21AA8C9EB020292B2064408
:1019180014B936F81C0C0CE0B5F9000036F91C6C4B
:10192800B04208DA0444844203DBA6423046A8BF2A
:101938002046288008E007DD041BB44203DB84420C
:10194800A8BF044626462E80D7F80A4011F9046C31
:10195800012000FA0AF02042288812B216FB00F093
:1019680014BF4FF0FF340124642690FBF6F0904238
:101978000ADB4FFA8CF25A4392FBF6F2C9EB0202E9
:1019880012B28242A8BF02464A4B33F81E9002FBAD
:10199800049423F81E4000E02B80023507318AE7C3
:1019A800474B4A4E1F6800250E2202FB057236F887
:1019B800023F92F90640E8B214FB03F3642493FB58
:1019C800F4F434800CF01AFB01352044082D3080E3
:1019D800EAD1354F374D3B68394E13F0200F32D0DE
:1019E80000200CF00BFB2880044601200CF006FBBD
:1019F800314B68801B68190625D5354B2B4AD3F81F
:101A0800DC321B78012B22D13168138891F914E05C
:101A1800B2F902201EFB03F34FF0320C93FBFCF3E8
:101A28001FFA83FE91F906305B4253436FF0310190
:101A380093FBF1F10EEB0102A11893FBFCF3734445
:101A4800298018446880D6F800E0002318E0D6F80A
:101A580000E053889EF9061011FB03F1322391FB35
:101A6800F3F12144298011889EF9142012FB01F218
:101A780092FBF3F21044E5E70133082B2A5329D0EF
:101A88000E2101FB03E135F91300B1F90020B1F98A
:101A9800021090424FEA4304EEDB0AB28242A8BF2A
:101AA8000246E9E7E0210020E4240020A8210020E4
:101AB8006C220020041000206025002060230020F4
:101AC800641D002067230020540B00200210002012
:101AD80098080020AC4CD4F8EC9199F90830A3B9D7
:101AE80094F8BA8208F1FF33182B72D8DFE803F0B4
:101AF8003571714F7171714871717171715971716D
:101B08007171714F657171593500DFF8A0A24FF0FE
:101B180000089E4B3AF9021FB9F90620882000FBFD
:101B280008300CF09CF832680E2380B203FB0822C0
:101B3800AAF80000B2F90030B2F9022000B29842C7
:101B480003DB13B28342A8BF034608F10108B8F1CA
:101B5800080FAAF80030DCD1C2E799F8043013B1B5
:101B68000020698908E09BF8003003F0040303F0C3
:101B7800FF00002BF4D1014603F018FF012629E0ED
:101B88000020E98803F012FF0120298905E00020E0
:101B9800298903F00BFF6989012003F007FF02265A
:101BA80018E00226B01E35F81610C0B2013603F050
:101BB800FDFE082EF6D106260CE00326F01E35F8A9
:101BC8001610C0B2013603F0F1FE072EF6D1042636
:101BD80000E000263B689A0602D4B8F1050F0AD146
:101BE8003046298803F0E2FE701CC0B2698803F011
:101BF800DDFE0236F6B23B68DB0205D494F82037E6
:101C08007BB10CF043F90CE0DFF8A48100257019D2
:101C1800C0B238F8021F03F0C9FE0D2DEED0013511
:101C2800F5E75B4B1878002840F0B1813B681D034D
:101C380040F1AD81574D2B78033B052B18D8564BF7
:101C480093F8213523B9D4F8240703689B6898478B
:101C5800D4F8283794F82C271344B3F5807FA8BF0D
:101C68004FF480738342D4BFC4F82837C4F82807D8
:101C78002B78023B092B00F28A81DFE813F00A0077
:101C880015004C006F009B00B400C60038015501D8
:101C980060010023C4F82837C4F830373F4B1B686D
:101CA800C4F83437032334E03C4B1A68D4F834378B
:101CB80064339A4240F26B8140200EF00DFD0028FB
:101CC80040F065814FF04008354BD4F830272E4F4F
:101CD800985C1E4678B10EF04DFDD7F82837013BC9
:101CE800C7F82837D7F83037B8F1010803F10103EE
:101CF800C7F83037E8D1D4F83027234BB25C002A34
:101D080040F04581C3F830274FF0FF32C3F834273D
:101D180004232B703BE125230093224B019303F10D
:101D28000C0202924920A3F10A025021023306F064
:101D3800B5FF002840F02B813B684FF0FF3213F0CD
:101D480080030FBFC4F83037C4F83007C4F834270D
:101D5800052304BFC4F834270723DAE7124A02230D
:101D68000021009301910291482002F1080306F036
:101D780095FF002840F00B814FF0FF33C4F834374B
:101D8800C4F830070623C4E798080020780B002021
:101D9800F12F0020641000209C260020142500202C
:101DA800A07701080A780108BC7901080210002010
:101DB800EE240020784B019303F10C0207260292CF
:101DC8000096A3F1080247200021043306F066FFBD
:101DD800002840F0DC804FF0FF33C4F83007C4F827
:101DE80034372E70D3E06D4A05230021009301910A
:101DF8000291532002F1080306F050FF002840F03A
:101E0800C680C4F83007082383E740200EF064FC3E
:101E1800002840F0BC80D4F830370C2B00F2AE809C
:101E2800DFE803F0070B0E1219252A2F3337455028
:101E380054005B480EF056FD53E05A485A4913E0E7
:101E48005A485B495B4A4AE05B4B5C4893F81F156C
:101E580093F8202543E0584B594893F874246C2193
:101E680001FB023393F8FC130EF03CFD39E0524BB2
:101E78005448B3F8D410F7E74F4B5348B3F8D6108B
:101E8800F2E7524B52481969EEE7524B524819880B
:101E9800EAE7D4F83837D80404D5474B4F4893F8C5
:101EA8000E12E1E74E4B0B22C3F8302719E0424BE4
:101EB8004C4893F8121293F8132293F811320EF04B
:101EC80011FD0EE04848B4F83C17CDE73B6819050A
:101ED80007D5394B4548B3F81812B3F916220EF056
:101EE80001FDD4F830370133C4F830374FE0404BA8
:101EF8001B689A0115D5B4F84037394E8BB9D6F816
:101F0800443713933B4B0E201B68149313A906F018
:101F1800EFFB4FF48053A6F83E370A232B7006F0E8
:101F280041FC06F0C7FB32E094F84837002BF6D0A6
:101F38002F4B1B689B01F2D409232B70F1E72E4B22
:101F48001A68D4F83437C8339A4204D91A4B93F82C
:101F580021658EB904E00EF0DDFB0028F6D116E00D
:101F6800D4F824070AF047FE94F84937C4F82467E0
:101F7800022B01D10DF07CFF0123CAE60EF0CAFB4B
:101F880028B14FF48053A4F83E370A23C1E61BB0AA
:101F9800BDEC0E8BBDE8F08FD4790108207A0108DA
:101FA800B49A0108CE9A0108E39A0108EB9A01084D
:101FB800FF9A01080B9B01089C260020149B01082E
:101FC800259B01082F9B01083E9B010854220020F5
:101FD8004D9B0108040000205D9B0108679B0108D8
:101FE80098080020749B01088D9B0108989B0108A4
:101FF800602500208C2F0020142500202DE9F04FAB
:102008002DED028BA24E97B034780196002C00F08B
:10201800EA80A04B1868002801F099870CF0ACFE04
:102028009D4C20680DF0D2F8002801F090872068B8
:102038009A4C0DF0C8F8092801D03F284BD14FF031
:1020480000092768964E4D462FB1964831683A46A2
:1020580012F028FD10B9B14605B93546924B103635
:102068009E42F1D3D5B12E68D9F80080236816F8BE
:1020780003E018F80300704510D15A1C894948B983
:102088002D2B07D8854E4FF0200E01F803E0326063
:10209800885403E001F803E02260E7E723680BB106
:1020A8004D450FD081480CF073FB4D4507D855F8C6
:1020B800100B0CF06DFB09200CF09DFAF5E70AF007
:1020C80081FD002723689F42AAD2764BD85D0CF089
:1020D80092FA0137F6E72368002B41F0A28604281C
:1020E80041F0F4866F4805F0B7FD01F030BFDFF826
:1020F800E8A1DAF800000DF069F800285DD0DAF8F8
:1021080000000DF060F8DBF8003093F84810064640
:10211800002940F08280242840F0E080012283F8E2
:102128004820DBF8003093F84820062ADFD193F8DE
:102138004900522800F0A28700F2A781342800F055
:102148000C8500F25281242800F0618600F21F817C
:10215800032800F0758240F2F980052840F00B81D1
:102168001A200CF033FA4FF00008514B13F808000E
:1021780008F101080CF0E1F9B8F10B0FF5D14FF0B7
:1021880000084C4B13F8080008F101080CF0D5F9C9
:10219800B8F1080FF5D14FF00008474B13F80800C5
:1021A80008F101080CF0C9F9B8F1070FF5D10CF0E6
:1021B800D5F92B68002283F84820404B18680CF0AA
:1021C800DBFD3F4B93F881304BB138590AF008FDDD
:1021D8000BF0ACFE07F08CFA3A4B3B4ADA604C3411
:1021E800982C01F0B486394FE359E219002BF6D048
:1021F800DFF8E480364DC8F80030069300238DF8E8
:102208001D302E492A601423324A8DF81C306B4445
:1022180005920B60AB46029269E7012904D14D286B
:1022280014BF002202227AE7022904D13C2814BFF5
:102238000022032273E703290CD140284FF0000144
:1022480002D983F848106CE758711971D9719871DF
:10225800042264E7042907D1997983F8490080EAC0
:1022680001029A7105225AE705297FF45AAF587975
:1022780019798842987906D970409871481C187164
:102288000B441E724DE7B0420CBF0622002246E7FF
:10229800F12F0020902500200C1D00205C1D00203F
:1022A800507C01082C1D0020007E0108A39C010819
:1022B800FF9A01080B9B0108E39A01088825002072
:1022C800E40F002000ED00E00400FA05C02B002018
:1022D80084250020E1F100088C250020DFF8C49354
:1022E80099F8003003F0040303F0FF0E002B7FF48D
:1022F80018AF232EDAF800001BD1019A01231370BE
:10230800DC4B029A1860DC4B186098601020187338
:10231800DA485A6083F80DE004330360D8480CF0BB
:1023280037FA0AF04FFC99F8003043F0020389F8B5
:102338000030D44B1B681B78B34201BFD24BD34A41
:102348001A60D34B04BFD34ADA60EAE6012800F0EA
:102358006B81022840F0158704200CF037F94220E1
:102368000CF0EBF854200CF0E8F846200CF0E5F8F7
:102378004C2000F0EBBEC0F06D81222840F00187B0
:10238800C54E50200CF022F906F1500ACAE32C2859
:1023980000F06B8518D8282800F04E852A2800F010
:1023A8005E85262840F0ED86BB4E06200CF00EF91F
:1023B800B6F8CE010CF00DF9B6F8D0010CF009F919
:1023C800B6F8D20100F071BE302800F00886322835
:1023D80000F09D852E2840F0D486AF4E40200CF0AA
:1023E800F5F806F1400A00F0E9BD422800F0A8859A
:1023F80020D83A2800F05C820BD8362800F0C18536
:10240800382840F0BE8604200CF0E0F8A24E00F018
:1024180004BD3D2800F07D82402800F07F853B28E0
:1024280040F0AF8601200CF0D1F8934B1B6B187865
:1024380000F08CBE4B2800F037850FD8462800F0F6
:10244800F485492800F07182452840F09A861320C7
:102458000CF0BCF84FF0000800F015BE4F2800F053
:102468000086502800F0EB854D2840F08A86DFF87A
:1024780038828A4E98F8000000EB4000C0B20CF099
:10248800A5F84FF0000B00F029BD732800F0F48385
:102498006AD86A2800F0008416D8662800F03F81C0
:1024A80007D8642800F00281652840F06A860B206E
:1024B8000DE1682800F0C58100F2D38110200CF0EE
:1024C80085F84FF0000858E16E2800F0F5810BD828
:1024D8006C2800F0DD8140F2FE8306200CF076F8CF
:1024E80000200CF07FF845E1702800F07582C0F0FC
:1024F8002282722840F04586674E16200CF066F856
:10250800B6F84A020CF065F8B6F8D4000CF061F899
:10251800B6F8D6000CF05DF8B6F8D8000CF059F80B
:10252800B6F8A2020CF055F896F89B020CF005F8E4
:1025380000200CF002F896F89C020BF0FEFF96F8CB
:102548001B020BF0FAFF96F846020BF0F6FF00208C
:102558000BF0F3FFB6F9E8310A2093FBF0F080B2F4
:102568000CF037F800F059BC7D2800F0A2852AD875
:10257800762800F0C1830AD8742800F011837528E2
:1025880040F0FF852F200CF021F8454EC2E2782854
:1025980000F0FE80C0F04A837C2840F0F2853E4E71
:1025A80008200CF013F8B6F8DC000CF012F8B6F8B6
:1025B800DE000CF00EF8B6F8E0000CF00AF8B6F8F9
:1025C800E20000F072BDA42800F0E08317D8962836
:1025D8007CD0A02800F00D847E2840F0D2852E4EB5
:1025E80003200BF0F3FF96F8CA010BF0A6FF96F84C
:1025F800CB010BF0A2FF96F8CC0100F0A7BDF128A3
:1026080000F0F980FE2800F0EF83F02840F0B9854B
:10261800214E04200BF0DAFFB6F8EC010BF0D9FFDD
:10262800B6F8EA0100F041BD03200BF0CFFF00200F
:102638000BF083FF01200BF080FF102000F086BD17
:102648000BF0C4FF02200BF078FF04200BF075FF9D
:1026580000F017BD06200BF0B9FF4C200BF06DFF02
:1026680055200BF06AFF58200BF067FF00200BF095
:1026780064FF7FE00C1D0020E40F0020902500205F
:10268800D39C0108642C0020FC9F0020EFBEADDE27
:1026980000ED00E00400FA059C260020F228002046
:1026A800477A0108F52F00205C2C002007200BF04A
:1026B8008DFFE7200BF041FFB64B58790BF03DFF3B
:1026C80000200BF03AFF042000F0EBBC0C200BF0CC
:1026D8007DFFB14B18880BF07CFF03F08DFA0BF0EF
:1026E80078FFAE4B1B68C3F3C000C3F380028000C1
:1026F80040EA4200C3F340021043C3F3401240EAE9
:10270800C20003F0100318430BF063FF0BF03AFE0E
:102718000BF068FF9F4B93F8740400F017BD12206C
:102728000BF054FF9E4B1B88B3F5806F8CBF4FF0A6
:10273800080A4FF0010A4FF000089A4B33F91800C5
:1027480090FBFAF008F1010880B20BF042FFB8F1F3
:10275800030FF2D1944E30880BF03BFF70880BF0DA
:1027680038FFB0880BF035FF00200BF032FF002057
:102778000BF02FFF002000F098BC8C4B13F80800DA
:1027880008F101080BF0D9FEB8F1100FF5D10EE5EC
:102798007020804E0BF01AFF4FF0000AB1464FF040
:1027A8000E0B0BFB0A9B0AF1010ABBF859010BF04F
:1027B80010FFBBF85B010BF00CFFBBF85D010BF0E1
:1027C80008FF96F85F010BF0B8FE96F860010BF071
:1027D800B4FE96F861010BF0B0FE96F862010BF0BA
:1027E800ACFEDBF863010BF0FDFEBAF1080F06F151
:1027F8000E06D4D1DBE47020664E0BF0E7FE06F13E
:10280800700A96F8E9000BF098FE96F8EA000BF0CB
:1028180094FE96F8EB000BF090FE96F8EC000BF0A7
:102828008CFE96F8ED000BF088FE96F8EE000BF0A3
:1028380084FE073696F8E8000BF07FFE5645E0D197
:10284800B5E410200BF0C2FE4FF00008584B13F807
:10285800080008F101080BF070FEB8F1100FF5D16F
:10286800A5E4544E3078400000F0FE000BF0AEFEB8
:102878004FF00008B2469AF800309845BFF497AC7C
:102888004D4B33F818000BF0A4FE08F10108F2E7ED
:102898004A4E06200BF09AFE30880BF09AFE70889C
:1028A8000BF097FEB6F904300A2093FBF0F02EE007
:1028B80004200BF08BFEF3E307200BF087FE404B60
:1028C8001888FF28A8BFFF20C0B20BF036FE3D4B8A
:1028D80018684FF6FF784045A8BF404620EAE070E8
:1028E80080B20BF076FE384B18880BF072FE294B3D
:1028F80093F81B22354B18683AB10A2358434045D0
:10290800A8BF404620EAE07001E000F30F0080B263
:10291800CBE3204E02200BF059FE96F88D020BF007
:102928000CFE96F88C0200F011BC02200BF04EFE53
:10293800274B1888B9E3274E0B200BF047FE336866
:1029480018780BF0FAFD336858780BF0F6FD4FF065
:10295800000BB246DAF800301E4E5B440BF1010B57
:1029680018790BF0EAFDBBF1030FF3D13368D8797E
:102978000BF0E3FD336898780BF0DFFD3368D87807
:102988000BF0DBFD336858890BF023FE3368187AA7
:10299800DCE300BF9C260020EE2F002098250020B5
:1029A800040000201A1A0020AE2100200410002084
:1029B8006C2200205C2C0020E8240020A8210020A4
:1029C800081D00202C1A0020E61A0020281A0020D2
:1029D800DC2400207C1200201E200BF0F7FDD04BD9
:1029E8001A6B1278022A4FF0000A984679D1D8F863
:1029F800303003EB8A0393ED080AB2EE048A20EE26
:102A0800080A12F0F5FA80F30800C0B20BF095FD41
:102A1800D8F83030DFEDC37A03EB8A0393ED0B0A65
:102A280020EE270A12F0E4FA80F30800C0B20BF097
:102A380084FDD8F83030DFEDBC7A03EB8A0393EDE0
:102A48000E0A20EE270A12F0D3FA80F30800C0B26B
:102A58000AF1010A0BF071FDBAF1030FC7D1BAF1FF
:102A6800070FD8F8303025D193ED110A20EE080A67
:102A780012F0BEFA80F30800C0B20BF05EFDD8F881
:102A8800303093ED120A20EE080A12F0B1FA80F302
:102A98000800C0B20BF051FDD8F8303093F84C3034
:102AA80000EE103AB8EE400A12F0A2FA80F30800DD
:102AB800C0B20DE0534458780BF03FFDD8F83030E1
:102AC8005344D87A0BF039FDD8F830305344587D48
:102AD8000AF1010A0BF031FDBAF10A0FBFD1FFF775
:102AE80066BBD8F83030534458780BF026FDD8F838
:102AF80030305344D87A0BF020FDD8F830305344A6
:102B08000AF1010A587D0BF018FDBAF10A0FE8D155
:102B1800FFF74DBB16F8010F00283FF448AB0BF048
:102B28000CFDF7E796F87524804B0C2101FB023366
:102B3800043693F838000BF000FD96F872040BF099
:102B4800FCFC96F873040BF0F8FC96F874040BF090
:102B5800F4FC5645E6D1FFF72ABB5A20744E0BF019
:102B680035FD06F15A0A96F8CA040BF0E6FC96F809
:102B7800C5040BF0E2FC96F8C6040BF0DEFC96F8F0
:102B8800C7040BF0DAFC96F8C8040BF0D6FC06363E
:102B980096F8C3040BF0D1FC5645E4D1FFF707BB08
:102BA8004FF0000A01264FF00009624B1B78994547
:102BB80033DA614B19F803E04FF0000B5B480C2344
:102BC80000F1300C03FB0BF3804613F80CC0F445FE
:102BD80007D10344586B11F05CFF84463EB9334675
:102BE80007E00BF1010BBBF11E0FE7D112E08244A5
:102BF80010E063450EDA0C2000FB0B80CDF80CC00A
:102C0800406B0293C05C0BF098FC029BDDF80CC093
:102C18000133EEE709F10109C7E7002E3FF4C7AA1F
:102C28005FFA8AF00BF0D2FC0026BCE7414E307800
:102C38000BF0CCFC4FF00008B2469AF800309845EB
:102C4800BFF4B5AA3C4B18F803E0002137480C2222
:102C580000F1300C02FB01F313F80C20724505D18A
:102C6800034493F838000BF068FC02E001311E2998
:102C7800ECD108F10108E0E708200BF0A7FC4FF0C1
:102C880001085FFA88F008F101080BF056FCB8F16A
:102C9800090FF6D1FFF78BBA10200BF097FC274BE2
:102CA800274E187800F002000BF047FC254B1878E7
:102CB8000BF043FC30680BF095FC70680BF092FC4D
:102CC800214B18880BF085FC204B18880BF081FCF1
:102CD800134B988EE9E105200BF078FC1C4B188803
:102CE8000BF077FC1B4B18880BF073FC0C4B93F81C
:102CF800360000F0010029E20BF000FC83461220A8
:102D08000BF064FCBBF1000F01D1134B03E0BBF1E6
:102D1800100F25D1114BD3F800A05E6822E000BF48
:102D2800E40F00200000C84200007A44487A0108F5
:102D38009C2600206425002065250020301A0020EC
:102D4800381A0020361A0020341A0020321A0020BF
:102D5800A81A0020AA1A0020E81A002090120020C1
:102D68000026B24658460BF0E8FB50460BF03AFCFA
:102D780030460BF037FCD64B986B0BF033FC002039
:102D88000BF027FC00200BF024FC7AE1D04E96F8DB
:102D98003C0080000130C0B20BF018FC96F83C00F3
:102DA8000BF0CBFB4FF00008B3469BF83C3098453E
:102DB800BFF4FDA9C74E16F808000BF0BEFB06F1DC
:102DC800100306F1300A13F808000BF0B6FB06F101
:102DD800200313F808000BF0B0FB1AF808000BF0FA
:102DE800ACFB08F10108E0E708200BF0EFFB00203E
:102DF800B8E40C200BF0EAFBB74B18680BF0F2FBB9
:102E0800B64B18680BF0EEFBB54B186849E1042087
:102E18000BF0DCFBB34B986843E196F80E020BF01D
:102E28008CFB96F812020BF088FB96F811020BF057
:102E380084FB96F8130289E1AA4E07200BF0C6FB23
:102E4800B6F816020BF0C5FBB6F818020BF0C1FB7A
:102E580096F81A020BF071FBB6F81C0225E1012066
:102E68000BF0B4FB9F4B587970E19E4E0C200BF091
:102E7800ADFB96F844020BF060FBB6F84E020BF07F
:102E8800A8FBB6F84A020BF0A4FBB6F84C020BF00C
:102E9800A0FB96F845020BF050FBB6F852020BF077
:102EA80098FBB6F8540200E18E4E08200BF08EFB1A
:102EB80096F8A0020BF041FB96F8A1020BF03DFB3F
:102EC800B6F8A2020BF085FB96F8A4020BF035FBCE
:102ED800B6F8A6020BF07DFB012037E198F8003028
:102EE8009B4506F10206BFF462A916F8020C0BF026
:102EF80024FB16F8010C00EB800000EB800000F2C8
:102F0800EE2080B20BF065FB0BF1010BE6E7012028
:102F18000BF05CFB734B93F8460217E108200BF0AB
:102F280055FB4FF000086F4B434408F1010893F834
:102F38003C020BF002FBB8F1080FF4D1FFF737B9E8
:102F4800684E10200BF042FB70790BF0F6FAB0686F
:102F58000BF048FB96F844020BF0EFFAB6F8CE01F6
:102F68000BF037FBB6F8D0010BF033FBB6F8D20103
:102F78000BF02FFBB6F816020BF02BFBB6F8180275
:102F880093E0534BDFF85C8193F87D00C0EBC00001
:102F9800C0B20BF01BFB08F1200A98F8AA02002324
:102FA800514AD25C904200F0D5800C33302BF7D1D7
:102FB80008F10808D045F0D1FFF7F9B8B6F85C0376
:102FC8000BF007FB96F85E030BF0B7FA043696F899
:102FD8005B030BF0B2FA5645F0D1FFF7E8B8E020F2
:102FE800404E0BF0F3FA06F1800AB6F8DE0200F064
:102FF8003F000BF0EEFAB6F8DE02C0F386100BF0D5
:10300800E8FA96F8DC0200090BF097FA96F8DC0269
:1030180000F00F000BF091FA043696F8D9020BF085
:103028008CFA5645E1D1FFF7C2B80D200BF0CEFA65
:1030380000200BF082FA00200BF0D4FA2DE0294E84
:1030480004200BF0C3FA01200BF077FA96F821055B
:103058000BF073FA96F81F050BF06FFA96F8200537
:1030680074E00B200BF0B2FA00200BF066FA002097
:103078000BF063FA00200BF060FA0EE001200BF071
:10308800A5FA002062E0194B13F8080008F10108BE
:103098000BF053FAB8F10B0FF5D100200BF0A2FAA0
:1030A80000200BF09FFAFFF782B80BF092FAFFF7B7
:1030B8007EB80C4E03200BF089FA96F81E020BF02E
:1030C8003CFA96F81F020BF038FA96F820023DE019
:1030D800E40F002021100020ACF7FF1FB0F7FF1FFE
:1030E800B4F7FF1F9C260020682C0020FF9A0108D7
:1030F8005CD9DB2873D040F29584F22800F0FE8476
:1031080040F22685F32840F06A860BF0F7F9FF288D
:103118008246CF4E40F0A4854FF0000806F18400A7
:103128004146602286F8828011F06FFC8DF813808A
:103138009DF8133096F8E620DFF814839A4200F2DF
:103148003B8501200BF042FA98F882000BF0F5F964
:10315800FFF72DB80BF0F1F9B8F8AC020BF039FA1B
:1031680098F8AE020BF0E9F998F8AF020BF0E5F920
:1031780098F8B1020BF0E1F998F8B0020BF0DDF91C
:1031880016E7512830D1B24B93F88030012B26D85E
:103198000BF0B4F9AF4E86F821050BF0AFF986F8BD
:1031A8001F050BF0ABF986F8200518E0CD2800F0D4
:1031B800538240F25B82D02800F0988340F2A283C9
:1031C800D12800F0E883D22840F02786A24B1B784C
:1031D80003F0040303F0FF08002B00F0188400201C
:1031E8000BF0F4F9FEF7E3BF00F22D82352827D162
:1031F8000BF084F90E28824602D90CF05DFFEEE749
:103208000BF07CF90328F8D8924B4FF0060808FB1E
:103218000A3888F8CA040BF071F988F8C5040BF06D
:103228006DF988F8C6040BF069F988F8C7040BF043
:1032380065F988F8C8040BF061F988F8C904CEE785
:1032480000F2E0802B2804D10BF058F9814B58711B
:10325800C5E76DD8252807D17E4B00229A600BF070
:1032680063F906F03DFABAE73DD8232840F0D58542
:103278000BF044F913288046BFD80BF03FF9002221
:1032880076490C23534301EB030E9EF838E086453C
:1032980025D1704E0B4408F58E7806EB880893F814
:1032A800303088F805300BF029F988F806000BF063
:1032B80025F988F807000BF021F9654B68491A6B66
:1032C80088F8080006F1D4030B60664B00201A60EA
:1032D8000CF0B7FD644B80F0010018707FE70132F5
:1032E8001E2ACDD189E727280DD10BF013F9594EA5
:1032F800A6F8CE010BF00EF9A6F8D0010BF00AF9EA
:10330800A6F8D2016BE7292840F087850BF002F96F
:10331800504EA6F816020BF0FDF8A6F818020BF0AE
:10332800EDF886F81A020BF0F5F8A6F81C0256E735
:103338002F2800F05C8525D82D2840F06E850BF0ED
:10334800DDF8444E86F844020BF0E4F8A6F84E0285
:103358000BF0E0F8A6F84A020BF0DCF8A6F84C02ED
:103368000BF0CCF82B6886F845025B79082B7FF6C2
:1033780036AF0BF0CFF8A6F852020BF0CBF8A6F850
:1033880054022CE7312834D10BF0B8F81F288046B6
:103398003FF633AF2B685B79082B7FF42EAF0BF029
:1033A800B9F82C4B08F1B60803EB880800F03F0089
:1033B800A8F806000BF0AEF8B8F80630800100F463
:1033C800FE501843A8F806000BF098F8000188F89A
:1033D80004000BF093F898F8043000F00F0018433D
:1033E80088F804000BF08AF888F8050007F090FFC9
:1033F800F5E6332840F011850BF080F8154B83F87B
:103408004602ECE641280DD14FF000080BF076F8A3
:10341800104B434408F10108B8F1080F83F83C0247
:10342800F4D1DCE67CD8392820D10BF067F8094EB6
:1034380086F80E020BF062F886F812020BF05EF8BE
:1034480086F811020BF05AF886F81302C7E600BF97
:10345800E40F00209C260020F52F0020487A010860
:1034680080120020841200200200002036D837285D
:1034780040F0D3845B794FF00708B3FBF8F2C2EB56
:10348800C2029A1A12F0FF0F7FF4B7AEB3FBF8F836
:1034980008F1FF385FFA88F8B8F1FF0F3FF49FAEE4
:1034A8000BF02CF85FFA80FB4FFA8BF00BF044FB23
:1034B800064600283FF4A1AE80F800B00BF02AF8C9
:1034C80070800BF01BF830710BF018F870710BF06E
:1034D80015F8F0710BF012F8B071D9E73C2812D149
:1034E800CB4B1E6B0BF00AF818B10228A8BF0220BC
:1034F80000E00120C0B20228C64B14BFC64AC74A22
:1035080030701A606BE63E2840F087840AF0F6FFB8
:10351800C34E86F88D020AF0F1FF86F88C025EE64B
:103528004A281ED10AF0F6FFBE4BBD4A1B689842D6
:103538004FF0010307D0B0F57A7F82F8D73102D275
:1035480008237D2101E04FF47A71B0FBF1F080B2DD
:1035580018B18342A8BF034600E0012382F8D8319E
:103568003DE62CD8432822D10AF0C8FFAC4E0023F0
:10357800B36070710AF0D8FF06F0B2F80AF0BEFF27
:1035880086F844020AF0C6FFA6F8CE010AF0C2FF88
:10359800A6F8D0010AF0BEFFA6F8D2010AF0BAFFD9
:1035A800A6F816020AF0B6FFA6F8180217E644288D
:1035B80040F03384964B012283F881200FE64C2893
:1035C80017D10AF09BFF964E86F8A0020AF096FFE4
:1035D80086F8A1020AF09EFFA6F8A2020AF08EFF62
:1035E80086F8A4020AF096FFA6F8A6020AF086FF5B
:1035F800F5E54E2840F011840AF080FF1128824634
:103608003FF6FBAD864E0AF079FF0AF5947A06EB91
:103618004A03B04698710AF07DFF40F2ED239842C4
:1036280005DD40F6CA039842A8BF184601E040F2FB
:10363800EE2008EB4A08A0F2EE20192390FBF3F0E5
:1036480088F80700CBE5D3287FF452AD0AF062FF73
:103658006F4BA3F87E00C2E5734B1B785A073FF502
:10366800BEAD724B4FF4C8721A80B8E5C92825D18F
:103678000AF044FF6E4B1A7810B142F0020201E0E2
:1036880022F002021A700AF039FF6A4B6A4E18706B
:103698000AF04AFF30600AF047FF70600AF03AFF0C
:1036A800664B18800AF036FF654B594A188092F825
:1036B800363043F0020382F8363090E52ED8C82819
:1036C80040F0AB8393F805804FEA5808B8F1120F21
:1036D8003FF693AD4FF0000AC24507D20AF01AFF31
:1036E8000DAB23F81A000AF1010AF5E74246002358
:1036F800434507DA0DA931F81300524921F81300A0
:103708000133F5E7122A05D04E4B002123F8121099
:103718000132F7E74C4B01221A7060E5CA2840F0E5
:1037280099803B4A136B1978022992465DD103F1BF
:10373800200B03F12C080AF0E1FE07EE900AF8EEE0
:10374800677AB2EE048AC7EE887AEBEC017A0AF05F
:10375800D5FE07EE900A9FED3D7AF8EE677AC7EE40
:10376800877ACBED027A0AF0C9FE07EE900A9FED40
:10377800387AF8EE677AC345C7EE877ACBED057AD3
:10378800D9D14FF00308B8F1070FDAF8306018D133
:103798000AF0B4FE07EE900AF8EE677AC7EE887A68
:1037A800C6ED117A0AF0AAFE07EE900AF8EE677ADB
:1037B800C7EE887AC6ED127A0AF0A0FE86F84C00A9
:1037C8000DE00AF09BFE06EB080B8BF801000AF0EF
:1037D80095FE8BF80B000AF091FE8BF8150008F1A6
:1037E8000108B8F10A0FCED1F9E4984603F10A0AA4
:1037F8000AF084FE08F8010F0AF080FE88F80A0033
:103808000AF07CFED04588F81400F1D1E7E400BF47
:10381800E40F00201003002081D40008EDD7000831
:103828009C260020DC240020F52F002040120020D8
:10383800301A0020361A0020381A0020341A0020C6
:10384800321A002050240020452600200000C842DB
:1038580000007A44CC2840F0E0825B79092B7FF69F
:10386800CCACCB4ED6F800A00AF048FE8AF800008F
:10387800D6F800A00AF042FE8AF801000AF03EFEDF
:1038880033686428A8BF642018710AF037FE3368CB
:103898006428A8BF642058710AF030FE3368FF28F6
:1038A800A8BFFF2098710AF029FED6F800A0642866
:1038B80028BF64208AF807000AF020FE8AF8020070
:1038C800D6F800A00AF01AFE8AF80300D6F800A07D
:1038D8000AF020FE2B68AAF80A005B790A2B7FF60B
:1038E8007EAC36680AF00AFE307278E4A94B1B7881
:1038F80059073FF574AC0CF023FC05F023FF05F0E5
:10390800BBFF6CE4CE280AD1A24B1B785B073FF5BE
:1039180066ACA14A137843F0040313705FE4CF2820
:1039280040F07B820AF0F6FD6FF4AF6683199BB214
:103938009A4EC62B98BFA6F84A020AF0EBFDA6F8E5
:10394800D4000AF0E7FDA6F8D6000AF0E3FDA6F8D1
:10395800D8000AF0DFFDA6F8A2020AF0CFFD86F82B
:103968009B020AF0CBFD0AF0C9FD86F89C020AF01A
:10397800C5FD86F81B020AF0C1FD86F846020AF06A
:10398800BDFD0AF0C7FD00EB80004000A6F8E80185
:103998000AF0B4FD4CE50AF0B1FD02900AF0C4FD4E
:1039A80082460AF0C1FD83460AF0BEFD80460AF051
:1039B800B1FD0AF0AFFD0AF0A1FD029B784E93B964
:1039C800784B102083E8000C05F062FE724A1378E9
:1039D80043F001031370B8F1000F3FF400ACC6F8D0
:1039E8003880FFF7FCBB102B7FF4F9AB6E4B83E8F4
:1039F800000CB8F1000F01D0C6F838806A486B4B4C
:103A08000222011D1A7007F093F8FFF7E8BB0AF0CD
:103A180075FD624B012883F874047FF66EAF83F856
:103A280074846AE7D6280DD14FF000080AF072FDB9
:103A38005F4B23F8180008F10108B8F1080FF5D119
:103A4800FFF7CDBB33D8D42840F0E7815B790F2B43
:103A58007FF4D3AB0AF052FD072882463FF6CDAB80
:103A68000AF058FD4D4B4FF00E0808FB0A38A8F82D
:103A780059010AF04FFDA8F85B010AF04BFDA8F8C0
:103A88005D010AF03BFD88F85F010AF037FD88F810
:103A980060010AF033FD88F861010AF02FFD88F80B
:103AA80062010AF041FDC8F86301FFF798BBD92805
:103AB80012D10AF02FFD394EA6F8DC000AF02AFDD3
:103AC800A6F8DE000AF026FDA6F8E0000AF022FDBE
:103AD800A6F8E200FFF783BBDA2840F09E810AF0DF
:103AE8000DFD2E4E86F81E020AF008FD86F81F020C
:103AF8000AF004FD86F82002FFF771BB0AF0FEFC0D
:103B08000F2880463FF679AB0AF0F8FC294BC8EB42
:103B1800C808984488F801000AF0F0FC88F8020008
:103B28000AF0ECFC88F803000AF0E8FC88F80400C6
:103B38000AF0E4FC88F805000AF0E0FC88F80600C2
:103B48000AF0DCFC88F807000AF030FAFFF747BBF8
:103B5800DC280ED10AF0D2FC104E86F8CA010AF011
:103B6800CDFC86F8CB010AF0C9FC86F8CC01FFF73A
:103B780036BBEF2840F051810AF0CCFC074EA6F87E
:103B8800EC010AF0C7FCA6F8EA01FFF728BB00BF62
:103B98007C120020F52F0020301A00209C260020DF
:103BA800E40F0020E81A002090120020881200205C
:103BB800101D0020842700209DF8133008EBC30354
:103BC80093F8E930D80743D59DF8133008EBC303C1
:103BD80093F8E820C04B33F91230002B38DD9DF8FC
:103BE800133098F882A008EBC3034FEACA01D3F850
:103BF800EC3058689DF8133008EB010E08EBC30849
:103C0800CEF88400D8F8EC301A89AEF88A2092B23F
:103C18004FF0000E012303FA0EF3134005D10EF105
:103C2800010EBEF1100FF5D100E0734631440AF1E0
:103C3800010AA1F8883004238DF836300DA9012334
:103C4800ADF834208DF8373001F0BCFE86F882A03C
:103C58009DF813300133DBB28DF81330FFF768BAE3
:103C680096F882309842BFF4C8AA00200AF0AEFC49
:103C78000AF074FC2B68186808F0B2FFD8F8000046
:103C88000AF01CFC0BF0D8F972B6DFF854824FF436
:103C980000624FF48066A8F828204FF0010BA8F8BE
:103CA80028604046ADF834200DA904228DF836204E
:103CB8008DF837B001F086FE40460DA98DF836B074
:103CC8008DF837B0ADF8346001F07CFE834A4FEAD6
:103CD800CA0A5244D2F88410B2F888E00868B2F8E8
:103CE8008A200EFA0BFE0BFA0EFB4BEA0000086066
:103CF8008A61C8F81860B8F810301905FBD4DFF8E5
:103D0800DC8108EB0A030122D3F88400B3F888E0C9
:103D180001684FEA4E0E02FA0EF20A430260D3F827
:103D28008420B3F88A106E4B11854FF480621A858F
:103D38006C4B1E689A88B2619A689B89138540F615
:103D4800055BDFF89CC1BCF810301A0505D4BBF13F
:103D5800000FF6D00BF1FF3BF3E704238161ADF8C8
:103D680034108DF836300DA90123CDF808C08DF830
:103D7800373001F027FE5B4BDDF808C09A68998957
:103D880091619988BBF1000F17D0D3F800E054482F
:103D9800038A1B05B3D508EB0A03D3F88420B3F8CC
:103DA8008A30128A13424FF4806315BF83610385FA
:103DB800CEF81810AEF82810E9E71B684FF48062B7
:103DC800CCF81820996162B60A200BF016F80CF0AE
:103DD8004FF82B68F32283F84920FFF700BAFA2836
:103DE8001BD1414B1B785E077FF587AD15E0DFF8E7
:103DF800188108F1400A0AF08DFBA8F85C030AF064
:103E08007DFB88F85E030AF079FB08F1040888F85E
:103E18005B03D045EFD1FFF7E2B90CF04DF9FEF79F
:103E2800C6B90C2803D131480AF0B2FC4AE00A2886
:103E380001D00D287FD12E4D2E480AF0A9FC284626
:103E4800232110F018FE08B1401B206023687BB3C3
:103E58005A1EA95C202901D11346F8E7244A236099
:103E68000021D154244B254FD3F80090D7F800A057
:103E78001F4E504610F00DFE05462A463046514664
:103E880010F010FE1E4A20B9735D4B445B785B0747
:103E980003D010379742E9D306E0974204D2681C52
:103EA800FB683044984702E016480AF071FC00238A
:103EB8000F4823600021302210F0A7FD019B1B78DA
:103EC800002B44D008F07EFEFEF7AAB80C28AAD032
:103ED8007F281ED1FEF7A4B86C220020E40F002032
:103EE8000004004840250020F52F0020A89C010868
:103EF8002C1D002025AA01081C030020507C010865
:103F0800007E0108B39C01089C2600202F2B3EF65A
:103F180087A8A0F12002D2B25E2A3EF681A813B982
:103F280020283EF47DA85A1C22600B4AD0540AF07F
:103F380062FBFEF775B87F28E8D1013B064A0748BF
:103F480023600021D1540AF023FCFEF769B817B0AA
:103F5800BDEC028BBDE8F08F2C1D0020CF9C010822
:103F68002DE9F04FA34FA44C3A6802F59C432DED80
:103F7800028B20332360A14B1E7889B0D6B1A049AB
:103F880009688A4240F20881013E1E7004E1DFF8A8
:103F980090829C48D8F80030072D98BF595D9A4BFD
:103FA80088BF29461B689847032D09D904EB4505A6
:103FB8000136A8800AF054F9F5B28542E7D320E02B
:103FC800D8F8002005F10E0302EB8303D9881A897B
:103FD8000028EBD04FF47A73401A5843531A90FBD9
:103FE800F3F040F6C90300F57A70984205DC40F218
:103FF800EE239842B8BF184601E040F6CA0080B2E6
:10400800D4E7824B824E1B68D6F8008042F2010A40
:1040180003EA0A0ABAFA8AFA4FEA5A1A7D4BBAF13F
:10402800000F05D194F828201A707B4A5178117036
:104038001B782BB1784B93F8009089F0010900E0C8
:1040480099460F23DFF8F0B184F8293000250AF0EB
:1040580007F9854267DA6B00B9F1000F03D06F4AA0
:1040680032F8150000E048466D4ADFF8D0C1116803
:10407800CA8A82424FEA850E6A4A02D8098B81426F
:104088001CD25CF80E005C49804501D2D05A19E078
:10409800E8B20392029301910AF0FAF8032D029B09
:1040A800039A0FDC01994FF0010E91F829C00EFA1E
:1040B80005FE2CEA0E0E81F829E003E008F596715A
:1040C8004CF80E10BAF1000F28D194F8BC10032256
:1040D800B1FBF2F202EB42028A1A03EB050E5EFA1A
:1040E80082F204EB4202508594F8BD202AB90229D5
:1040F80013D9414A012182F8BD10BBF800203BF8D2
:10410800020C1044BBF802201044474A80B2D05237
:1041180000B2032290FBF2F080B2424AD05201353D
:104128000BF1060B93E794F82920404BA2F10F01FD
:104138004A424A4184F8D6206AB13D4A126852017F
:1041480009D43268D9689A60521AC82A1FD901223C
:1041580083F821201BE0304A012151701170326828
:104168009968DA605B68521A9A4282BF2F4B002224
:1041780083F8212000250AF073F8854207DAE8B2AF
:104188000AF086F8274B23F815000135F3E794F871
:10419800BC30013384F8BC301C4B1A6812F4805FC1
:1041A800984605D0224B1B68DE0701D40CF043FF6C
:1041B8001B4B39681868837A002B41D0013B194D95
:1041C800027B35F813301AB1C3F53B6308339BB251
:1041D8001BB2A3F57A73B3F57A7FA8BF4FF47A734D
:1041E80023EAE37307EE903A9FED127AF8EEE77A46
:1041F8005FE000BF8C2F00203C110020102500201C
:104208000C2500205C2C0020B0020020E4240020B3
:1042180014250020441E002000000020401100202A
:10422800E0240020E8240020FA11002018250020AE
:104238006025002000007A4468110020B011002099
:10424800D8F80020150440D5D4F8D820A64E8A1AEC
:10425800002A3ADB01F59C422032C6F8D820A34A4E
:10426800C07A5579A24A32F8152096F8DC50013503
:1042780092B292FBF0F205F00F0086F8DC003044B1
:1042880080F8DD201A469B48185C01330244102B45
:1042980092B2F8D112B292FBF3F31BB2642BA8BF0F
:1042A800642323EAE37307EE903A9FED937AF8EEDE
:1042B800E77AC7EE877A914A9FED917A67EE877A17
:1042C800FCEEE77A17EE903A1380D8F800308D4F5D
:1042D80013F4807F00F0EA808B4BDFF8309299422C
:1042E80005D999F8022012B9012289F8022099F813
:1042F8000220002A00F0DA80844A3E7892F82150A1
:104308006A1E55425541824A1168002DC1F38063E7
:10431800C6F380060193924614BF4FF0000B4FF08E
:10432800030B99F82020052A00F2BA80DFE802F092
:10433800034D527584A1002E3AD0D4F8F000B4F899
:10434800F4100AF0D5FC012809D17249724A0968AB
:104358001268C988642000FB0122C9F81020019B5B
:104368006BB16C4A126812794AB10DF003FB032253
:1043780089F820204FF47A72C9F81C20D1E7002D63
:1043880040F08E80644AD9F8101010685F4A88425D
:104398000AD902920DF0EEFA029A032182F820104F
:1043A80040F6B831D161BCE7012182F82010B8E7A6
:1043B800019B4FF4806013B105F07AF901E005F034
:1043C80067F90022C9F810206AE0002D46D10DF0E7
:1043D800D1FAA6E725B1052289F82020012000E0BE
:1043E800284666B1D4F8F020D1894C4A1180518012
:1043F8009180484909684988D1804FF0020B464AA4
:104408001168D9F81420914201D8002E45D147F2FD
:104418003052C9F81C20032221E03A7842F0020207
:104428003A700CF008FE3C4AD9F81C1012680A448D
:10443800C9F81820042212E0374A9DB11168D9F84A
:10444800182091422CD9364A92781AB9DAF8002005
:10445800D30725D43A7822F002023A70052289F867
:1044680020205EE71268D9F81C100A44C9F8182001
:1044780016E02849284A09681268C988642000FBA0
:104488000122C9F810204FF48060002289F820200A
:1044980089F8032005F0FCF843E700287FF441AFD2
:1044A800BBF1000F02D058460AF0DEFD1D4DB5F8ED
:1044B800E21005F50F700AF01BFC83461748B5F8A3
:1044C8004A32B0F90220039003F10B0191422BDB31
:1044D8000B3B934228DCB0F90020914224DB934245
:1044E800CCBF0023012320E03C110020601C0020E9
:1044F800701C0020191200200000C842E61A002093
:1045080000C07F44F52F0020404B4C0018250020A8
:1045180060250020CC2F002014250020E82400204E
:10452800000000209C2600200023BBF1000F14D1BE
:10453800AB4A126816010CD4AA49AB4BC1F800B0BB
:1045480000221A60C1F804B05A60C1F808B09A6035
:1045580006E013B1A54A137002E0A44B00221A70BA
:104568003B78580736D5D8F80030D90632D5A04B55
:104578001B78DA062ED49F4B9B7893B195F88D3231
:10458800BBF1000F15D17BB19B4B1A68D4F8F830FA
:104598009B1A002B08DA0CF04EFD984B83F8FCB000
:1045A80018E0BBF1000F0DD110200AF05DFD0123CA
:1045B8000EE03BB1904A12684FF47A7101FB032375
:1045C800C4F8F83094F8FC3023B10AF035FD002324
:1045D80084F8FC30002295F88BA295F88C12B5F877
:1045E8004C62B5F84EE21346039830F912009B0866
:1045F800B042C4BF63F07F03DBB201327045B8BF7D
:1046080043F04003042AEFD194F8FD207B489A42F6
:1046180005D190F8FE20F92A04D8013200E00022E2
:1046280080F8FE2084F8FD30724B744A98786C4EFE
:10463800994628BB3368DB070AD582F8FF00BBF12F
:10464800000F1DD13B78DB071AD50CF05DFB17E096
:104658003B78580714D56A4B1B788BB1694BDB78CC
:1046680073B992F8FF300133DBB2032B82F8FF30C5
:1046780006D911B10CF0DFFC02E0BBF1000FF9D054
:1046880094F8FE30DFF874B1142B7DD199F802301C
:104698001AF1000A18BF4FF0010A4BB39BF8FD301E
:1046A8005F2B0FD13B7803F0040303F0FF0213B133
:1046B8000CF0C1FC06E00B2001920AF0D5FC019A2F
:1046C8008BF8FE20BAF1000F12D094F8FD307D2B44
:1046D8000ED13B7803F0040303F0FF0B13B10CF089
:1046E800AAFC05E00B200AF0BFFC444B83F8FEB09F
:1046F8003B7803F0040303F0FF01002B44D194F846
:10470800FD303E4A572B0AD13F4B4FF47A721A803C
:10471800D8F800301B0637D506F0B6FA34E0D8F8DA
:104728000000400717D55A2B15D192F800312BB14C
:10473800012382F8001182F8013125E092F8023154
:1047480083F0010382F802310BB10C2000E00D2048
:104758000AF08AFC18E05D2B00F0C0845B2B00F0A7
:10476800BF845E2B00F0BE84562B01D105F046FABB
:1047780099F80230002B00F0848494F8FD306F2BF8
:1047880040F079840CF0C0FAD8F800305A074CD5BC
:1047980094F80231194A93B13B785B070FD5039B14
:1047A800B3F90610B5F84C32994208DD336813F0B6
:1047B800010302BF3221A2F8061182F802313368E0
:1047C800D80323D594F808210C4B2AB993F8002173
:1047D80012B93222A3F80621012384F8083124E013
:1047E80060250020B82100203C220020C4210020A0
:1047F800301A002000000020142500203C11002061
:10480800441E002018250020E82F002094F80031CD
:10481800B54A53B13B7803F0040303F0FF0123B911
:10482800012382F8001182F80131DFF8DC920023BD
:10483800336009F1500A99F8002099F8013019F805
:10484800010C9A420BD249460AF018FA38B119F805
:10485800022C012303FA02F233681343336009F18F
:104868000409D145E7D1A14B1B785BB1A04BDFF818
:104878009CB21A68DFF898A212F0020F994640F02D
:10488800FF82F6E29B4E06F15A093278737816F8E1
:10489800010C9A4225D231460AF0F0F908B3B378F0
:1048A80096F804E0944A96F803A08F480C21013B3F
:1048B80001FB0E4103EB43031344D1F810219A4244
:1048C8000FD0C1F81031002390F83C21C1F8143101
:1048D800012303FA0EF322EA030381F80CA180F8FE
:1048E8003C3106364E45D0D1844BD4F840611B6824
:1048F8000493834BDFF81CB21B78059300230193C4
:10490800DBF80030002B00F0AB821A780292002A04
:1049180000F0A682DBF8042004998A1A002A0CDB2E
:1049280001F5FA720199CBF8042001228A4094F823
:104938003C1121EA020284F83C21059A002A00F081
:104948008F8259781BF8042C002940F081820432A8
:10495800D2B2039931F912106A4AB2F84A2202F126
:10496800C800814202DD93F802A015E0C83A9142DE
:1049780003DA9978C1F1000A0EE0019A0123934005
:1049880094F83C2122EA030384F83C31049B03F5A4
:10499800FA73CBF8043063E294F83C31019A13417E
:1049A800D90700F15D82BAF1000FCCBF02200120C7
:1049B8000AF094FB029BDFF83091013B132B00F2C5
:1049C8004782DFE813F01400250037004A0063002F
:1049D8006A00EC004F01B601E401120245024A00E8
:1049E80059006A00EC004F01BE002101860196F8CB
:1049F8000090D144B9F1FA0FA8BF4FF0FA0929EA9B
:104A0800E979304686F800900AF01EF901200FE097
:104A180096F80190D144B9F1640FA8BF4FF064092A
:104A280029EAE979304686F801900AF00DF9022062
:104A380049460BE2F3789A44BAF1640FA8BF4FF0E5
:104A4800640A2AEAEA7A86F803A03046D9F84411BB
:104A58000AF0B0F803205146F8E17179514464290D
:104A6800A8BF642121EAE17171710D200AF070F983
:104A7800029B0D2B00F0EC81317951446429A8BFC9
:104A8800642121EAE17131710E20DFE1B1795144ED
:104A980081F30801B1710520D8E1D9F848311A78B5
:104AA800022A3FD107EE90AAB8EEE70ADFED1B7A9B
:104AB80093ED097A80EE270A30EE070AB5EEC00AB0
:104AC800F1EE10FA07D4B4EE670AF1EE10FAC8BF97
:104AD800B0EE670A01E09FED120A83ED090A0F2084
:104AE8000AF020F929E000BF3C110020F12F002036
:104AF80060250020622B0020E07B0108142500209F
:104B0800441E00209C260020132B002098250020FE
:104B18005C2500204C12002000007A440000C842A6
:104B28000000000099785144C829A8BFC82121EA8B
:104B3800E17199700F200AF00BF9029B0F2B00F01E
:104B48008781D9F848311A78022A1ED107EE90AA2F
:104B5800B8EEE78A5FED0F7A93ED080A88EE278AA8
:104B680038EE000AB5EEC00AF1EE10FA07D4B4EE3A
:104B7800670AF1EE10FAC8BFB0EE670A01E01FED50
:104B8800180A83ED080A122054E159785144C829BB
:104B9800A8BFC82121EAE1715970122056E1D9F85D
:104BA80048311A78022A20D107EE90AAB8EEE70A0F
:104BB8005FED267A93ED0C7A80EE270A30EE070A2D
:104BC800B5EEC00AF1EE10FA07D4B4EE670AF1EEBA
:104BD80010FAC8BFB0EE670A01E01FED2F0A83ED97
:104BE8000C0A10200AF09EF80AE0197B5144C829E3
:104BF800A8BFC82121EAE171197310200AF0A8F8AA
:104C0800029B102B00F02481D9F848311A78022A27
:104C18001ED107EE90AAB8EEE78A5FED407A93EDD1
:104C28000B0A88EE278A38EE000AB5EEC00AF1EEC4
:104C380010FA07D4B4EE670AF1EE10FAC8BFB0EE66
:104C4800670A01E01FED4A0A83ED0B0A1320F1E021
:104C5800D97A5144C829A8BFC82121EAE171D9727B
:104C68001320F3E0D9F848311A78022A22D107EE46
:104C780090AA1FED570AF8EEE77A87EE800AD3ED7F
:104C88000F7A30EE270AB5EEC00AF1EE10FA09D411
:104C98005FED5E7AB4EE670AF1EE10FAC8BFB0EEC7
:104CA800670A01E01FED620A83ED0F0A11200AF07E
:104CB80039F80AE0997D5144C829A8BFC82121EADA
:104CC800E171997511200AF043F8029B112B00F04D
:104CD800BF80D9F848311A78022A20D107EE90AA65
:104CE8001FED730AB8EEE78A88EE008A93ED0E0A84
:104CF80038EE000AB5EEC00AF1EE10FA09D45FEDFD
:104D0800797AB4EE670AF1EE10FAC8BFB0EE670A16
:104D180001E01FED7D0A83ED0E0A14208AE0597D1B
:104D28005144C829A8BFC82121EAE1715975142046
:104D38008CE0D9F848311A78022A1ED107EE90AAD9
:104D4800B8EEE78A5FED8B7A93ED0A0A88EE278A38
:104D580038EE000AB5EEC00AF1EE10FA07D4B4EE48
:104D6800670AF1EE10FAC8BFB0EE670A01E01FED5E
:104D7800940A83ED0A0A09205CE0D9785144C829CD
:104D8800A8BFC82121EAE171D97009205EE0D9F8ED
:104D980048311A78022A1ED107EE90AAB8EEE78A9F
:104DA8005FEDA27A93ED0D0A88EE278A38EE000AA5
:104DB800B5EEC00AF1EE10FA07D4B4EE670AF1EEC8
:104DC80010FAC8BFB0EE670A01E01FEDAB0A83ED29
:104DD8000D0A0A202EE0597B5144C829A8BFC821D2
:104DE80021EAE17159730A2030E0D9F848311A787C
:104DF800022A22D107EE90AA1FEDB90AB8EEE78A77
:104E080088EE008A93ED100A38EE000AB5EEC00A63
:104E1800F1EE10FA09D45FEDBF7AB4EE670AF1EE4D
:104E280010FAC8BFB0EE670A01E01FEDC30A83EDB0
:104E3800100A0B2009F076FF0AE0D97D5144C829F1
:104E4800A8BFC82121EAE171D9750B2009F080FFBC
:104E5800019A0123934094F83C21134384F83C3190
:104E6800019B0133042B01930BF10C0B7FF448AD2C
:104E7800FCE4D8F80030DA050FD5B94BDB7863B11C
:104E8800DBF800309B0708D5BAF8003013F00106AC
:104E980008D1012004F00CFC04E0012004F0F8FB28
:104EA800012300E00023D9F8002056070BD553B1A1
:104EB800012004F0EDFBBAF80030980706D4022070
:104EC80004F0F6FB02E0022004F0E2FBA54BBAF87E
:104ED80000609A689B8916F0030F14BF13859361CD
:104EE800DBF80030990609D4D9F800301A0540F1EA
:104EF80090804FF4807004F0DBFB8EE09A4B1B78B7
:104F08009B0751D5994B1B78042B4DD9D9F8003004
:104F180013F4007B06F010060DD0002E38D11020B7
:104F280004F0C6FB202004F0B3FB9148011D05F0F6
:104F3800FFFD022328E0B6B22EB1102004F0A8FB32
:104F4800012684F84CB1D9F80030580514D5D4F8A6
:104F5800503188495A89B1F90030DFF81CB2002B6A
:104F6800B8BF5B42934207DAB1F90230002BB8BFF1
:104F78005B429342C0F2DB80BAF80030990608D54C
:104F8800202004F085FB002384F84C31012600E042
:104F9800002694F85C31A3B90E200AF065F8764B28
:104FA800012283F85C210CE016F0300F9CD0102011
:104FB80004F06EFB202004F06BFB002384F84C31D6
:104FC80001E0002E90D06D4B002003F1280E03F174
:104FD80050066B4A002122F810106A4A596022F8DC
:104FE80010100432CEF8041022F8101000221A60B3
:104FF8009A60CEF80020CEF8082032607160B26066
:1050080014330EF1140E143600287FF46DAF01200E
:10501800DFE74FF4807004F03BFB6B79082B01D07D
:105028000E2B02D1402004F033FBD8F800305A058B
:1050380019D595F8CC321BB93B7813F0040F03E06F
:10504800D9F8003013F4002F09D04F4B00221A7002
:105058003C200AF0FDFF30B109F030FAF8E706F01D
:105068000FF80AF005FF012384F8E03109B0BDEC20
:10507800028BBDE8F08FBAF1000F02D07E2B3FF40F
:1050880081AB94F8FD30972B06D13B4B4FF4C87297
:10509800A3F80421FFF778BBA72B06D1324A13786F
:1050A80043F004031370FFF76FBB0022BB2B07927A
:1050B80001D1022303E0B72B04D14FF6FE73ADF8FC
:1050C8001E301FE0BE2B01D1022304E0BD2B7FF46C
:1050D8005BAB4FF6FE73ADF81C3013E0012002E025
:1050E800022000E003205FFA80F909F1FF3385F818
:1050F800743404F027FB04F0BFFB484609F0EEFFC8
:10510800FFF742BBBDF81C20B5F8EA311344A5F8F7
:10511800EA31BDF81E20B5F8EC311344A5F8EC319E
:1051280004F06CFD002384F8FE30FFF72DBBBAF8BD
:1051380000309B063FF52DAF202004F0B9FA134B41
:105148000BF5AA701A685B68CBF854210BF5AC71A3
:105158000126CBF8583105F0EBFC8BF84C6118E7C9
:105168001825002040250020301A0020361A00207B
:10517800E81A0020A02100203C1100209C120020E9
:10518800EA2F002014130020612C0020381A002078
:1051980010F80A3C0133DBB20A2B84BF10F8131C49
:1051A800044A00F80A3C82BF002322F8113000F8B4
:1051B8000A3C704774240020334A136C90681944E1
:1051C800081A40F68C23984270B513469160D06057
:1051D80051603BD9127893F945108A4210460BD199
:1051E800111F082908D893F84610182901D8013149
:1051F80003E083F8442002E0002183F8461093F985
:1052080044402149A24219D191F84740B4B10C3128
:105218000024944206DA1D4D51F8046F25F81460F5
:105228000134F6E70C2805D01849002421F810406D
:105238000130F7E7164801780131017083F84520FD
:10524800002201211A7083F8471070BD92F84710A8
:10525800C9B1A0F2EF2440F2DA518C4208D8117893
:105268000B2905D80B1D0131117042F8230070BDC0
:10527800002283F84720074B03F13002002143F84E
:10528800041F9342FAD170BDB0030020742400209B
:1052980046260020BC030020024A136C013319443F
:1052A80011647047B0030020024B53F820301B688C
:1052B8001960704784220020064B53F820301A6882
:1052C8001B89A1F57A7159434FF47A7391FBF3F175
:1052D8001160704784220020F0B5046D8668236849
:1052E80023F0010323608379054613F0020F407908
:1052F8000CBF4FF0000E4FF4005E13F0040F14BF04
:105308004FF48067002710F0010F14BF042100211B
:105318008307206820F001002060626822F4405270
:105328004EEA02026260226822F4B05323F00C03B2
:1053380048BF41F008013B430B432360A36895B085
:1053480023F44073A360684601F0EAFE284B9C42B0
:1053580001D10C9B0EE0274B9C4201D10D9B09E02B
:10536800254B9C4201D10E9B04E0244B9C420CBF70
:105378000F9B109B2268A879170448BF5B00B3FBFA
:10538800F6F206FB1233B3EB560F236828BF01323F
:105398001E0441BF4FF6F073C2F34201134041EAC5
:1053A80003026B7992B213F0020FA28100F001019F
:1053B80014BF4FF400320022DC0748BF42F48032A9
:1053C8002B6D11B159680A4302E0596821EA0202BB
:1053D8005A609A6801074CBF42F0080222F008029E
:1053E8009A601A6842F001021A6015B0F0BD00BF59
:1053F800003801400044004000480040004C004094
:105408002DE9F0471E46A84B8CB098428946904635
:105418009DF8505040F08980A44BA54A1A60A54ACF
:105428005A6102F580729A614FF48072DA601A61EB
:10543800A14A5A63A2F54842203ADA6404329A64CF
:10544800C3F8088018659D4B9A6942F480429A61B6
:105458005A6942F001025A6102238DF80830032389
:1054680015F0010A8DF809304FF000038DF80A3065
:1054780014BF022301232C078DF80B3017D5904C4D
:10548800102701978AF001038DF80A30236A23F464
:1054980070232362236A43F4E0232362204601A990
:1054A80001F0ACFFBAF1000F23D1A76121E0B007EA
:1054B8000ED50CA9102341F82C3D8148036A23F42A
:1054C80070230362036A43F4E023036201F096FF4A
:1054D800F1070ED50CA9202341F82C3D7848036A22
:1054E80023F470030362036A43F4E003036201F0E8
:1054F80085FF01240E23002768468DF800308DF8BB
:1055080001408DF803408DF802700AF039FB25231D
:1055180068468DF801408DF803408DF800308DF80D
:105528000270624C0AF02CFB0DE1664B984276D172
:10553800654B5F4A1A604FF48072DA601A61634AF9
:105548005A6102F580729A615C4AC3F8088018654E
:10555800D36943F40033D36102238DF80830032361
:1055680015F0010A8DF809304FF000038DF80A3064
:1055780014BF022301232A078DF80B3019D54FF0E9
:1055880090444FF4804701978AF001038DF80A3060
:10559800636A23F070636362636A43F0E063636283
:1055A800204601A901F02AFFBAF1000F27D1A7610F
:1055B80025E0B30710D50CA94FF4804341F82C3DE2
:1055C8004FF09040436A23F070634362436A43F0AC
:1055D800E063436201F012FFF70710D50CA94FF4FE
:1055E800004341F82C3D4FF09040436A23F070434C
:1055F8004362436A43F0E043436201F0FFFE26231F
:105608008DF800300022012368468DF801308DF8AE
:1056180002208DF803302C4C0AF0B2FA93E02C4BA0
:10562800984240F011812B4B214A1A604FF4807246
:10563800DA601A61284A5A6102F580729A611F4A33
:10564800C3F808801865D36943F48023D361022323
:105658008DF80830032315F0010A8DF809304FF052
:1056680000038DF80A3014BF022301232C078DF89C
:105678000B3035D5194C4FF4806701978AF0010338
:105688008DF80A30636A23F470636362636A43F4D3
:10569800E0636362204601A901F0B0FEBAF1000F91
:1056A80042D1A76140E000BF00380140402D0020F2
:1056B8001C7C010820130020440002400010024016
:1056C8000008004800440040EC2C00202015002071
:1056D80000480040982C00202017002000040048B3
:1056E800B0070FD50CA94FF4806341F82C3D5848FA
:1056F800436A23F470634362436A43F4E06343629A
:1057080001F07CFEF1070FD50CA94FF4006341F8B6
:105718002C3D4F48436A23F470434362436A43F481
:10572800E043436201F06AFE27238DF8003000222F
:10573800012368468DF801308DF802208DF803307A
:105748000AF01EFA434CC4F82C900027012384F871
:1057580044302762E761A76267626671C4F808800F
:10576800A5712046FFF7B8FDF20734D5236B002B4F
:105778002AD001A801F0DEFBE36C01934FF48053BB
:105788000A9380230693E368ADF810302023099329
:10579800206B636902930B97059707970897039700
:1057A80001F0F3FB01A9206B01F0D1FB236B216D04
:1057B8001A6842F001021A608A6842F040028A6060
:1057C8005B689BB2236406E0236D20221A621A6884
:1057D80042F020021A60B3072FD5636B43B301A8C8
:1057E80001F0A8FBA36C01934FF480530A93802324
:1057F80006932369ADF8103000251023606B0393DE
:105808000B95059507950895099501F0BEFB606B0A
:1058180001A901F09CFB636B1A6842F002021A604E
:10582800226D5D605D60936843F08003936004E0DF
:10583800226D136843F080031360226D136843F0F0
:1058480001031360204600E000200CB0BDE8F0879B
:1058580000040048982C00203D4B1B78012B30B5E4
:1058680014BF00240324B1B9036A23F001030362BF
:105878008169036A21F0F30123F00A0341F0010171
:1058880042F001021A4341EA04118161026283690C
:1058980023F00C031BE004291DD1016A4FF6EF73B6
:1058A8000B4003628169056A120121F473414FF6C6
:1058B8005F7342F0100241F480712B4092B213439F
:1058C80041EA043181610362836923F4406383619F
:1058D8008369836130BD0829016A1AD14FF6FF63D5
:1058E8000B400362C169036A9BB289B223F4206347
:1058F80043F4807321F0F30143EA022241F00101ED
:1059080092B241EA0411C1610262C2694FF6F373AF
:1059180019E04EF6FF730B400362C369056A40F64F
:10592800FF41194045F6FF732B4043F4805343EA87
:10593800023241F4807192B241EA0431C1610262DB
:10594800C2694FF2FF331340C361C369C36130BDFD
:10595800AC03002038B510F80E2C50F8043C04466F
:1059680052B9012200F80E2C20F80C1C997A1868FC
:105978000222BDE838406FE730F80C2C20F80A1CEA
:10598800891A89B220F8081C074A10F80F0C00255C
:1059980022F8101004F80E5C1868997A2A46FFF766
:1059A8005BFF04F8065C38BD74240020044B53F8F0
:1059B80020301BB107289CBF1B681960704700BFC7
:1059C800D804002073B506460D46002401232A8812
:1059D800A34013421AD0AA78009302F003038DF86B
:1059E8000430EB78022B03D0032B0CBF03230123D5
:1059F8008DF805303046C2F301136946C2F38102BF
:105A08008DF806308DF8072001F0F8FC0134102CD1
:105A1800DCD102B070BD2DE9F04F754E96F80056F6
:105A280007460C4687B011469A4600686B1C91469B
:105A380022464FF0020B86F800360BF071F83B89CE
:105A48007868ADF8043001A98DF806B08DF807B074
:105A5800FFF7B8FF0023ADF80A30ADF81230ADF803
:105A6800163070230193BA7A3C68CDF80CA0012354
:105A780006F204682D01ADF808304FF48073A8448D
:105A8800ADF810B0ADF814300C2A7ED8DFE802F07B
:105A9800077D7D7D0F7D7D7D387D7D7D5E00204687
:105AA80001A901F0FFFAA36943F0080326E0236A7D
:105AB800504823F010032362236A6168A26922F028
:105AC800807222F4E642844242F4E04206D000F5B5
