:020000040800F2
:1000000000A0002041350108FDE00008F11F0108B3
:10001000FBE00008F9E00008F7E00008000000003D
:10002000000000000000000000000000F5E00008F3
:10003000F3E0000800000000F1E00008C5CB000874
:10004000A9350108A9350108A9350108A935010814
:10005000A9350108A9350108A9350108A935010804
:10006000A9350108A9350108A9350108A9350108F4
:10007000A9350108D954000857D30008A93501084B
:10008000A9350108A9350108A9350108A9350108D4
:100090005DE10008A9350108A9350108D5CB0008A4
:1000A000BBDE0008E5DE0008A9350108F5DE000822
:1000B000D9DE0008C9DE0008A9350108A935010804
:1000C000A9350108A9350108A9350108A935010894
:1000D000A9350108A5E0000899E000088DE00008B6
:1000E000D9CB0008A935010899230108A9350108D1
:1000F000A9350108A9350108A9350108A935010864
:10010000000000000000000000000000A935010808
:10011000A9350108A9350108A9350108A935010843
:10012000A9350108A9350108A9350108A935010833
:10013000A9350108A93501080000000000000000F1
:10014000A9350108A9350108A935010800000000FA
:10015000000000000000000000000000000000009F
:100160000000000000000000A9350108A9350108C1
:10017000A935010800000000000000000000000098
:0801800000000000A935010890
:100188002DE9F04FA74DA84C2B78DFF8B4A20C2B23
:100198009EBFA64A342101FB03232DED0E8B98BF89
:1001A8009E6AA34B93B01A7C069388BF002692B927
:1001B8002B780C2B13D9002316E098470028F7D189
:1001C8000CF0D0FB9B4B1B68F31A1844DAF800308C
:1001D80064339842ECD2E368002BEED1F0E7934AFF
:1001E800342101FB03239B6A934EDFED948A944DDF
:1001F8009BB207EE903AB8EE670A338060EE280AA1
:10020800904B281D0121C3ED000A07F02FFABCEE20
:10021800C00A33888DED050ABDF814208A498B4839
:100228000B809B1A4B806368AAF810209847874C6C
:1002380048B9874B874E1A6812F0020F984640F06B
:10024800C68000F02DBC6D6925B3A61E002082492A
:1002580000F11A0301EB000E0B4472466F1E0021D9
:1002680032F8028F22F8028C17F9019F9A4218FB84
:100278000911F5D136F8023FAEF81A3095F90D207C
:100288001C30542813FB02134FF4807293FBF2F3D3
:100298003380DCD16D48714E9AF86C20684D014668
:1002A80007F060F8338805F1BC09002B68D02B6F84
:1002B8001B7808EE103A05F174074FF000088035F6
:1002C8003188B1F57A7F02BF00233B602B613A6821
:1002D80034F918301A4407EE903A2B693A60013322
:1002E800012B4FEA480BF8EEE77A2B6106D1002381
:1002F800C5ED017AC5ED007AAB601BE0D5ED006A6B
:1003080007EE103A37EEE66AB8EEC77A86EE077A55
:1003180036EE877AD5ED026A85ED017A77EEC77AEF
:1003280085ED007AE6EE276AF0EE667AC5ED036A97
:10033800C5ED026A0023012924F80B3029F80B3097
:1003480029D12B69012BC3BF03F1FF3300EE103A0B
:10035800D5ED037A9FED420AC4BFB8EEC00A87EE16
:10036800800A15F05BFE18EE103A5BB1F8EEC87A19
:10037800B4EEE70AF1EE10FA04DD4FF47A73338035
:10038800002319E03B684FF47A7203F5FA7393FB84
:10039800F2F329F80B3008F10108B8F1030F07F15F
:1003A800040705F114058BD13088012801D10CF020
:1003B8002DFC3388013BE2E734F8132039F8131099
:1003C800521A24F813200133032BF5D131E7254BBA
:1003D8001B78002B00F064830CF0C4FADAF8C43000
:1003E800CAF8C400C31A09EE103A0025DAF8C83072
:1003F80005931978DFF87490D1B336F91530F8EE13
:10040800490A00EE103A184B0C2000FB0530B8EEF4
:10041800C00A60EEA80A07F029F9FDEEC07A17EEC7
:10042800903A27E0B4010020C0280020BC01002039
:10043800C02900207425002054340020BD3786359B
:10044800F009002018280020FC10002002280020B5
:10045800B827002000340020080A0020503400206B
:100468000000000030340020BC0A0020B214002034
:1004780036F8153029F815300135032DB6D1B9F8FD
:100488000260B9F80050B9F8047016FB06F315FBC2
:10049800053317FB073364225A43C64B1B885B435B
:1004A80092FBF3F3D8F80020523B0993130709D5C0
:1004B800C14BB3F9001029B1B3F9021011B1B3F966
:1004C80004307BBBBD4B197801F0100078B312F0F3
:1004D80020032CD001F002024AB3B94B1B78042B3D
:1004E80025D9B84B1B88B3F5967F20D3B64BB3F903
:1004F800043007EE903AB54B1B88B8EEE77A07EE62
:10050800903AF8EEE77AB2EE048A87EE888A4FF0DE
:10051800010B4FF0000877EE487A9FEDAD8A27EE81
:10052800888A09E04FF0000B4FF0010802E04FF015
:10053800000BD8469FEDA78AB4F900309AED3C5AD3
:100548009D49F8EE497A07EE103AB4F9023067EEA1
:10055800A88A07EE903AF8EEE77AB4F904304C88A6
:10056800B8EEC77A27EE85BA27EE05AA06EE103A46
:100578002BEE0B0AB8EEC66AAAEE0A0A0B88079396
:1005880066EE05AA8B880893AAEEAA0A15F046FD1E
:10059800B0EE40CABBF1000F22D0DFED8F7AB4EE87
:1005A800E78AF1EE10FA04DDDFED8C7A38EE678A1F
:1005B800F3E7DFED8B7AB4EEE78AF1EE10FA04D5B3
:1005C800DFED867A38EE278AF3E7B6EE000A28EEE2
:1005D800000A07F03DFBDFED7FBA70EE2BBA01E0B1
:1005E800DFED7CBADFED7BCADFF808B2F7EE009AE0
:1005F800B8F1000F56D0BDF91C30DFED7A7A07EE5E
:10060800103A23B208EE103ABDF92030F8EEC7DAF6
:1006180000EE103AB8EEC88AB8EEC0DA2DEEAD0A90
:10062800A8EE080AADEE0D0AB4EEE70AF1EE10FAEC
:1006380038DD15F0F3FC89EE800ADBED017ADBED9D
:10064800006A28EE008A2DEE807A68EE277A2DEE71
:10065800000AE6EE877ADBED026AE6EE807ADBEDE9
:10066800046A28EE268ADBED036AA6EE878A9BEDEC
:10067800057AA7EE008AB0EE6CDA28EE080AA7EE33
:10068800A70A15F0CBFCDBED067A20EE480AA7EEA8
:1006980080DADBED077AE7EE80CADBED087AE7EE71
:1006A80080BA01E0B0EE6CDA099B262B3DD82DB25A
:1006B80007EE905A36B2B8EEE78A07EE906A28EE4F
:1006C800080AF8EEE7DA3FB207EE907AADEEAD0A27
:1006D800B8EEE7EADFED437AAEEE0E0AB4EEE70ACB
:1006E800F1EE10FA21DD15F099FC89EE800ADBEDB8
:1006F800076A9BED087A2EEE00EA6DEE80DA66EE68
:10070800CE7A28EE008AEDEE877A27EE487A3DEE1B
:1007180027DADBED067AAEEE277A67EEED7A7CEE25
:1007280087CAE8EE267A7BEEA7BA059BD3ED017A55
:10073800F5EEC07AF1EE10FA4FF000021FDD9FEDE2
:100748002A7AB4EEC7CAF1EE10FA1ED567EE8D6AA2
:100758009AED3D7AA6EEA87A67EEAC6A8AED3D7A04
:100768009AED3E7AA6EEA87A67EEAB7A8AED3E7AE3
:100778009AED3F7AA7EEA87A8AED3F7A05E0CAF8A3
:10078800F420CAF8F820CAF8FC20184C059B2278F7
:10079800D3ED027A50072FD4154A116844F61F6228
:1007A8009142B7EE005AB2EE047A98BFB0EE475ABB
:1007B80024E000BF04000020C8250020D414002035
:1007C800DA140020D6140020FC270020B8100020DE
:1007D80035FA8E3C00000000DB0F4940DB0FC940B2
:1007E800DB0F49C00AD7233CC2B8B23E5F340020B1
:1007F800502700202C1D0020B7EE005A27EE855AFE
:10080800DAED3F6A9AED3D7ADAED3E7AC34EDFF8CB
:10081800448396ED004AC24FD8ED003AC14D9FED92
:10082800C28AD5ED004AE5EE2B6AA5EE0D7AE5EE13
:100838002C7A3AEEA66AF6EE006A68EEA66A7BEEB5
:10084800277A3AEE077A67EEA65A27EE267A66EEF8
:10085800266A25EEC45A24EE260AD7ED007AA3EEBE
:10086800870AA7EEC75AB1EE646AA6EE265AA6EE24
:10087800250A26EEE76A37EE800AA3EEA56A67EE38
:10088800A57A33EE855AA4EE876AE3EEA67A87ED59
:10089800000A20EE000A34EE066AA5EE050AE4EE28
:1008A800477AA6EE060A74EEA77A88ED005AA7EEF4
:1008B800A70A86ED006AC5ED007A15F0AFFB89EE50
:1008C800800AD8ED007AD5ED009A67EE807AC8EDF7
:1008D800007AD7ED007A67EE807AC7ED007AD6ED18
:1008E800007A67EE807A29EE800AC6ED007A85EDF7
:1008F800000A0CF007FCDBED080A9BED070A8B4D9C
:1009080007F034F920EE080A15F072F99BED060A93
:100918002880B1EE400A07F0F6F8DFED857A37EE69
:10092800C00A20EE080A15F063F9DBED000A9BED1A
:10093800030A688007F01AF9DAED407AE0EE487A9F
:10094800B0EE670A15F054F9B9F90030DBED085A32
:10095800DAED417A9BED010A9BED065A06EE103A54
:10096800B9F9023007EE103AB8EEC77AB8EEC66A9F
:10097800F4EEE75AB9F90430DBED007A27EE000A05
:1009880006EE903AA7EE860A82B21104F8EEE66AFD
:10099800DBED027A58BFAA80A7EEA60A48BF00F589
:1009A8006160644ADBED077A059B48BFA88067EE63
:1009B800277A11785B78E5EE067AF1EE10FAE5EE23
:1009C800A67ACCBF41F0080121F00801DBED045AFA
:1009D800117027EE257ADBED035AA5EE867A012BF6
:1009E8009BED056AA6EE267AF1EE479A18D1237890
:1009F8005B070FD4DAF80831402293FBF2F29B1A16
:100A080007EE103AB8EEC77A37EE277ABDEEC77A06
:100A18008AED427ADAF80831402293FBF2F301E0DA
:100A2800454B1B889AED438A444C07EE103AB8EEC2
:100A3800C77A77EEC77A9AED447A38EE877A77EEF6
:100A4800C87AC8EE878AA8EEA78A8AED438A15F085
:100A5800CFF8DAF81451297807F046F82368B0EE91
:100A6800690A1844206015F0C3F8297807F03CF8A3
:100A78006368B0EE480A1844606015F0B9F8697800
:100A880007F032F8A3682E4A184419EE101A1368B2
:100A9800A060194411602B4A13680133136003E006
:100AA800002333807380B380274BB3F90610274B9C
:100AB800D3F800E0BEF80A2091420FDBB1F5FA6FD7
:100AC8009EF80750BDBF8B1A6B43A2F5FA65C5F1B6
:100AD8006405BCBF93FBF5F5643500E06425069B0F
:100AE800B3F898C11A4B1B680593069B059E93F9AA
:100AF80062319BB206930022134B33F91280CCEB80
:100B0800080303F2F31440F2E63084424FEA420944
:100B180022D8002BB8BF5B4220E000BF241D002074
:100B2800201D0020281D00204C3D0F44FC270020DC
:100B3800DB0FC93FD41400200400002090250020BA
:100B4800383400208C25002024270020BC1A0020DF
:100B5800D81A0020200100204FF4FA73022A059CBD
:100B68004FF064002AD094F81D411CB1A342CCBFB9
:100B78001B1B0023B14C93FBF0F76FF0630B34F8A9
:100B880017A00BFB073B013734F917400FFA8AF718
:100B9800E41BAB4F04FB0BF494FBF0F4544427F82C
:100BA80009400EEB020424796343A64C93FBF4F34B
:100BB80064339BB26B4393FBF0F02CE094F81E4136
:100BC8001CB1A342CCBF1B1B00239F4C93FBF0F02E
:100BD8006FF0630A0AFB003B04EB400704EB40009C
:100BE800B7F91871B0F91A01C01B00FB0BFBBDF86F
:100BF80018009BFBFAFBC7EB0B0717FB00F79048A5
:100C080087809EF80600002BB8BF5B4243438D489F
:100C180093FBF0F0643073788C4C6427434393FB68
:100C2800F7F3A3548A4CF37A434393FBF7F3A354A3
:100C3800737D834C5843874B90FBF7F0022A9854F6
:100C4800854B0DD1E0459F700DDB844DB5F89A2199
:100C5800914214DBB1F5FA6FA8BF4FF4FA610FE0C7
:100C6800E0459D5404DA34F809305B4224F8093031
:100C78000132032A06F101067FF43EAFE5E711468B
:100C8800DFF824E26E4E891A4FF47A736FF063002E
:100C98005943C2F5FA626423B1FBF2F191FBF3F216
:100CA8003EF8127000FB0211013238B23EF91220F0
:100CB800121A514391FBF3F33B44E380684B1B88C2
:100CC8005F0639D5674BDFED687AB3F904300A223D
:100CD80093FBF2F3654A12889B1A1BB208EE103A8E
:100CE800B8EEC88A28EE278AB0EE480A07F012F84C
:100CF800F0EE408AB0EE480A06F0AAFFB6F90230D4
:100D080006EE903AB6F90030F8EEE66A07EE903A49
:100D180020EE667AF8EEE77AA7EEA87A67EE807A90
:100D2800BDEEC77AE6EEA87A17EE103AFDEEE77A3E
:100D3800338017EE903A73804D4B1A78500704D5DC
:100D48004C4B4FF400421A853CE04B490968C907EF
:100D58005CBF42F001021A70484A494912781707E5
:100D68005EBF1A7822F001021A70464A126812F021
:100D7800040F02D04448008870B94448008808B17C
:100D8800960709D4424A1288003218BF01221AB9BC
:100D980040480088632806D902220A701A7822F08F
:100DA80001021A7005E01B78D80756BF02230A70A3
:100DB8000B700BF0D7FD384B1B68C01A002801DBFD
:100DC8000EF0FCFA354B9B680BB13548984795F8FF
:100DD80096311D4E002B00F08B80338AB6F82C011B
:100DE800B0FBF3F02F4B471C1B78BFB2A6F82E714F
:100DF800002B5BD0B6F830A10023DFF84CE034F8C4
:100E080013800EF59D7C0EF599793CF8132039F87E
:100E180013102CF81380C2EB080B11FB0AF13AB23D
:100E280091FBF2F25A4429F813200133042BE4D140
:100E38001C4BAEF8300100221A703CE05A1B00200F
:100E4800F42700200CFEFFFFF0090020A428002052
:100E5800160B0020BC28002008280020C0290020EC
:100E680080270020FC27002035FA8E3C0A1300203A
:100E78005F3400200008004884270020D414002094
:100E880078270020B827002052340020CA120020FA
:100E980050340020B42700207C270020C0280020E0
:100EA8001A0B0020A0130020421B0020B6F8303196
:100EB800013BA6F83031994AB2F8300103B2002B51
:100EC8004FF0000312DDB2F92E71954931F8132065
:100ED800083112FB00F231F8131092FBF7F28A1A6C
:100EE80024F813200133042BEFD101E0A2F83031AC
:100EF8008C4B8D4FDFF8789201221A703A6812F005
:100F0800080F44D0A088894900F10E039BB21C2B1E
:100F1800874BB3F9043036D8DFF81CE2BEF800E09E
:100F28001EF0040F2FD009884FF00A0E93FBFEF332
:100F38005B1A9BB21FFA83FE0FFA8EF1B331BCBF66
:100F480003F5B4731FFA83FE0FFA8EF3B32BC4BFF5
:100F5800AEF5B4731FFA83FE764B95F862111B78D1
:100F68001B0714D549B249421EFB01F3D9F80010FA
:100F7800497A9BB213FB01F36FF01D0193FBF1F368
:100F88001844A08003E00A2093FBF0F30B8012F0D2
:100F9800140FDFF8888172D0674B1B8803F4027343
:100FA800002B6CD0634B1B7803F0100303F0FF0E8B
:100FB8004BB1624B95F9F021B3F90010638801FB3E
:100FC800023363805BE0D8F844315D4AD9785D48E4
:100FD8009B7829B3B0F90010B2F90600421A002A2A
:100FE800B8BF52429A420EDD574A8842C2F800E022
:100FF8004FF0010288F84821C8BF5B42E2889BB2E3
:101008001344E3803BE098F848312BB14F4B88F804
:1010180048E11A684E4B1A60484B1B680B4423E0A2
:10102800B0F90000B2F90620121A82EAE27EAEEBAD
:10103800E27E9E450ADD022392FBF3F2454B1A60DD
:10104800454A0123137088F848310AE098F8483176
:101058003BB13E4B88F848111A683D4B1A603E4B2D
:101068001970364B1B680344D8F84C110A88498814
:10107800934203DB8B42A8BF0B461A46E280374BEC
:101088001B78ABB12E4BB3F90620B5F89A319A42CA
:101098000EDC334B5B79012B01D0192B02D195F86B
:1010A800EA212AB90E2B03D0082B1CBF0023A380EA
:1010B800D9F8003093F824A1BAF1000F5ED01E4B86
:1010C8001B889A075AD0274BDFED277A93ED080A39
:1010D800B4EEE70AF1EE10FA4CD906F014FDD6ED9D
:1010E800547A20EE270A14F083FDB0F5617FA8BF7B
:1010F8004FF4617007EE900AB8EEE70ADFED1B7A4D
:1011080080EE270A06F0A4FD07EE90AAF8EEE77A2B
:1011180027EE800A14F06CFD80B22CE0F009002064
:10112800220B0020A1130020B8270020081300205C
:10113800FC270020D414002080270020B825002098
:1011480024270020A2130020B42500208C1500209D
:10115800AC2500203C340020BC25002002000020E3
:10116800C02900202C1D00208FC2753CEFB6B0446A
:10117800D81A00200020E3881844E0803B689B06CA
:1011880040F1A980C54B1B8803F03003002B00F009
:10119800A280C34B1B78DF0740F19D80C14BDFED78
:1011A800C27AB3F90430DFF83CA30A2293FBF2F3C6
:1011B80008EE103AB8EEC88A28EE278AB0EE480A38
:1011C80006F046FDF0EE408AB0EE480A06F0A2FDB1
:1011D800B64BB7491B6893F803C0B0EE409AB2EE1D
:1011E800048ABCF1000F52D0DFF8FCB2B1F902005A
:1011F800BBF80270CDF818C03BB2C01A059107F0D1
:10120800A3FDDDF818C00599CCF1000290425B46B9
:1012180003DB6045A8BF604600E0104638441F88DD
:1012280007921FFA80FBB1F90000A3F802B039B2A7
:10123800401A0593CDF818C007F086FD079A059B5C
:10124800904205DBDDF818C060450246A8BF62463B
:101258001744BFB21F803FB207EE107A0FFA8BFB1C
:10126800B8EEC70A07EE90BA28EEC07AF8EEE77A29
:1012780020EE090AA7EE897AA7EEA80A87EE087A6F
:10128800BDEEC77A17EE103AAAF800301BE0B1F9A4
:10129800023007EE103AB1F9003000EE103AB8EE1D
:1012A800C00AB8EEC77A68EEC07A20EE090AE7EEFF
:1012B800097AA7EE280AC7EE887AFDEEE77A17EED4
:1012C800903AAAF8003080EE080AFDEEC07A17EED0
:1012D800903AAAF80230774BD9F80000B5F86C219B
:1012E8000093754B1F68754B196800F16403B84784
:1012F800734B74481B78032B18D9D8F85421B2F8CB
:1013080002E0BEF5FA7F11D2B4F90470B0F904C056
:10131800002FB8BF7F42CEF10001CA1B944504DB01
:101328000EEB07026245A8BF62468280E788D8F8BC
:1013380054916549B0F802E0B0F800C0B0F904A0D3
:101348000020984201F1100133D299F9012051EDA2
:10135800045ADFF880B152420AFB02F207EE902AE3
:101368000FFA8CF206EE902A3AB206EE102A0FFA1D
:101378008EF2B8EEE77A07EE902AF8EEE77AB8EE42
:10138800C66A67EEA57A51ED065AE6EE257AF8EEBA
:10139800E66A11ED056AE6EE867A51ED036AE7EE34
:1013A800267AFDEEE77A17EE902A2BF81020013006
:1013B800C7E7464A117801F0040101F0FF0200294D
:1013C80000F0CB80424A4348D27806920288012135
:1013D800994217B207D230F911209742B8BF174681
:1013E800BAB20131F4E73C49DFF800E10968D8F8FE
:1013F80054A14888D8F81882DEF800E08742C6BFB2
:10140800101A82B200220592344A126802F48057F8
:1014180002F0100207970892314F2E4AB7F906706A
:1014280002EB43030993099B9A4200F08D801388CD
:1014380005981B1A07989BB222F8023B002857D040
:101448009AF800C0BCF1000F0AD1B8F81090BEF8A5
:1014580006C0CCEB090B5F4502DDCC44674515DBC4
:10146800B8F810C06745CBBFBEF802C0B1F804C0D9
:10147800B1F80290BEF800901BB2634503DB4B4500
:10148800A8BF4B469C4622F802CCCCE74F45CCBFC0
:10149800BEF80230BEF8003053E000BF80270020BD
:1014A800D4140020FC27002035FA8E3C10130020AD
:1014B8009C130020482B0020B0010020BC1A0020FB
:1014C800FC1B002070280020500B00205F340020F7
:1014D80054270020B41B0020A41C00200432002044
:1014E800242700205634002098130020A01C002038
:1014F8000698B1F802C01BB250B1B1F804904B4540
:1015080003DB6345A8BF6346994622F8029C8AE735
:10151800B1F800904B4503DB6345A8BF6346994685
:1015280022F8029CB8F812309F42BFF67CAF089BA5
:101538000BB18B8805E09AF80030002B7FF473AF6D
:101548000B8822F8023C6EE7BD4890F81C32013B3C
:10155800DBB2182B00F2208109E09A42F4D2B94993
:1015680031F81200B84921F812000132F5E70122DA
:101578009A40B64B1340002B00F00E81B44BB5498E
:101588001B8813F4807F07D02388ADF82C3063883C
:10159800ADF82E30A38815E0AF4B1A88ADF82C2093
:1015A8005A88ADF82E20AD4A9B881268ADF83030C5
:1015B800D40409D5D0F81822B1F90640128A944209
:1015C80002DA5B42ADF83030A54CB4F902304FF482
:1015D8007A7203F5E16353434FF4616093FBF0F3D0
:1015E800A3F5FA73ADF84430B4F9003003F5E163BC
:1015F8005A43954B92FBF0F21B88A3F2DC53A2F5F9
:10160800FA72ADF83230D6F81832ADF846201B8A97
:101618000A88D21AADF834204A88D21AADF8362092
:101628008A88D21AADF83820CA88D21AADF83A207A
:101638000A89D21AADF83C204A89D21AADF83E2060
:101648008A89D21AADF84020CA89D31AADF8423037
:101658000023844A002122F813100133082BF8D103
:10166800814A824B12680592814A1B781268814927
:101678000692814E072202FB031B594572D00B7854
:1016880033B103F1150201239340059A134065D045
:1016980011F806CC069B11F805AC11F8034C11F8AB
:1016A800018CCCEBCC0E03EB4E0E6420BEF900206F
:1016B800BEF902309B1A9BB211F9022C4FEA53096A
:1016C8005A434FEA4A0792FBF0F212A8C9EB02020A
:1016D80092B2074414B937F81C0C0CE0B6F90000B4
:1016E80037F91C7CB84208DA0444844203DBA74279
:1016F8003846A8BF2046308008E007DD041BBC42FE
:1017080003DB8442A8BF044627463780DEF80A4038
:1017180011F9047C012000FA0AF02042308812B244
:1017280017FB00F014BF4FF0FF340124642790FB2F
:10173800F7F090420ADB4FFA88F25A4392FBF7F22D
:10174800C9EB020212B28242A8BF0246454B33F8E7
:101758001C9002FB049423F81C4000E033800236FE
:1017680007318AE7424B454FD3F8008000260E2206
:1017780002FB068237F8023F92F90640F0B214FBEA
:1017880003F3642493FBF4F43C800BF0A1FC0136D2
:101798002044082E3880EAD1304B324E1A68344F34
:1017A80012F0200F984632D000200BF091FC3080C8
:1017B800044601200BF08CFC2B4B70801B6819062B
:1017C80025D51F4B264AD3F840321B78012B22D14E
:1017D8003968138891F914E0B2F902201EFB03F36B
:1017E8004FF0320C93FBFCF31FFA83FE91F906309D
:1017F8005B4253436FF0310193FBF1F10EEB0102B1
:10180800A11893FBFCF37344318018447080D7F817
:1018180000E0002338E0D7F800E053889EF906106E
:1018280011FB03F1322391FBF3F12144318011883C
:101838009EF9142012FB01F292FBF3F21044E5E743
:10184800F0090020C01A0020B41B0020992098013C
:101858008027002024270020702800200432002040
:10186800FC270020A810002084270020A81C0020A6
:10187800141B0020AF1C00200E0C0020A610002016
:101888000133082B325311D00E2101FB03E136F945
:101898001300B1F90020B1F9021090424FEA430455
:1018A800EEDB0AB28242A8BF0246E9E7A84CD4F8A8
:1018B80054A19AF90830A3B994F81C9209F1FF339E
:1018C800182B72D8DFE803F03571714F71717148C8
:1018D80071717171715971717171714F657171594E
:1018E8003500DFF890B24FF000099A4B3BF9021F20
:1018F800BAF90620882000FB09300BF025FA3A686F
:101908000E2380B203FB0922ABF80000B2F90030C5
:10191800B2F9022000B2984203DB13B28342A8BF97
:10192800034609F10109B9F1080FABF80030DCD121
:10193800C2E79AF8043013B10020718908E0864B99
:101948001B7803F0040303F0FF00002BF4D10146D9
:1019580003F0B2FD012729E00020F18803F0ACFD77
:101968000120318905E00020318903F0A5FD718946
:10197800012003F0A1FD022718E00227B81E36F85F
:101988001710C0B2013703F097FD082FF6D10627CC
:101998000CE00327F81E36F81710C0B2013703F021
:1019A8008BFD072FF6D1042700E00027D8F8003078
:1019B8009A0602D4B9F1050F0AD13846318803F0E6
:1019C8007BFD781CC0B2718803F076FD0237FFB248
:1019D800D8F80030DB0205D494F888367BB10BF0D8
:1019E800BFFA0CE0DFF890910026B819C0B239F8B8
:1019F800021F03F061FD0D2EEED00136F5E7574BBF
:101A08001878002840F0A381D8F800301E0340F170
:101A18009E8194F88936023B052B19D8504B93F8D0
:101A2800FC372BB94A4BD3F88C0603689B68984758
:101A3800D4F8903694F894261344B3F5807FA8BF61
:101A48004FF480738342D4BFC4F89036C4F890062C
:101A580094F88936023B082B00F27981DFE813F00D
:101A680009003F0062008E00A700B90031014F0154
:101A78005C013C4B1A68D4F89C3664339A4240F2B5
:101A8800668140200EF05CFF002840F0608140270E
:101A9800354BD4F898262E4E985C1D4670B107F049
:101AA800C7FED6F89036013BC6F89036D6F8983679
:101AB800013F03F10103C6F89836E9D1D4F8982616
:101AC800234BAA5C002A40F04281C3F898264FF0C5
:101AD800FF32C3F89C26032283F8892637E12523A1
:101AE8000093224B019303F10C0202924920A3F1C7
:101AF8000A025021023308F049FA002840F02781F1
:101B0800D8F8003013F080034FF0FF3205D0C4F846
:101B18009806C4F89C26042308E1C4F89836C4F84B
:101B28009C2642E0124A022300210093019102916F
:101B3800482002F1080308F029FA002840F007813C
:101B48004FF0FF33C4F89C36C4F898060523EDE03F
:101B5800F0090020380C00205F3400205B3400209E
:101B6800C02900205027002040750108AA750108E7
:101B78005C770108A61000202A270020072300937D
:101B8800754B019303F10C0202924720A3F108025E
:101B98000021043308F0FAF9002840F0D8804FF00B
:101BA800FF33C4F89806C4F89C360623BEE06B4A97
:101BB80005230021009301910291532002F10803AB
:101BC80008F0E4F9002840F0C280C4F8980607231A
:101BD800ACE040200EF0B4FE002840F0B880D4F805
:101BE80098360D2B00F2AA80DFE803F0070B0E12DF
:101BF80019202B3035393D4B555959480EF09CFF6B
:101C080059E05848584919E058485949594A50E044
:101C1800594B5A4893F8FA1793F8FB2749E0584B61
:101C2800584893E8060008331B6831E095F8D43724
:101C380055480C2202FB035595F8D6170EF07CFF89
:101C480039E04D4B5148B3F84411F7E74A4B504837
:101C5800B3F84611F2E74F4B4F481969EEE74F4B7F
:101C68004F481988EAE7D4F8A036D80404D5424B7F
:101C78004C4893F87A11E1E74B4B0C22C3F89826AD
:101C880019E04A4895F87E1195F87F2195F87D313D
:101C98000EF052FF0FE04648B4F8A416CEE7D8F885
:101CA8000030190507D5344B4248B3F88211B3F90F
:101CB80080210EF041FFD4F898360133C4F89836E5
:101CC80045E03D4B1B689A0116D5B4F8A836364D49
:101CD80093B9D5F8AC360B93384B0E201B680C9390
:101CE8000BA907F06DFE4FF48053A5F8A63609231B
:101CF80085F8893607F0BCFE07F044FE27E094F823
:101D0800B036002BF6D02C4B1B689B01F2D4264B27
:101D1800082283F88926EFE7294B1A68D4F89C36FD
:101D2800C8339A4205D90EF029FE012384F8893672
:101D38000DE00EF03DFE0028F5D108E00EF038FE6B
:101D480028B14FF48053A4F8A6360923EEE713B060
:101D5800BDEC0E8BBDE8F08F74770108C0770108E1
:101D680094970108AE970108C3970108CB9701081B
:101D7800DF970108EB970108C0290020F4970108B4
:101D8800ACF7FF1F05980108199801082398010866
:101D980032980108C028002041980108040000205A
:101DA800519801085B980108F0090020689801081B
:101DB800819801088C980108842700207425002048
:101DC800502700202DE9F04F2DED028BB04E8FB03B
:101DD80035780196002D00F0E880AE4B1A689846D9
:101DE800002A02F03F80D8F800000AF0A7FF002878
:101DF80002F03880A74BA84C18680AF09CFF092805
:101E080001D03F284CD14FF0000A2768A34E554611
:101E18002FB1A34831683A4613F028FD10B9B246ED
:101E280005B935469F4B10369E42F1D3D5B12E6881
:101E3800DAF80090236816F803E019F803007045F3
:101E480010D15A1C964948B92D2B07D8924E4FF0FD
:101E5800200E01F803E03260885403E001F803E043
:101E68002260E7E723680BB1554510D08E480DF086
:101E78006BFC554507D855F8100B0DF065FC09208B
:101E88000DF05AFCF5E789480DF05EFC0027236841
:101E98009F42A8D2824BD85D0DF04EFC0137F6E781
:101EA8002368002B41F06587042841F0C0877C48EF
:101EB80009F000FB01F0D6BFDBF80000DFF8249240
:101EC8000AF03CFF00285ED0D9F800000AF033FF82
:101ED800DAF8003093F848100646002973D1242810
:101EE80040F0AC80012283F84820DAF8003093F8FB
:101EF8004820062AE0D193F84900642800F0B1820E
:101F080000F2A581322800F0188700F255812428B4
:101F180000F0A58600F20981032800F0878240F2CC
:101F2800E380052840F0F5801A200DF073FB4FF090
:101F380000085F4B13F8080008F101080DF039FBA1
:101F4800B8F10B0FF5D14FF000085A4B13F8080001
:101F580008F101080DF02DFBB8F1080FF5D14FF08D
:101F68000008554B13F8080008F101080DF021FB93
:101F7800B8F1070FF5D1236898790DF01AFB23689B
:101F8800002283F848204D4B93F861304BB17859C3
:101F98000AF0A2FB0BF034F805F0F4FE484B494A6E
:101FA800DA604C35982D01F05D87474FEB59EA19F7
:101FB800002BF6D0454CDFF82C812260C8F80030A1
:101FC800A246C34678E7012904D14D2814BF002250
:101FD800022288E7022904D13C2814BF00220322E8
:101FE80081E703290CD140284FF0000102D983F87A
:101FF80048107AE758711971D9719871042272E7FB
:10200800042907D1997983F8490080EA01029A7175
:10201800052268E705297FF468AF5879197988425D
:10202800987906D970409871481C18710B441E7233
:102038005BE7B0420CBF0622002254E724490B7824
:102048005B073FF552AF2328D9F8003012D1019A27
:102058000291012010700F480360184803601D4862
:102068000DF072FB11480DF06FFB02990B7843F0ED
:1020780002030B70184B1B681B78B34201BF174B48
:10208800174A1A600E4B04BF0E4ADA602DE700BFEC
:102098005B340020B0270020101B0020C079010805
:1020A800E01A0020807B0108A0990108A599010881
:1020B800DF970108EB970108C3970108A4100020D7
:1020C80000ED00E00400FA0528290020A4270020DC
:1020D8005F340020D5990108CC310020FC9F0020F6
:1020E800EFBEADDEA8270020012800F0938102286A
:1020F80040F0428704200DF08DFA43200DF059FA84
:102108004C200DF056FA46200DF053FA4C2000F002
:1021180018BFC0F09481222840F02E8750200DF07F
:1021280079FA4FF0000900F014BC2A2800F0BF85A6
:1021380019D8262800F09985282840F01D87E64EF2
:1021480007200DF067FAB6F880010DF066FAB6F8C8
:1021580082010DF062FA96F884010DF02AFAB6F8B9
:10216800860100F08EBE2E2800F03286302800F05E
:1021780046862C2840F00087D74E0C200DF04AFAEE
:1021880096F890010DF015FAB6F89C010DF045FA95
:10219800B6F898010DF041FAB6F89A010DF03DFA3B
:1021A80096F892010DF005FAB6F89E010DF035FA91
:1021B800B6F8A00100F065BE402800F0C58525D816
:1021C800382800F0618513D8342800F0E3833628D6
:1021D80040F0D286C14BDFF8008393F86000C0EB73
:1021E800C000C0B20DF016FA08F1200900F0ECBDED
:1021F8003B2800F0A7833D2800F0A3823A2840F04E
:10220800BB8604200DF006FA00F036BE462800F022
:102218001C860CD8422800F0A985452840F0AC86D9
:1022280013200DF0F7F94FF0000800F018BE4B2806
:1022380000F043854D2800F05B85492840F09C86D6
:1022480002200DF0E7F9A44B988900F01ABE732814
:1022580000F035847CD86B2800F0608423D8672888
:1022680000F0988114D8652800F04A81662840F06B
:10227800838612200DF0CEF9994B1B88B3F5806F39
:102288008CBF4FF008094FF001094FF0000860E1DA
:10229800692800F0008200F2228410200DF0BAF9BB
:1022A8004FF00008ECE16E2800F01E820ED86C2872
:1022B80000F008826D2840F05F8606200DF0AAF92C
:1022C800884B18680DF0B2F9874B0BE2702800F0C4
:1022D8009382C0F04182722840F04E867E4E1620CE
:1022E8000DF098F9B6F898010DF097F9B6F8440191
:1022F8000DF093F9B6F846010DF08FF9B6F84801DC
:102308000DF08BF9B6F8DA010DF087F996F8F101BE
:102318000DF04FF900200DF04CF996F8F2010DF090
:1023280048F996F885010DF044F996F893010DF0F7
:1023380040F900200DF03DF96C4B1B680A20B3F9F9
:10234800623093FBF0F080B20DF067F900F0A0BCAA
:102358007D2800F09A852AD8762800F00B840AD8C0
:10236800742800F04083752840F006862F200DF071
:1023780051F95F4EDEE2782800F01C81C0F07983C5
:102388007C2840F0F985544E08200DF043F9B6F842
:102398004C010DF042F9B6F84E010DF03EF9B6F8D1
:1023A80050010DF03AF9B6F8520100F06ABDA428C0
:1023B80000F00A8417D8962863D0A02800F041843A
:1023C8007E2840F0D985444E03200DF023F996F875
:1023D80058010DF0EEF896F859010DF0EAF896F864
:1023E8005A0100F0AEBDF12800F02481FE2800F06B
:1023F8001784F02840F0C0853C4E04200DF00AF9FF
:102408003368B3F866000DF008F93368B3F8640070
:1024180000F037BD03200DF0FDF800200DF0C9F8DD
:1024280001200DF0C6F80F2000F08BBD0DF0F2F87A
:1024380001200DF0BEF80C200DF0BBF8C2E3062019
:102448000DF0E8F843200DF0B4F84C200DF0B1F889
:1024580042200DF0AEF852200DF0ABF8002000F04D
:1024680010BD07200DF0D6F8E7200DF0A2F81A4BA2
:1024780058790DF09EF800200DF09BF8042000F02C
:10248800FCBC0E200DF0C6F81A4B18880DF0C5F8E4
:1024980003F014FB0DF0C1F8174B1B68C3F3C00021
:1024A800C3F38002800040EA4200C3F340021043B5
:1024B800C3F3401240EAC20003F0100318430DF0C2
:1024C800ACF80CF0A3FF0DF0B1F8034B93F8D40768
:1024D8000DF06FF8094B05E1C0290020A410002079
:1024E800040000208C150020B8140020D81A002001
:1024F800E777010854340020B8270020B4270020CB
:102508000B200DF087F8AB4B18880DF086F803F018
:10251800D5FA0DF082F8A84B1B68C3F3C000C3F3CB
:102528008002800040EA4200C3F340021043C3F334
:10253800401240EAC20003F0100318430DF06DF892
:102548000CF064FF0DF072F89C4B93F8D40700F080
:10255800F8BC9B4B33F9180090FBF9F008F101081F
:1025680080B20DF05AF8B8F1030FF2D1954E3088C9
:102578000DF053F870880DF050F8B088924E0DF0B9
:102588004CF830880DF049F870880DF046F8B0889E
:1025980000F077BC10200DF03DF84FF000088B4B91
:1025A80013F8080008F101080DF003F8B8F1100F4E
:1025B800F5D1E0E470200DF02DF84FF0000A844EBC
:1025C8004FF00E08336808FB0AF843440AF1010A81
:1025D800B3F825010DF021F833684344B3F8270117
:1025E8000DF01BF833684344B3F829010DF015F8D2
:1025F8003368434493F82B010CF0DBFF3368434402
:1026080093F82C010CF0D5FF3368434493F82D015F
:102618000CF0CFFF3368434493F82E010CF0C9FF48
:1026280033689844D8F82F010DF000F8BAF1080F74
:10263800C5D1A0E47020614E0CF0ECFF06F17009E2
:1026480096F8D4000CF0B5FF96F8D5000CF0B1FF61
:1026580096F8D6000CF0ADFF96F8D7000CF0A9FF5D
:1026680096F8D8000CF0A5FF96F8D9000CF0A1FF59
:10267800073696F8D3000CF09CFF4E45E0D17AE47B
:10268800544B13F8080008F101080CF092FFB8F158
:10269800100FF5D16FE4504E3078400000F0FE0086
:1026A8000CF0B8FF4FF00008B14699F80030984593
:1026B800BFF461AC494B33F818000CF0AEFF08F1D9
:1026C8000108F2E7464E06200CF0A4FF30880CF013
:1026D800A4FF70880CF0A1FFB6F904300A2093FB20
:1026E800F0F029E01888CCE307200CF093FF3D4B6D
:1026F8001888FF28A8BFFF20C0B20CF05AFF3A4B39
:1027080018684FF6FF784045A8BF404620EAE070B9
:1027180080B20CF082FF354B18880CF07EFF274BF7
:1027280093F88521324B186842B10A235843404533
:10273800A8BF404620EAE07080B2A2E300F30F0091
:10274800FAE71E4E02200CF065FF96F8E4010CF043
:1027580030FF96F8E301F4E3264E0B200CF05AFF05
:10276800336818780CF025FF336858780CF021FF8F
:102778004FF0000AB146D9F800301E4E53440AF112
:10278800010A18790CF015FFBAF1030FF3D1336879
:10279800D8790CF00EFF336898780CF00AFF33688C
:1027A800D8780CF006FF336858890CF036FF336888
:1027B800187AC6E354340020B8270020C029002026
:1027C800B214002002280020C8250020A8100020EC
:1027D800D81A0020B41B0020C43100202427002070
:1027E800FC27002070170020D0140020901500202E
:1027F800CC140020BC1A00201E200CF00BFFCF4B7D
:102808001A681278022A4FF00009984679D1D8F848
:10281800003003EB890393ED080AB2EE048A20EE38
:10282800080A13F0E5F980F30800C0B20CF0C1FE05
:10283800D8F80030DFEDC27A03EB890393ED0B0A79
:1028480020EE270A13F0D4F980F30800C0B20CF088
:10285800B0FED8F80030DFEDBB7A03EB890393EDC7
:102868000E0A20EE270A13F0C3F980F30800C0B25D
:1028780009F101090CF09DFEB9F1030FC7D1B9F1B7
:10288800070FD8F8003025D193ED110A20EE080A79
:1028980013F0AEF980F30800C0B20CF08AFED8F845
:1028A800003093ED120A20EE080A13F0A1F980F324
:1028B8000800C0B20CF07DFED8F8003093F84C3018
:1028C80000EE103AB8EE400A13F092F980F30800CF
:1028D800C0B20DE04B4458780CF06BFED8F80030CD
:1028E8004B44D87A0CF065FED8F800304B44587D3C
:1028F80009F101090CF05DFEB9F10A0FBFD1FFF72C
:102908003ABBD8F800304B4458780CF052FED8F84F
:1029180000304B44D87A0CF04CFED8F800304B44C9
:1029280009F10109587D0CF044FEB9F10A0FE8D10C
:10293800FFF721BB16F8010F00283FF41CAB0CF081
:1029480038FEF7E701200CF065FE7C4B1B68187811
:10295800F7E27A4B1B6803EB89087B4B98F88520D4
:102968000C2101FB023309F1010993F838000CF03E
:1029780020FE98F886000CF01CFE98F887000CF0F2
:1029880018FE98F888000CF014FEB9F1140FE0D185
:10299800FFF7F1BA48200CF03DFE4FF00009674BF5
:1029A8001A68062303FB092809F1010998F8DA00D7
:1029B8000CF0FFFD98F8D5000CF0FBFD98F8D60058
:1029C8000CF0F7FD98F8D7000CF0F3FD98F8D80054
:1029D8000CF0EFFD98F8D9000CF0EBFDB9F10C0FF5
:1029E800DDD1FFF7C8BA4FF0000801264FF0000B01
:1029F800564B1B789B4533DA554B1BF803004FF0B9
:102A0800000A51490C2301F1300E03FB0AF38946F1
:102A180013F80EE0864507D10B44586B12F01DFFE2
:102A280084463EB9334607E00AF1010ABAF11C0FA1
:102A3800E7D112E0804410E063450EDA0C2101FB77
:102A48000A91CDF80CC0496B0293C85C0CF0B1FD3B
:102A5800029BDDF80CC00133EEE70BF1010BC7E771
:102A6800002E3FF488AA5FFA88F00CF0D3FD002608
:102A7800BCE7364E30780CF0CDFD4FF00008B1467B
:102A880099F800309845BFF476AA314B18F803E05E
:102A980000212D480C2200F1300C02FB01F313F841
:102AA8000C20724505D1034493F838000CF081FDE1
:102AB80002E001311C29ECD108F10108E0E7082007
:102AC8000CF0A8FD4FF001085FFA88F008F1010842
:102AD8000CF06FFDB8F1090FF6D1FFF74CBA1020D2
:102AE8000CF098FD1B4B1C4E187800F002000CF0FF
:102AF80060FD1A4B18780CF05CFD30680CF096FD00
:102B080070680CF093FD164B18880CF086FD154B79
:102B180018880CF082FD144B988AB2E105200CF05D
:102B280079FD124B18880CF078FD114B18880CF0C1
:102B380074FD0D4B987D00F0010002E2D81A0020C8
:102B48000000C84200007A44E8770108882700207E
:102B580089270020D4140020DC140020DA14002077
:102B6800D8140020D6140020A41000204C150020F2
:102B78004E1500200CF0FEFC824612200CF04AFD97
:102B8800BAF1000F01D1CA4B03E0BAF1100F04D11A
:102B9800C84BD3F800905E6801E00026B146504665
:102BA8000CF007FD48460CF041FD30460CF03EFDA8
:102BB800C14B18680CF03AFD00200CF02EFD0020E7
:102BC8000CF02BFD0020BCE1BC4EF07D80000130F4
:102BD800C0B20CF01FFDF07D0CF0EBFC4FF00008CC
:102BE800B2469AF817309845BFF4C5A9B44E16F8FE
:102BF80008000CF0DEFC06F1100306F1300913F8AA
:102C080008000CF0D6FC06F1200313F808000CF0BD
:102C1800D0FC19F808000CF0CCFC08F10108E0E73A
:102C280008200CF0F7FC4FF00008A64B33F818000A
:102C380008F101080CF0F1FCB8F1040FF5D1FFF729
:102C48009AB90C200CF0E6FC9F4B18680CF0EEFCCF
:102C58009E4B18680CF0EAFC9D4B18680DE10420A7
:102C68000CF0D8FC9B4B986807E19A4E06200CF0B4
:102C7800D1FCB6F85C010CF0D0FCB6F85E010CF0A3
:102C8800CCFCB6F86001FCE004200CF0C3FC914ECB
:102C980096F87A010CF08DFC96F87E010CF089FC10
:102CA80096F87D010CF085FC96F87F0149E101203A
:102CB8000CF0B0FC874B587943E1864E08200CF0A5
:102CC800A9FC96F8D8010CF074FC96F8D9010CF020
:102CD80070FCB6F8DA010CF0A0FC96F8DC010CF0F8
:102CE80068FCB6F8DE010CF098FC96F8E00128E1E3
:102CF800DFF8F481784E98F8000000EB4000C0B28D
:102D08000CF088FC4FF0000A98F800309A4506F15C
:102D18000206BFF430A916F8020C0CF04AFC16F8AB
:102D2800010C00EB800000EB800000F2EE2080B286
:102D38000CF073FC0AF1010AE6E701200CF06AFCCA
:102D4800644B93F89301FCE008200CF063FC4FF00F
:102D58000008604B434408F1010893F888010CF01F
:102D680028FCB8F1080FF4D1FFF705B9594E102027
:102D78000CF050FC70790CF01CFCB0680CF056FCA0
:102D880096F890010CF015FCB6F85C010CF045FCC7
:102D9800B6F85E010CF041FCB6F860010CF03DFCA1
:102DA800B6F880010CF039FCB6F8820169E04B4AAC
:102DB800D25C904200F0C9800C33302BF7D108F177
:102DC8000808C8453FF4D7A898F8F8010023EEE7AB
:102DD8004020404E0CF01EFC06F14009B6F8A8024F
:102DE8000CF01BFC96F8AA020CF0E3FB043696F8EC
:102DF800A7020CF0DEFB4E45F0D1FFF7BCB8E0208F
:102E0800344E0CF007FC06F18009B6F82A0200F0EF
:102E18003F000CF002FCB6F82A02C0F386100CF052
:102E2800FCFB96F8280200090CF0C3FB96F8280270
:102E380000F00F000CF0BDFB043696F825020CF0EC
:102E4800B8FB4E45E1D1FFF796B80D200CF0E2FB38
:102E580000200CF0AEFB00200CF0E8FB09E0204B52
:102E680013F8080008F101080CF0A3FBB8F10B0FE8
:102E7800F5D100200CF0DAFB00200CF0D7FBFFF7AF
:102E88007AB80CF0CAFBFFF776B8164E03200CF0A0
:102E9800C1FB336893F81D010CF08BFB336893F882
:102EA8001E010CF086FB336893F81F0149E000BF50
:102EB8009415002014130020AC250020A410002035
:102EC800BC100020FC100020ACF7FF1FB0F7FF1F5C
:102ED800B4F7FF1FC0290020622B0020D03100204A
:102EE800DF970108D81A0020C431002040F20E856F
:102EF800F22800F0B68540F2DE85F32840F0178707
:102F08000CF038FBFF288146DFF860A340F04986C3
:102F18004FF000080AF16400414660228AF8628096
:102F280012F057FC8DF813809DF813309AF8C620DC
:102F3800CE4E9A4200F2E18501200CF06BFB96F828
:102F480062000CF036FBFFF716B80CF032FBB8F84D
:102F5800FA010CF062FB98F8FC010CF02AFB98F8D7
:102F6800FD010CF026FB98F8FF010CF022FB98F805
:102F7800FE010CF01EFB22E7C82841D193F805801A
:102F88004FEA5808B8F1120F02D90EF01BFE32E0D2
:102F98004FF00009C14507D20CF0F8FA05AB23F849
:102FA800190009F10109F5E742460023434507DA0C
:102FB80005A931F81300AE4921F813000133F5E7EC
:102FC800122A05D0AA4B002123F812100132F7E784
:102FD800A84B01221A700EE0D12800F0C683D2282F
:102FE80040F0C386A44B1B7803F0040303F0FF08EA
:102FF800002B00F0F68300200CF00CFBFEF7BBBFA3
:1030080000F21C82352824D10CF0B4FA0B28814632
:10301800BBD89A4B1E680CF0ADFA0328B5D8062326
:1030280003FB096888F8DA000CF0A4FA88F8D500E0
:103038000CF0A0FA88F8D6000CF09CFA88F8D700B3
:103048000CF098FA88F8D8000CF094FA88F8D900AF
:10305800D1E700F2E4802B2804D10CF08BFA884BDE
:103068005871C8E771D8252807D1854B00229A6086
:103078000CF096FA04F07EFEBDE741D8232840F014
:1030880074860CF077FA132882463FF67EAFDFF895
:10309800EC91D9F800600CF06DFA002279490C2304
:1030A800534301EB030E9EF838E0864524D10B44C8
:1030B8000FFA8AF806EB880893F8303088F88530DC
:1030C8000CF058FA88F886000CF054FA88F8870053
:1030D8000CF050FA6C4B6D4A1A6088F888006C4BFB
:1030E800D9F8000018600021853009F0FBFB694B16
:1030F80080F0010018707EE701321C2ACED144E727
:1031080027280DD10CF042FA5D4EA6F85C010CF0B0
:103118003DFAA6F85E010CF039FAA6F860016AE7F4
:10312800292840F022860CF031FA554EA6F8800185
:103138000CF02CFAA6F882010CF01CFA86F884012F
:103148000CF024FAA6F8860155E72F2800F0F78539
:1031580025D82D2840F009860CF00CFA484E86F840
:1031680090010CF013FAA6F89C010CF00FFAA6F8DF
:1031780098010CF00BFAA6F89A010CF0FBF92368F9
:1031880086F892015B79082B7FF635AF0CF0FEF9D3
:10319800A6F89E010CF0FAF9A6F8A0012BE7312851
:1031A80034D10CF0E7F91F2880463FF6EEAE2368CD
:1031B8005B79082B7FF4E9AE0CF0E8F9304E08F1A2
:1031C8008A0806EB880900F03F00A9F802000CF015
:1031D800DDF9B9F80230800100F4FE501843A9F86F
:1031E80002000CF0C7F9000106F828000CF0C2F93B
:1031F80016F8283000F00F00184306F828000CF0E5
:10320800B9F989F8010007F033FAF4E6332840F0F9
:10321800AC850CF0AFF91A4B83F89301EBE6412823
:103228000DD14FF000080CF0A5F9154B434408F1F7
:103238000108B8F1080F83F88801F4D1DBE600F241
:103248008280392828D10CF095F90D4E86F87A013C
:103258000CF090F986F87E010CF08CF986F87D0167
:103268000CF088F986F87F01C5E600BFA41000209D
:1032780074260020CD2700205F340020D81A0020B3
:10328800C0290020E877010804130020042B00203F
:1032980000320020020000203AD8372840F0658527
:1032A8005B794FF00708B3FBF8F2C2EBC2029A1A37
:1032B80012F0FF0F7FF469AEB3FBF8F6002E3FF46F
:1032C8009AAE0CF057F95FFA80FA4FFA8AF009F0D3
:1032D80041FA814600283FF458AE80F800A00CF06F
:1032E80055F9A9F802000CF045F989F804000CF02A
:1032F80041F989F805000CF03DF989F807000CF050
:1033080039F906F1FF385FFA88F689F80600D5E73B
:103318003C280BD1B64ED6F800900CF02BF989F862
:1033280000003368187809F04DFF64E63E2840F045
:103338001C850CF01FF9AF4E86F8E4010CF01AF961
:1033480086F8E30157E64A2804D10CF01FF9A94B87
:10335800988150E62CD8432822D10CF00BF9A54EC1
:103368000023B36070710CF01BF904F003FD0CF03E
:1033780001F986F890010CF009F9A6F85C010CF047
:1033880005F9A6F85E010CF001F9A6F860010CF049
:10339800FDF8A6F880010CF0F9F8A6F882012AE6F3
:1033A800442840F0E284944B012283F8612022E60D
:1033B8004C2819D10CF0DEF88E4E86F8D8010CF0A6
:1033C800D9F886F8D9010CF0E1F8A6F8DA010CF082
:1033D800D1F886F8DC010CF0D9F8A6F8DE010CF07B
:1033E800C9F886F8E00106E64E2840F0BE840CF0E5
:1033F800C1F8112881463FF6C8AD7E4E0CF0BAF8E8
:1034080009F1D00906EB4903B04698700CF0BEF8F4
:1034180040F2ED23984205DD40F6CA039842A8BF62
:10342800184601E040F2EE2008EB4908A0F2EE2031
:10343800192390FBF3F088F80300DCE5D32804D1C6
:103448000CF0A4F86D4B1880D5E500F2D581CE2894
:103458000AD16B4B1B7859073FF5CDAD694A1378F4
:1034680043F004031370C6E500F23281CA2840F025
:1034780099805F4B1A681278022A4FF00009984623
:1034880072D1D8F800600CF075F807EE900AF8EEE3
:10349800677AB2EE048AC7EE887A06EB890AD8F80A
:1034A8000060CAED087A0CF065F807EE900A9FED07
:1034B800567AF8EE677A06EB890AC7EE877AD8F863
:1034C8000060CAED0B7A0CF055F807EE900A9FEDF4
:1034D8004F7AF8EE677A06EB890AC7EE877A09F120
:1034E8000109B9F1030FCAED0E7ACAD1B9F1070F74
:1034F800D8F800601CD10CF03DF807EE900AF8EE01
:10350800677AC7EE887AC6ED117AD8F800600CF0B1
:1035180031F807EE900AF8EE677AC7EE887AC6EDBA
:10352800127AD8F800600CF025F886F84C0015E0FF
:103538000CF020F806EB090A8AF80100D8F80060B8
:103548000CF018F806EB090AD8F800608AF80B00A6
:103558000CF010F806EB090A8AF8150009F10109C0
:10356800B9F10A0FC2D146E5D8F800600CF002F8AC
:1035780006EB090A8AF80100D8F800600BF0FAFF98
:1035880006EB090AD8F800608AF80B000BF0F2FF86
:1035980006EB090A09F10109B9F10A0F8AF81500C1
:1035A800E2D128E53CD20BF0E5FF164B1A7810B1B2
:1035B80042F0020201E022F002021A700BF0DAFF78
:1035C800134B144E18700BF0EBFF30600BF0E8FF54
:1035D80070600BF0DBFF104B18800BF0D7FF0F4B20
:1035E800054A1880937D43F00203937503E500BFF5
:1035F800D81A0020C0290020A41000200813002099
:103608005F340020D41400200000C84200007A442F
:10361800DA140020DC140020D8140020D61400206E
:10362800CC2848D15B79092B7FF6AFACBF4ED6F8D2
:1036380000900BF09FFF89F80000D6F800900BF07F
:1036480099FF89F801000BF095FF33686428A8BF3B
:10365800642018710BF08EFF33686428A8BF6420BB
:1036680058710BF087FF3368FF28A8BFFF209871B7
:103678000BF080FFD6F80090642828BF642089F8F2
:1036880007000BF077FF89F80200D6F800900BF0DE
:1036980071FF89F80300D6F800900BF077FF2368D4
:1036A800A9F80A005B790A2B7FF6A5AC36680BF0FF
:1036B80061FF30729FE4CD2840F057839C4B1B7804
:1036C80058073FF598AC9B4B4FF4C8721A8092E4A8
:1036D800D0280BD1964B1B785E073FF58CAC0CF0CD
:1036E80019FE04F079FB04F011FC84E4BFF474AC17
:1036F8000BF04CFF6FF4AF6E00EB0E039BB28E4ED7
:10370800C62B98BFA6F898010BF040FFA6F8440115
:103718000BF03CFFA6F846010BF038FFA6F848016D
:103728000BF034FFA6F8DA010BF024FF86F8F1015C
:103738000BF020FF0BF01EFF86F8F2010BF01AFFCA
:1037480086F885010BF016FF86F893010BF012FF3F
:103758007A4BD3F800900BF019FF00EB8000400083
:10376800A9F862000BF006FF70E50BF003FF834633
:103778000BF016FF82460BF013FF81460BF010FF8B
:1037880006460BF003FF0BF001FF0BF0F3FEBBF155
:10379800000F12D16A4B1020C3F800A0C3F80490A0
:1037A80004F0C0FA674A137843F001031370002E3F
:1037B8003FF421AC644B1E601DE4BBF1100F7FF495
:1037C8001AAC624BC3F800A0C3F804900EB15E4B6C
:1037D8001E605E485E4B0222011D1A7005F0C6FA93
:1037E80009E40BF0C7FE544B022883F8D4077FF690
:1037F80078AF83F8D48774E7DB287FF477AB4F4B37
:103808001B681E21D9721973322119710F21597140
:10381800222199710E2119743521997619214FF0B9
:10382800280ED9712121172283F801E083F802E0DC
:10383800597483F809E053214FF0780E5A759A7538
:10384800D97655225A2183F80AE04FF4FA7E0A20E5
:103858004FF0010C4FF02D08DA7019720022642124
:10386800A3F84EE0DFF8F0E083F800C083F80D809D
:10387800DA759A731A76DA735A7683F8148083F8AD
:103888001EC083F8522083F851209874197783F862
:103898005020C3F82CE0C3F830E0C3F834E0DFF878
:1038A800BCE0C3F840E0DFF8B8E0DFF8B8C0C3F820
:1038B80044E083F85920DFF8B0E0DFF8B080C3F8BF
:1038C80038C04FF4E172C3F83CC0C3F848E0DFF8F1
:1038D800A0C0A3F85A204FF04B0E1022C3F8208046
:1038E800C3F82480C3F828C083F84CE083F8530059
:1038F80083F8540083F8550083F8561083F857105E
:1039080083F8581083F85C20FFF775BBD62831D1AF
:103918004FF000080BF03AFE0E4B23F8180008F1A0
:103928000108B8F1080FF5D1FFF765BBBC1A0020F4
:103938005F340020CA120020C0290020D81A0020B5
:1039480094150020D4140020AC2500201413002066
:103958000C130020C01A0020CDCCCC3E0AD7233C43
:103968000000A0408FC2F53C000040403333B33F15
:103978000000604049D8D42840F0F7815B790F2BCC
:103988007FF403AB0BF0F6FD072880463FF6FDAA4F
:10399800D64ED6F800A00BF0F9FD0E2303FB08F86D
:1039A800C244AAF82501D6F800A00BF0EFFDC244E6
:1039B800AAF82701D6F800A00BF0E8FDC244AAF83F
:1039C8002901D6F800A00BF0D5FDC2448AF82B01D6
:1039D800D6F800A00BF0CEFDC2448AF82C01D6F828
:1039E80000A00BF0C7FDC2448AF82D01D6F800A04C
:1039F8000BF0C0FDC24436688AF82E010BF0D0FDEA
:103A0800B044C8F82F01FFF7F6BAD92812D10BF045
:103A1800BDFDB74EA6F84C010BF0B8FDA6F84E0157
:103A28000BF0B4FDA6F850010BF0B0FDA6F852015A
:103A3800FFF7E1BADA2840F09881AC4ED6F800904A
:103A48000BF098FD89F81D01D6F800900BF092FD57
:103A580089F81E0136680BF08DFD86F81F01FFF707
:103A6800CABA0BF087FD0F2880463FF68EAA0BF0E6
:103A780081FDA04BC8EBC808984488F804000BF0F7
:103A880079FD88F805000BF075FD88F806000BF045
:103A980071FD88F807000BF06DFD88F808000BF041
:103AA80069FD88F809000BF065FD88F80A0009F03F
:103AB800E7FAFFF7A0BADC280ED10BF05BFD8C4EBD
:103AC80086F858010BF056FD86F859010BF052FDA7
:103AD80086F85A01FFF78FBAEF2840F04681834EE7
:103AE800D6F800900BF052FDA9F8660036680BF086
:103AF8004DFDA6F86400FFF77EBA9DF8133006EB7B
:103B0800C30393F8CD30DB0743D59DF8133006EB9C
:103B1800C30393F8CC20784B33F91230002B38DDEF
:103B28009DF8133096F8629006EBC3034FEAC9017B
:103B3800D3F8D03058689DF8133006EBC30806EB6D
:103B4800010ED8F8D030CEF864001A89AEF86A2091
:103B580092B24FF0000E012303FA0EF3134005D181
:103B68000EF1010EBEF1100FF5D100E0734651447D
:103B780009F10109A1F8683004238DF8163005A968
:103B88000123ADF814208DF8173001F097FD8AF85D
:103B980062909DF813300133DBB28DF81330FFF7D4
:103BA800C3B99AF862309842BFF4EFA900200BF02D
:103BB80031FD236898790BF0FCFC2368186808F03D
:103BC8008BFDD8F800000BF0B5FC09F009F872B6C7
:103BD800DFF82C814FF400624FF48066A8F82820A3
:103BE8004FF0010BA8F828604046ADF8142005A94D
:103BF80004228DF816208DF817B001F05FFD4046BD
:103C080005A98DF816B08DF817B0ADF8146001F05D
:103C180055FD3A4A4FEAC9094A44516EB2F868E07C
:103C28000868B2F86A200EFA0BFE0BFA0EFB4BEA94
:103C3800000008608A61C8F81860B8F810301805E4
:103C4800FBD40AEB09030122586EB3F868E0016857
:103C58004FEA4E0E02FA0EF20A43596E0260B3F8AA
:103C68006A20274B0A854FF4806119854FF400417B
:103C7800C3F818144FF48041A3F8281440F60558E7
:103C8800DFF87CB0BBF81030190505D4B8F1000F87
:103C9800F6D008F1FF38F3E70423826105A98DF80F
:103CA80016300123ADF814208DF8173001F006FD09
:103CB800144B4FF480429A61B8F1000F24D0104899
:103CC800038A1B05BDD50AEB09034FF480615A6EC0
:103CD800B3F86A30128A13420A4B18BF81614FF455
:103CE80000420ABF01859A611A85E8E7D81A0020C0
:103CF800C0290020902A0020B41B0020A410002016
:103D080000040048000800484FF48062CBF81820EF
:103D18004FF400429A6162B60A2008F03FFE0DF0A7
:103D2800E4FD2368F32283F84920FFF764B9FA28F1
:103D38001BD14F4B1B785A077FF5D3AC15E0DFF842
:103D4800588108F140090BF021FCA8F8A8020BF0F3
:103D580011FC88F8AA020BF00DFC08F1040888F899
:103D6800A702C845EFD1FFF746B90DF02BFFFEF7C4
:103D780002B90C2803D13F480BF0E6FC49E00A28B9
:103D880001D00D2847D13C4D3C480BF0DDFC2846BE
:103D9800232111F054FD08B1401B206023687BB338
:103DA8005A1EA95C202901D11346F8E7324A23603C
:103DB8000021D154324B334DD3F800A0D5F800B0D0
:103DC8002D4E584611F049FD07463A4630465946A9
:103DD80011F04CFD2C4A20B9F35D53445B78590728
:103DE80003D010359542E9D306E0954204D2781CF9
:103DF800EB683044984702E024480BF0A5FC002308
:103E08001D4823600021302211F0E3FC019B1B7840
:103E180043B31F4807E07F280FD1013B164A1D48CE
:103E280023600021D1540BF08FFCFDF7DCBF0C2878
:103E3800A1D07F2804D1FDF7D6BF2F2B3DF6D3AFF5
:103E4800A0F12002D2B25E2A3DF6CDAF13B92028E8
:103E58003DF4C9AF5A1C2260074AD0540BF06CFCE1
:103E6800FDF7C1BF0FB0BDEC028BBDE8F08F00BFFE
:103E78005F340020AA990108E01A002055A801081B
:103E880060040020C0790108807B0108B599010809
:103E9800A5990108D1990108C0290020A2490A68FA
:103EA8002DE9F04F02F59C43A04C20332360A04B32
:103EB80089B01E780291C6B19E4909688A4240F2CB
:103EC8000781013E1E7003E1D9F800309A48072D9A
:103ED80098BF595D994B88BF29461B689847032DA1
:103EE8000CD904EB45050136A880934BDFF8749292
:103EF8001A78F5B2AA421846E6D820E0D9F8002088
:103F080005F10E0302EB8303D9881A890028E8D04B
:103F18004FF47A73401A5843531A90FBF3F040F663
:103F2800C90300F57A70984205DC40F2EE23984206
:103F3800B8BF184601E040F6CA0080B2D1E7804B0E
:103F4800804A1B6842F2010803EA08087E4BB8FA67
:103F580088F84FEA58181B68B8F1000F05D194F893
:103F68002810117079494D780D7017781FB1774A6C
:103F7800177887F0010794F82AB090F800A00F226C
:103F88000326BBFBF6F606EB460684F82920C6EBAB
:103F98000B06D9F80020DFF8D491F6B20025554574
:103FA80059DA4FEA450C1FB1694931F8150000E0AC
:103FB8003846D18ADFF8B8E1814202D8118B8142B4
:103FC8001ED25EF825005949834203D2614931F86F
:103FD8000C0019E0E8B20492039305910BF094F9F0
:103FE800032D039B049A0FDC05994FF0010C91F8FF
:103FF80029E00CFA05FC2EEA0C0E81F829E003E012
:1040080003F596714EF82510B8F1000F1CD194F8FD
:10401800BC1029F8160031B9BBF1020F14D9434975
:10402800012081F8BC00B9F80210B9F80000084472
:10403800B9F804100844484980B221F8150000B2C4
:10404800032190FBF1F080B2424909F1060921F8F9
:1040580015000135A3E794F829203B493F4BA2F10D
:104068000F056A426A4184F8D62092B13C4A126828
:10407800500103D5324A1268D2050AD40A689A60F8
:10408800DB68D21AC82A1ED9344B012283F82120B2
:1040980019E02E4A0120507010700A689968DA6099
:1040A8005B68521A9A4282BF2C4B002283F8212067
:1040B8000025554507DAE8B20BF026F9254B23F819
:1040C80015000135F5E794F82A30013384F82A30D1
:1040D8001B4E3368DB0405D5214B1B68DF0701D471
:1040E8000DF04CFF029B19681E4B1868C37A002B11
:1040F80040D0013B174D427B35F813301AB1C3F558
:104108003B6308339BB21BB2A3F57A73B3F57A7F8E
:10411800A8BF4FF47A7323EAE37307EE903A9FED52
:10412800127AF8EEE77A5DE074250020C8110020C5
:104138004C27002048270020C43100204C010020D3
:1041480004320020D8190020502700200000002049
:10415800CC1100202427002086120020542700209C
:10416800842700202027002000007A44F411002032
:104178003C1200203268150440D5D4F8D8209C4F52
:104188008A1A002A3ADB01F59C422032C7F8D82067
:10419800984A007B5579984A32F8152097F8DC50F0
:1041A800013592B292FBF0F205F00F0087F8DC00BF
:1041B800384480F8DD201A469048185C01330244E0
:1041C800102B92B2F8D112B292FBF3F31BB2642B0C
:1041D800A8BF642323EAE37307EE903A9FED887A39
:1041E800F8EEE77AC7EE877A864A9FED877A67EE18
:1041F800877AFCEEE77A17EE903A13803368834D9E
:1042080013F4807F00F01B81814BDFF808929942FC
:1042180005D999F8022012B9012289F8022099F8E3
:104228000220002A00F00B817A4A95F8008092F863
:1042380021707A1E57425741774A1168002FC1F3FF
:104248008063C8F380080293924614BF4FF0000BB6
:104258004FF0030B99F82020052A00F2EA80DFE8E6
:1042680002F0034C608695B2B8F1000F38D0D4F84C
:10427800F000B4F8F41008F046FB012809D16749AA
:10428800674A09681268C988642000FB0122C9F8D6
:104298001020029B5BB1614A126812793AB10DF0A5
:1042A80035F9032289F820204FF47A7236E0002F7E
:1042B80040F0BF805A4AD9F810101068554A884211
:1042C8000AD903920DF022F9039A032182F82010EB
:1042D80040F6B831D161BDE7012182F82010B9E775
:1042E800029B4FF4806013B103F02CFD01E003F052
:1042F80019FD0022C9F810209BE0002F58D1474A29
:104308001268127A012A02D00DF000F9A2E70DF026
:10431800FDF8032289F8202040F6B832C9F81C209D
:1043280098E727B1052289F82020012000E03846C7
:10433800B8F1000F0CD0D4F8F020118A394A118056
:1043480051809180354909684988D1804FF0020B26
:10435800334A1168D9F81420914202D8B8F1000FF5
:1043680064D147F23052C9F81C20032221E02A7890
:1043780042F002022A700DF001FE294AD9F81C10F9
:1043880012680A44C9F81820042212E0244A9FB18E
:104398001168D9F8182091424BD9234A92781AB952
:1043A800DAF80020D30744D42A7822F002022A70CF
:1043B800052289F820204DE71268D9F81C100A4414
:1043C800C9F8182035E01549154A09681268C988DE
:1043D800642000FB0122C9F810204FF480600022FD
:1043E80089F8202089F8032003F09CFC32E700BFFD
:1043F800C8110020C8160020D8160020A5120020D9
:104408000000C8429015002000C07F445F3400209F
:10441800404B4C0054270020842700200C29002002
:1044280050270020242700200000002000287FF4C7
:1044380011AFBBF1000F02D0584608F0E7FB904FD0
:1044480007F5C470B7F8521108F05DFA0297834671
:1044580068B90DF04DF88B4BC3F800B0C3F804B041
:10446800C3F808B0884B00221A605A609A602B780B
:104478005F0736D53368D80633D5844B1B78D90601
:104488002FD4834B9B789BB1029B93F8E431BBF10B
:10449800000F15D17BB17F4B1A68D4F8F8309B1AFE
:1044A800002B08DA0DF06AFD7B4B83F8FCB018E0AE
:1044B800BBF1000F0DD1102008F0A8FB01230EE07E
:1044C8003BB1744A12684FF47A7101FB0323C4F8B4
:1044D800F83094F8FC3023B108F082FB002384F80C
:1044E800FC30029B002293F8E2A193F8E311B3F8A1
:1044F8009AE1B3F89CC11346684830F912709B08DA
:104508007745C4BF63F07F03DBB201326745B8BFAC
:1045180043F04003042A8146EED194F8FD205E481A
:104528009A4205D190F8FE20F92A04D8013200E019
:10453800002280F8FE2084F8FD30554B584F9A78B9
:104548009846DAB93B68DA0708D5BBF1000F15D1F0
:104558002B78DB0712D50DF057FB0FE02B785807A7
:104568000CD5504B1B784BB14F4BDB7833B911B19D
:104578000DF004FD02E0BBF1000FF9D094F8FE3015
:10458800454ADFF834B1142B40F0A88098F802307F
:104598001AF1000A18BF4FF0010A6BB392F8FD3008
:1045A8005F2B11D12B7803F0040303F0FF0113B143
:1045B8000DF0E4FC08E00B200491039208F026FBC0
:1045C800039A049982F8FE10BAF1000F14D094F8F7
:1045D800FD307D2B10D12B7803F0040303F0FF028C
:1045E80013B10DF0CBFC07E00B20039208F00EFB93
:1045F800294B039A83F8FE202B7803F0040303F079
:10460800FF01002B6AD194F8FD30234A572B10D1B3
:10461800264B4FF47A721A8033681A0601D504F0D3
:1046280051FC234B1B685B0758D5224B0A221A8082
:1046380054E03068400717D55A2B15D192F8FF304F
:104648002BB1012382F8FF1082F8003146E092F87E
:10465800013183F0010382F801310BB10C2000E035
:104668000D2008F0D3FA39E05D2B00F092845B2B23
:1046780000F091845E2B21D1032000F08DBC00BF97
:10468800C02900201C280020D4280020D414002091
:104698000000002050270020C811002024270020F7
:1046A80084270020D81900205427002050340020E7
:1046B800B827002052340020D81A0020562B01D1E8
:1046C80003F012FE98F80230002B00F07B8494F877
:1046D800FD306F2B40F070840DF096FA33685B075D
:1046E80036D594F80131B64A93B12B7858070FD5CF
:1046F800029BB9F90610B3F89A31994208DD3B6874
:1047080013F0010302BF3221A2F8041182F801312B
:104718003B68D9030DD594F80621A94B2AB993F81B
:10472800FF2012B93222A3F80421012384F80631AC
:104738000EE094F8FF30A24A53B12B7803F004033B
:1047480003F0FF0123B9012382F8FF1082F800313A
:10475800DBF8009000233B6009F1870809F1D70ACC
:1047680098F8002098F8013018F8010C9A420BD2FA
:10477800414608F091F838B118F8022C012303FAE1
:1047880002F23B6813433B6008F10408D045E7D1C7
:104798008C4B1B785BB18C4BDFF84CA21A68DFF8A6
:1047A8004C9212F0020F984640F07E8276E209F1B0
:1047B800D50709F21D197A78BB7838789A4228D239
:1047C800791C08F069F820B378790C2202FB0042C2
:1047D800D2F81031BB421CD0C2F81071397982F876
:1047E800081102F5847300215960FA785A70FA7832
:1047F8000C2A4FF0010204BF9A700322DA7094F871
:10480800382118BF99700123834022EA030384F8F2
:10481800383106374F45CED16C4B6D4FD3F80080F9
:104828006C4B1B6803936C4B1B7804934FF0000A86
:1048380097F80090B9F1000F00F02782D7F80330FD
:10484800039AD31A002B0CDB02F5FA73C7F803306E
:1048580094F83821012303FA0AF322EA030384F8BF
:104868003831049B002B00F0108217F8012C7B785C
:104878000432D2B2002B40F0C681584B33F91220D3
:10488800574BB3F8983103F1C8018A4202DD97F813
:1048980002B016E0C83B9A4204DA97F802C0CCF19D
:1048A800000B0EE094F83821012303FA0AF322EAF8
:1048B800030384F83831039B03F5FA73C7F8033010
:1048C800E3E194F8383143FA0AF3DA0700F1DD81BD
:1048D800BBF1000FCCBF0220012008F0B9F909F1A3
:1048E800FF33252B00F2C981DFE813F026002C00E6
:1048F8003B004C00620082009A00B400CE00D90050
:10490800E500C7014C005B0082009A00B4009200E9
:10491800AB00C50010011801200170017801800169
:10492800680128013001380140014801500158014F
:104938006001F100FA000301FA23009340460021C8
:10494800012205E06423009308F1010000210222FE
:104958005B469FED240A0DF0E9F8404607F082FF18
:104968008BE16423009308F10300002103225B46D6
:104978009FED1C0A0DF0DAF84046D4F83C1107F018
:1049880027FF7AE16423009308F1050000210D2236
:104998005B469FED140A0DF0C9F8B9F10D0F00F050
:1049A8006C816423009308F1040000210E2224E1A5
:1049B800FF23009308F10600002105221DE100BF36
:1049C800C81100205B34002084270020BC1A002076
:1049D800D112002050270020D819002024270020B9
:1049E800C029002000000000B827002080270020F0
:1049F800B74B1968C8230093881C0F2224315B46E3
:104A0800B2EE040A0DF092F8B9F10F0F00F03581FB
:104A1800AF4B1968C823481C0093203112223AE092
:104A2800AB4B9FEDAC0A1968C823009301F10C0049
:104A3800102230315B460DF079F8B9F1100F00F013
:104A48001C81A34B1968C82301F10B0000932C317A
:104A580013222CE09E4B9FEDA00A1968C8230093EF
:104A680001F1160011223C315B460DF05FF8B9F1F7
:104A7800110F00F00281964B1968C82301F1150047
:104A88000093383114221EE0914B1968C823C81CC2
:104A98000093283109225B46B2EE040AB0E08C4B41
:104AA8001968C82301F10D00009334310A225B46CE
:104AB8009FED880AA4E0864B1968C82301F1170006
:104AC800009340310B225B469FED830A98E0804BB0
:104AD8001968C82301F10800009344312422DAE759
:104AE8007B4B1968C82301F1120000934831252235
:104AF800D1E7774B18680378022B4FF0C80300936F
:104B08000CBF4C301C300021262276E0704B186810
:104B1800C82300930430002115226EE06C4B1868FE
:104B2800C82300930E300021162266E0684B1868EF
:104B3800C82300931830002117225EE0644B1868E0
:104B4800C8230093053000211C2256E0604B1868EA
:104B5800C82300930F3000211D224EE05C4B1868DB
:104B6800C8230093063000211E2246E0584B1868DF
:104B7800C8230093103000211F223EE0544B1868D0
:104B8800C82300931A300021202236E0504B1868C1
:104B9800C82300930730002121222EE04C4B1868CF
:104BA800C823009311300021222226E0484B1868C0
:104BB800C82300931B30002123221EE0444B1868B1
:104BC800C8230093093000211B2216E0404B1868C7
:104BD800C82300930A30002118220EE03C4B1868C5
:104BE800C823009314300021192206E0384B1868B6
:104BF800C82300931E3000211A229FED380A5B4615
:104C08000CF094FF39E0012B37D1354BB87833F9E4
:104C18001230B3F5617F05DB40F633029342A8BF3B
:104C2800134601E04FF46173B9F10C0F25D12D49FA
:104C38004FF4966292FBF0F00A78A3F5617393FB48
:104C4800F0F35FFA83FB5A4517D0BBF1040F029BC0
:104C580034BF5A4602220A7009FB0232224902F284
:104C6800D6720A600BF011FB4846594607F066FEFB
:104C78000BF10100C0B207F0EBFF94F838210123D3
:104C880003FA0AF3134384F838310AF1010ABAF136
:104C9800040F07F10C077FF4CBAD7CE53368DB0527
:104CA80011D5124BDB7873B1DAF800309F070AD5BB
:104CB800B9F8003013F001071AD10CF019FC0120E3
:104CC80003F040F814E0012003F02CF8012310E071
:104CD800003200200000C84200007A4400000000B2
:104CE80024270020AC270020BC1A002054270020CD
:104CF8000023D8F8002050070DD563B1012003F038
:104D080011F8B9F80030990708D40CF0F1FB02202B
:104D180003F018F802E0022003F004F8B9F80030B4
:104D2800BB4A13F0030F4FF480410CBF916111850A
:104D3800DAF8002012F00A0F30D0D8F80020D20696
:104D48000DD55F070ED4042002F0FCFFB14B0A22F8
:104D5800B3F9043093FBF2F3A4F8403102E00420E5
:104D680002F0E0FFD8F80030980607D5B9F800300F
:104D7800590606D4402002F0E5FF02E0402002F088
:104D8800D1FFD8F800305A0641BFA24BB3F904301E
:104D98000A2293FBF2F348BFA4F84231DAF8003054
:104DA8009B0609D4D8F800301F0540F197804FF4CE
:104DB800807002F0C7FF95E0974B1B78980755D590
:104DC800964B1B78042B51D9D8F8003013F4007B8C
:104DD8000FD0B9F80030D9063CD4102002F0B2FF49
:104DE800202002F09FFF8E48011D03F0BFFF022321
:104DF8002CE0B9F8007007F01007BFB22FB11020EF
:104E080002F090FF012784F844B1D8F800305A0521
:104E180014D5D4F8483183495A89B1F90030DFF8FC
:104E280008B2002BB8BF5B42934207DAB1F90230EF
:104E3800002BB8BF5B429342C0F22A81B9F8003018
:104E48009B0608D5202002F06DFF002384F844312A
:104E5800012700E0002794F85431BBB90E2007F071
:104E6800D5FE714B012283F854210FE0B9F80030C8
:104E780003F03003002B95D0102002F053FF2020C0
:104E880002F050FF002384F8443101E0002F89D05C
:104E9800664B002003F1280E03F15007644A0021F5
:104EA80022F81010634A596022F810100432CEF824
:104EB800041022F8101000221A609A60CEF8002020
:104EC800CEF808203A607960BA6014330EF1140EF7
:104ED800143700287FF466AF0120DFE74FF48070B5
:104EE80002F020FF544B5A79082A1F4601D00E2A97
:104EF80002D1402002F016FF3368580519D597F8FB
:104F080018321BB92B7813F0040F03E0D8F80030DF
:104F180013F4002F09D0494B00221A703C200CF0E2
:104F2800D1FD30B10AF006FBF8E705F059FA0CF0AC
:104F3800DCFC012384F8D83194F8D931002B00F037
:104F4800C080DAF80030590740F1BB80D8F800304B
:104F58001A0705D4082009B0BDE8F04F02F0E2BEF8
:104F6800B9F8004004F00804A4B2002C40F0A9806D
:104F7800082002F0E7FE324B1A68324B1A60324BB7
:104F8800DA88294BA3F8DA21304B1C60304B1C60BF
:104F980097E0012000E002205FFA80F8029A08F109
:104FA800FF3382F8D43702F017FF02F0AFFF404614
:104FB80007F04EFEFFF792BBBAF1000F02D07E2B2E
:104FC8003FF48AAB94F8FD30972B06D1164B4FF47B
:104FD800C872A3F80221FFF781BBA72B06D10E4A9E
:104FE800137843F004031370FFF778BB0022BB2B40
:104FF800079201D1022303E0B72B04D14FF6FE73C9
:10500800ADF81E302DE0BE2B24D1022327E000BFCF
:1050180000080048FC270020D4140020DA140020DF
:1050280094150020F4270020C81100202013002028
:105038005634002098130020C0290020C9310020D0
:105048008C150020AC25002024270020B425002042
:10505800B8250020BD2B7FF441AB4FF6FE73ADF8A9
:105068001C30DBF80030BDF81C10B3F864200A448B
:10507800A3F86420BDF81E10B3F866200A44A3F80C
:10508800662003F031F9002384F8FE30FFF726BBD1
:10509800B9F800309B063FF5DEAE202002F052FE44
:1050A800094B0BF5A6701A685B68CBF84C210BF519
:1050B800A8710127CBF8503103F058FE8BF84471E2
:1050C800C9E609B0BDE8F08FDC14002010F80A3CEE
:1050D8000133DBB20A2B84BF10F8131C044A00F812
:1050E8000A3C82BF002322F8113000F80A3C7047BE
:1050F80098260020334A136C90681944081A40F621
:105108008C23984270B513469160D06051603BD9AA
:10511800127893F945108A4210460BD1111F0829BD
:1051280008D893F84610182901D8013103E083F80C
:10513800442002E0002183F8461093F944402149B5
:10514800A24219D191F84740B4B10C3100249442DD
:1051580006DA1D4D51F8046F25F814600134F6E79E
:105168000C2805D01849002421F810400130F7E731
:10517800164801780131017083F845200022012189
:105188001A7083F8471070BD92F84710C9B1A0F2A1
:10519800EF2440F2DA518C4208D811780B2905D84F
:1051A8000B1D0131117042F8230070BD002283F8F5
:1051B8004720074B03F13002002143F8041F9342B4
:1051C800FAD170BDFC04002098260020CE270020CC
:1051D80008050020024A136C013319441164704712
:1051E800FC040020024B53F820301B6819607047FC
:1051F800CC1B0020064B53F820301A681B89A1F5F8
:105208007A7159434FF47A7391FBF3F11160704747
:10521800CC1B0020074B084A98420BBF13885388C1
:10522800013301330BBF9BB29BB213805380002024
:10523800704700BF00540040A4130020F0B5046D6F
:105248008668236823F0010323608379054613F0F9
:10525800020F40790CBF4FF0000E4FF4005E13F0C0
:10526800040F14BF4FF48067002710F0010F14BF1C
:10527800042100218307206820F001002060626873
:1052880022F440524EEA02026260226822F4B053CD
:1052980023F00C0348BF41F008013B430B43236054
:1052A800A36895B023F44073A360684601F0B0FE8C
:1052B800284B9C4201D10C9B0EE0274B9C4201D10C
:1052C8000D9B09E0254B9C4201D10E9B04E0244B29
:1052D8009C420CBF0F9B109B2268A879170448BFFB
:1052E8005B00B3FBF6F206FB1233B3EB560F2368F1
:1052F80028BF01321E0441BF4FF6F073C2F34201CA
:10530800134041EA03026B7992B213F0020FA281B3
:1053180000F0010114BF4FF400320022DC0748BF3F
:1053280042F480322B6D11B159680A4302E0596882
:1053380021EA02025A609A6801074CBF42F008024B
:1053480022F008029A601A6842F001021A6015B049
:10535800F0BD00BF00380140004400400048004054
:10536800004C00403D4B1B78012B30B514BF002486
:105378000324B1B9036A23F0010303628169036A54
:1053880021F0F30123F00A0341F0010142F0010288
:105398001A4341EA041181610262836923F00C0314
:1053A8001BE004291DD1016A4FF6EF730B4003621D
:1053B8008169056A120121F473414FF65F7342F067
:1053C800100241F480712B4092B2134341EA043138
:1053D80081610362836923F4406383618369836124
:1053E80030BD0829016A1AD14FF6FF630B400362EA
:1053F800C169036A9BB289B223F4206343F48073C2
:1054080021F0F30143EA022241F0010192B241EA9C
:105418000411C1610262C2694FF6F37319E04EF6D6
:10542800FF730B400362C369056A40F6FF411940E8
:1054380045F6FF732B4043F4805343EA023241F4AC
:10544800807192B241EA0431C1610262C2694FF2CD
:10545800FF331340C361C369C36130BDF804002042
:1054680038B510F80E2C50F8043C044652B9012205
:1054780000F80E2C20F80C1C997A18680222BDE856
:1054880038406FE730F80C2C20F80A1C891A89B2CA
:1054980020F8081C074A10F80F0C002522F81010F5
:1054A80004F80E5C1868997A2A46FFF75BFF04F83F
:1054B800065C38BD98260020044B53F820301BB1F9
:1054C80007289CBF1B681960704700BF240600208E
:1054D800084A13689B050BD5074B0021197007492B
:1054E80008684FF6FE7303400B604FF40073536077
:1054F800704700BF000002405A34002030000240CC
:105508002DE9F047664D6B6866490A78581C02F029
:10551800FF068E460AB10346F6E76B60687CEB68C7
:1055280095F81080AA7C374639B2202900F09B8074
:10553800DFF880C10CEB81033CF82110DC789B7804
:10554800C3F1FF039BB2002B65D0C3F1FF03634394
:105558004FF03C0C1B12B1FBFCF9B9F1050F5DD8FB
:10556800DFE809F0030B1A293A4AE01ADAB2414394
:10557800B1FBFCF01044C0B251E0B1FBFCF00CFBF5
:10558800101189B2DAB2C1F13C01E31A4B4320464B
:10559800B3FBFCFC94442CE0B1FBFCF00CFB1011B9
:1055A8005FFA83F8E21A89B24A43B2FBFCF242443A
:1055B800D2B2204632E0B1FBFCF90CFB191189B2DA
:1055C8005FFA83F8E01AC1F13C014843B0FBFCF0F4
:1055D8004044C0B2224621E0B1FBFCF80CFB181194
:1055E800D8B289B2E31A01FB03F2B2FBFCFC2246F3
:1055F80084445FFA8CF412E0B1FBFCF80CFB181140
:1056080089B2D8B2C1F13C01E31A4B43B3FBFCF2B7
:105618000244D2B203E02246204600E044464FEA64
:10562800042C4CEA004C4CEA020C172306F1170133
:105638004FF0010808FA03F8C91A18EA0C0F89B2E2
:10564800DFF8748014BF4FF011094FF0090913F106
:10565800FF3308F80190E9D218360137B6B2BFB265
:10566800114BA04660E7AA74EB60104A69810123D8
:105678008EF800300E4985F8108040F22A3368749D
:105688002E81536000234B620B889BB243F00103C9
:105698000B80136843F001031360BDE8F08700BF77
:1056A800A41300205A340020B41300203000024014
:1056B80000440140461900209506002073B50646AF
:1056C8000D46002401232A88A34013421AD0AA7841
:1056D800009302F003038DF80430EB78022B03D01B
:1056E800032B0CBF032301238DF805303046C2F38A
:1056F80001136946C2F381028DF806308DF8072040
:1057080001F0F4FD0134102CDCD102B070BD2DE99C
:10571800F04F734EF57C07460C4687B011469A4603
:1057280000686B1C914622464FF0020BF37408F098
:10573800E5FB3B897868ADF8043001A98DF806B01F
:105748008DF807B0FFF7BAFF0023ADF80A30ADF8BF
:105758001230ADF8163070230193BA7A3C68CDF850
:105768000CA0012306F114082D01ADF808304FF400
:105778008073A844ADF810B0ADF814300C2A7ED868
:10578800DFE802F0077D7D7D0F7D7D7D387D7D7DA5
:105798005E00204601A901F0FDFBA36943F0080360
:1057A80026E0236A4F4823F010032362236A6168C6
:1057B800A26922F0807222F4E642844242F4E04276
:1057C80006D000F50060844202D043F0300307E0C1
:1057D80023F0E00321F4406143F0300341F4806199
:1057E8006160A261C4F838A02362A36943F400632E
:1057F800A36144E0236A3B4823F480732362226A4E
:105808006168E369844223F0730343F0700306D0B0
:1058180000F50060844202D042F4407207E022F4AE
:10582800606221F4405142F4407241F48051616059
:10583800E361C4F83CA02262E36943F008031DE079
:10584800236A284823F480532362226A6168E36943
:10585800844223F4E64343F4E04342F4405203D045
:1058680000F50060844201D141F480416160E36148
:10587800C4F840A02262E36943F40063E3613A7B21
:105888003B681AB15A6C42F400425A641A8892B2C0
:1058980042F001021A80BA7A0C2A18D8DFE802F01E
:1058A800071717170B1717170F1717171300721962
:1058B80003F134010AE0721903F1380106E07219A4
:1058C80003F13C0102E0721903F1400151613544D2
:1058D8004046A5F81C90AB6107B0BDE8F08F00BF4B
:1058E800A4130020002C0140F8B53A4E3A4C400071
:1058F800C7B24FF420453068C4F8D450D0F818E047
:105908001EF4004F05D0AE46013DBEF1000FF5D1A3
:1059180016E0D0F804E0314D0EEA050545F490355F
:105928003D4345604FF42045C4F8D450D0F818E002
:105938001EF0020F2DD1AE46013DBEF1000FF5D18C
:10594800C4F8D4501FE02946013D0029F8D08169E8
:105958004906F8D5C4F8D45020494568294041F093
:10596800007141F4105141EA0241394341604FF45A
:105978002041A2B1306885696D071ED411F1FF314D
:10598800F9D2C4F8D410FFF745FC003018BF012045
:10599800F8BD4FF420458162C4F8D450D7E7306889
:1059A800C4F8D4100B46826992060CD41A46013BFF
:1059B800002AF8D1C4F8D430E5E7416A03F8011B9E
:1059C800013AD2B2D3E7C4F8D4302023C36101200E
:1059D800F8BD00BF48060020A4130020009800FC72
:1059E800400070B5C5B23248324B00684FF42044CD
:1059F800C3F8D4408669360404D52646013C002EF7
:105A0800F8D113E046682C4C344044F0807444F4D8
:105A180090342C4344604FF42044C3F8D440866942
:105A2800B60729D42646013C002EF8D1C3F8D44045
:105A38001CE02146013C0029F8D081690E06F8D502
:105A480044681D49214041F0007141F480312943E7
:105A580041604FF42041C3F8D4108469A40711D4DD
:105A68000C460139002CF8D1C3F8D410FFF7D2FB4B
:105A7800003018BF012070BD4FF420448162C3F884
:105A8800D440DAE782624FF42042C3F8D420816917
:105A9800890606D41146013A0029F8D1C3F8D42062
:105AA800E4E7C3F8D4202023C361012070BD00BF00
:105AB80048060020A4130020009800FC044B1A6834
:105AC800044B9A42044B0CBF1888588880B2704720
